{
  "_format": "hh-sol-artifact-1",
  "contractName": "BurnerWalletCreator",
  "sourceName": "src/L3Contracts/BurnerWalletCreator.sol",
  "abi": [
    {
      "inputs": [],
      "stateMutability": "nonpayable",
      "type": "constructor"
    },
    {
      "inputs": [
        {
          "internalType": "address",
          "name": "owner",
          "type": "address"
        }
      ],
      "name": "OwnableInvalidOwner",
      "type": "error"
    },
    {
      "inputs": [
        {
          "internalType": "address",
          "name": "account",
          "type": "address"
        }
      ],
      "name": "OwnableUnauthorizedAccount",
      "type": "error"
    },
    {
      "inputs": [],
      "name": "ReentrancyGuardReentrantCall",
      "type": "error"
    },
    {
      "anonymous": false,
      "inputs": [
        {
          "indexed": true,
          "internalType": "address",
          "name": "burnerWallet",
          "type": "address"
        },
        {
          "indexed": true,
          "internalType": "string",
          "name": "jobId",
          "type": "string"
        }
      ],
      "name": "BurnerWalletCreated",
      "type": "event"
    },
    {
      "anonymous": false,
      "inputs": [
        {
          "indexed": false,
          "internalType": "address",
          "name": "_mediator",
          "type": "address"
        },
        {
          "indexed": false,
          "internalType": "string",
          "name": "_data",
          "type": "string"
        },
        {
          "indexed": false,
          "internalType": "uint256",
          "name": "_amount",
          "type": "uint256"
        }
      ],
      "name": "FundsTransferredToMediator",
      "type": "event"
    },
    {
      "anonymous": false,
      "inputs": [
        {
          "indexed": true,
          "internalType": "address",
          "name": "previousOwner",
          "type": "address"
        },
        {
          "indexed": true,
          "internalType": "address",
          "name": "newOwner",
          "type": "address"
        }
      ],
      "name": "OwnershipTransferStarted",
      "type": "event"
    },
    {
      "anonymous": false,
      "inputs": [
        {
          "indexed": true,
          "internalType": "address",
          "name": "previousOwner",
          "type": "address"
        },
        {
          "indexed": true,
          "internalType": "address",
          "name": "newOwner",
          "type": "address"
        }
      ],
      "name": "OwnershipTransferred",
      "type": "event"
    },
    {
      "inputs": [],
      "name": "acceptOwnership",
      "outputs": [],
      "stateMutability": "nonpayable",
      "type": "function"
    },
    {
      "inputs": [
        {
          "internalType": "string",
          "name": "_backendDigest",
          "type": "string"
        },
        {
          "internalType": "uint256",
          "name": "tokenAmount",
          "type": "uint256"
        }
      ],
      "name": "deployBurner",
      "outputs": [],
      "stateMutability": "nonpayable",
      "type": "function"
    },
    {
      "inputs": [],
      "name": "mediator",
      "outputs": [
        {
          "internalType": "address",
          "name": "",
          "type": "address"
        }
      ],
      "stateMutability": "view",
      "type": "function"
    },
    {
      "inputs": [],
      "name": "owner",
      "outputs": [
        {
          "internalType": "address",
          "name": "",
          "type": "address"
        }
      ],
      "stateMutability": "view",
      "type": "function"
    },
    {
      "inputs": [],
      "name": "pendingOwner",
      "outputs": [
        {
          "internalType": "address",
          "name": "",
          "type": "address"
        }
      ],
      "stateMutability": "view",
      "type": "function"
    },
    {
      "inputs": [],
      "name": "renounceOwnership",
      "outputs": [],
      "stateMutability": "nonpayable",
      "type": "function"
    },
    {
      "inputs": [
        {
          "internalType": "string",
          "name": "_data",
          "type": "string"
        },
        {
          "internalType": "uint256",
          "name": "_amount",
          "type": "uint256"
        }
      ],
      "name": "transferFundsToMediator",
      "outputs": [],
      "stateMutability": "nonpayable",
      "type": "function"
    },
    {
      "inputs": [
        {
          "internalType": "address",
          "name": "newOwner",
          "type": "address"
        }
      ],
      "name": "transferOwnership",
      "outputs": [],
      "stateMutability": "nonpayable",
      "type": "function"
    }
  ],
  "bytecode": "0x6080806040523461009557331561007f57600180546001600160a01b0319908116909155600080543381841681178355604051939290916001600160a01b0316907f8be0079c531659141344cd1fd0a4f28419497f9722a3daafe3b4186f6b6457e09080a3600160025533906003541617600355610dae908161009b8239f35b631e4fbdf760e01b815260006004820152602490fd5b600080fdfe60806040908082526004908136101561001757600080fd5b600092833560e01c9182635a26409914610326575081636d0501f6146102fd578163715018a6146102a757816379ba5097146102375781638a767470146101405781638da5cb5b14610118578163e30c3978146100ef575063f2fde38b1461007e57600080fd5b346100eb5760203660031901126100eb57356001600160a01b03818116918290036100e7576100ab610480565b600180546001600160a01b031916831790558254167f38d16b8cac22d99fc7c124b9cd0de2d3fa1faef420bfe791d8c362d765e227008380a380f35b8280fd5b5080fd5b8390346100eb57816003193601126100eb5760015490516001600160a01b039091168152602090f35b8390346100eb57816003193601126100eb57905490516001600160a01b039091168152602090f35b919050346100e757816003193601126100e7576001600160401b038135818111610233573660238201121561023357808301359180831161022f576024820191602484369201011161022f57610194610480565b8451906108ac8083019182118383101761021c57869183916104ad83396020815285602082015285858483013788838783010152601f19601f8701160103019086f09283156102125782602093949551948593843782019081520301902080546001600160a01b0319166001600160a01b0390921691909117905580f35b84513d87823e3d90fd5b634e487b7160e01b885260418652602488fd5b8580fd5b8480fd5b9050346100e757826003193601126100e757600154916001600160a01b039133838516036102905750506001600160a01b03199182166001558254339281168317845516600080516020610d598339815191528380a380f35b60249250519063118cdaa760e01b82523390820152fd5b83346102fa57806003193601126102fa576102c0610480565b600180546001600160a01b03199081169091558154908116825581906001600160a01b0316600080516020610d598339815191528280a380f35b80fd5b8390346100eb57816003193601126100eb5760035490516001600160a01b039091168152602090f35b849250346100e757816003193601126100e7578335916001600160401b03808411610233573660238501121561023357838601359080821161046d57601f1996601f83018816603f01881685019182118583101761045a57508252808352602093366024838301011161022f578186926024602093018387013784010152602435906103b0610480565b60018060a01b0385808080868560035416828215610451575bf115610447576003541693815194855260606020860152835193846060870152865b85811061043357877f0a97ffea7508bfc92471b012330e7912fb0b7ebf5eab03eea48c26bf6a676e23886080818d601f8c8c8c8987848801015285015201168101030190a180f35b8181018301518782016080015282016103eb565b81513d87823e3d90fd5b506108fc6103c9565b634e487b7160e01b875260419052602486fd5b634e487b7160e01b865260418752602486fd5b6000546001600160a01b0316330361049457565b60405163118cdaa760e01b8152336004820152602490fdfe608060405234610261576108ac8038038061001981610266565b928339810160209182818303126102615780516001600160401b0391828211610261570191601f8181850112156102615783519383851161021f57601f199461006783820187168801610266565b9381855287828401011161026157869160005b82811061024e5750509060009184010152331561023557600180546001600160a01b031990811682556000805433928116831782559294926001600160a01b0316907f8be0079c531659141344cd1fd0a4f28419497f9722a3daafe3b4186f6b6457e09080a382600255805193841161021f5760059586548481811c91168015610215575b828210146101ff578381116101bb575b508092851160011461015757508394509083929160009461014c575b50501b916000199060031b1c19161790555b604051610620908161028c8239f35b01519250388061012b565b9294849081168760005284600020946000905b888383106101a15750505010610188575b505050811b01905561013d565b015160001960f88460031b161c1916905538808061017b565b85870151885590960195948501948793509081019061016a565b8760005281600020848088018a1c8201928489106101f6575b01891c019085905b8281106101ea57505061010f565b600081550185906101dc565b925081926101d4565b634e487b7160e01b600052602260045260246000fd5b90607f16906100ff565b634e487b7160e01b600052604160045260246000fd5b604051631e4fbdf760e01b815260006004820152602490fd5b818101840151868201850152830161007a565b600080fd5b6040519190601f01601f191682016001600160401b0381118382101761021f5760405256fe60806040908082526004908136101561001757600080fd5b600092833560e01c9182631ae879e814610529575081635e6f0419146103635781636d0501f61461033a578163715018a6146102e757816379ba5097146102775781638da5cb5b1461024f578163e2c7601214610123578163e30c3978146100fa575063f2fde38b1461008957600080fd5b346100f65760203660031901126100f657356001600160a01b03818116918290036100f2576100b661059e565b600180546001600160a01b031916831790558254167f38d16b8cac22d99fc7c124b9cd0de2d3fa1faef420bfe791d8c362d765e227008380a380f35b8280fd5b5080fd5b8390346100f657816003193601126100f65760015490516001600160a01b039091168152602090f35b9050823461024c578060031936011261024c578151908060055460018160011c91600181168015610242575b602098898510821461022f575091839189959388958652908160001461020e57506001146101d0575b505061018a925095939295038261054e565b82519382859384528251928382860152825b8481106101ba57505050828201840152601f01601f19168101030190f35b818101830151888201880152879550820161019c565b600586528486209492508591905b8183106101f657508894505082010161018a88610178565b855488840185015294850194879450918301916101de565b91505061018a94925060ff191682840152151560051b820101869288610178565b634e487b7160e01b875260229052602486fd5b92607f169261014f565b80fd5b8390346100f657816003193601126100f657905490516001600160a01b039091168152602090f35b9050346100f257826003193601126100f257600154916001600160a01b039133838516036102d05750506001600160a01b031991821660015582543392811683178455166000805160206105cb8339815191528380a380f35b60249250519063118cdaa760e01b82523390820152fd5b833461024c578060031936011261024c5761030061059e565b600180546001600160a01b03199081169091558154908116825581906001600160a01b03166000805160206105cb8339815191528280a380f35b919050346100f257826003193601126100f2575490516001600160a01b03909116815260209150f35b9050346100f257806003193601126100f2578135906001600160401b039081831161052557366023840112156105255782840135916024936103a484610587565b906103b18451928361054e565b848252602094868684019160051b830101913683116104fa578701905b8282106105025750505084359182116104fe57366023830112156104fe5781860135916103fa83610587565b926104078551948561054e565b808452868685019160051b830101913683116104fa5787879101915b8383106104ea575050505060028054146104da576002805561044361059e565b80511580156104d1575b61049857519051036104625784600160025580f35b51636e38ef5d60e11b81529283015260139082015272496e636f6e73697374656e7420696e7075747360681b6044820152606490fd5b8251636e38ef5d60e11b815280870185905260138187015272496e76616c6964207573657220696e7075747360681b6044820152606490fd5b5081511561044d565b8251633ee5aeb560e01b81528690fd5b8235815291810191879101610423565b8980fd5b8680fd5b81356001600160a01b03811681036105215781529086019086016103ce565b8a80fd5b8480fd5b8490346100f657816003193601126100f6576003546001600160a01b03168152602090f35b601f909101601f19168101906001600160401b0382119082101761057157604052565b634e487b7160e01b600052604160045260246000fd5b6001600160401b0381116105715760051b60200190565b6000546001600160a01b031633036105b257565b60405163118cdaa760e01b8152336004820152602490fdfe8be0079c531659141344cd1fd0a4f28419497f9722a3daafe3b4186f6b6457e0a26469706673582212209f22276b58435718358f5b17f3ff9b4d5717ec9f153f877ca099fc692feb230964736f6c634300081800338be0079c531659141344cd1fd0a4f28419497f9722a3daafe3b4186f6b6457e0a264697066735822122061cd9e14769dc5b496c0e1500bdb22b044f56eefbb94f433b333c816bdbb930564736f6c63430008180033",
  "linkReferences": {},
  "deployedLinkReferences": {}
}