{
  "_format": "hh-sol-artifact-1",
  "contractName": "Dealer",
  "sourceName": "src/Dealer.sol",
  "abi": [
    {
      "inputs": [
        {
          "internalType": "address",
          "name": "target",
          "type": "address"
        }
      ],
      "name": "AddressEmptyCode",
      "type": "error"
    },
    {
      "inputs": [
        {
          "internalType": "string",
          "name": "reason",
          "type": "string"
        }
      ],
      "name": "AuthenticationFailed",
      "type": "error"
    },
    {
      "inputs": [
        {
          "internalType": "address",
          "name": "implementation",
          "type": "address"
        }
      ],
      "name": "ERC1967InvalidImplementation",
      "type": "error"
    },
    {
      "inputs": [],
      "name": "ERC1967NonPayable",
      "type": "error"
    },
    {
      "inputs": [],
      "name": "FailedCall",
      "type": "error"
    },
    {
      "inputs": [
        {
          "internalType": "string",
          "name": "reason",
          "type": "string"
        }
      ],
      "name": "InvalidChainId",
      "type": "error"
    },
    {
      "inputs": [],
      "name": "InvalidImplementation",
      "type": "error"
    },
    {
      "inputs": [],
      "name": "InvalidInitialization",
      "type": "error"
    },
    {
      "inputs": [
        {
          "internalType": "string",
          "name": "reason",
          "type": "string"
        }
      ],
      "name": "InvalidInteraction",
      "type": "error"
    },
    {
      "inputs": [],
      "name": "NotInitializing",
      "type": "error"
    },
    {
      "inputs": [
        {
          "internalType": "address",
          "name": "owner",
          "type": "address"
        }
      ],
      "name": "OwnableInvalidOwner",
      "type": "error"
    },
    {
      "inputs": [
        {
          "internalType": "address",
          "name": "account",
          "type": "address"
        }
      ],
      "name": "OwnableUnauthorizedAccount",
      "type": "error"
    },
    {
      "inputs": [],
      "name": "ReentrancyGuardReentrantCall",
      "type": "error"
    },
    {
      "inputs": [
        {
          "internalType": "address",
          "name": "token",
          "type": "address"
        }
      ],
      "name": "SafeERC20FailedOperation",
      "type": "error"
    },
    {
      "inputs": [],
      "name": "UUPSUnauthorizedCallContext",
      "type": "error"
    },
    {
      "inputs": [
        {
          "internalType": "bytes32",
          "name": "slot",
          "type": "bytes32"
        }
      ],
      "name": "UUPSUnsupportedProxiableUUID",
      "type": "error"
    },
    {
      "anonymous": false,
      "inputs": [
        {
          "indexed": false,
          "internalType": "uint64",
          "name": "version",
          "type": "uint64"
        }
      ],
      "name": "Initialized",
      "type": "event"
    },
    {
      "anonymous": false,
      "inputs": [
        {
          "indexed": true,
          "internalType": "bytes",
          "name": "_backendDigest",
          "type": "bytes"
        },
        {
          "indexed": false,
          "internalType": "bytes32",
          "name": "_jobDigest",
          "type": "bytes32"
        },
        {
          "indexed": true,
          "internalType": "uint256",
          "name": "_chainId",
          "type": "uint256"
        }
      ],
      "name": "L3Interaction",
      "type": "event"
    },
    {
      "anonymous": false,
      "inputs": [
        {
          "indexed": true,
          "internalType": "address",
          "name": "previousOwner",
          "type": "address"
        },
        {
          "indexed": true,
          "internalType": "address",
          "name": "newOwner",
          "type": "address"
        }
      ],
      "name": "OwnershipTransferStarted",
      "type": "event"
    },
    {
      "anonymous": false,
      "inputs": [
        {
          "indexed": true,
          "internalType": "address",
          "name": "previousOwner",
          "type": "address"
        },
        {
          "indexed": true,
          "internalType": "address",
          "name": "newOwner",
          "type": "address"
        }
      ],
      "name": "OwnershipTransferred",
      "type": "event"
    },
    {
      "anonymous": false,
      "inputs": [
        {
          "indexed": true,
          "internalType": "address",
          "name": "implementation",
          "type": "address"
        }
      ],
      "name": "Upgraded",
      "type": "event"
    },
    {
      "inputs": [],
      "name": "UPGRADE_INTERFACE_VERSION",
      "outputs": [
        {
          "internalType": "string",
          "name": "",
          "type": "string"
        }
      ],
      "stateMutability": "view",
      "type": "function"
    },
    {
      "inputs": [],
      "name": "acceptOwnership",
      "outputs": [],
      "stateMutability": "nonpayable",
      "type": "function"
    },
    {
      "inputs": [
        {
          "internalType": "bytes",
          "name": "_backendDigest",
          "type": "bytes"
        },
        {
          "internalType": "uint256",
          "name": "_privateChainId",
          "type": "uint256"
        },
        {
          "internalType": "uint256",
          "name": "_totalAmount",
          "type": "uint256"
        }
      ],
      "name": "depositAndExec",
      "outputs": [],
      "stateMutability": "nonpayable",
      "type": "function"
    },
    {
      "inputs": [],
      "name": "initialize",
      "outputs": [],
      "stateMutability": "nonpayable",
      "type": "function"
    },
    {
      "inputs": [],
      "name": "owner",
      "outputs": [
        {
          "internalType": "address",
          "name": "",
          "type": "address"
        }
      ],
      "stateMutability": "view",
      "type": "function"
    },
    {
      "inputs": [],
      "name": "pendingOwner",
      "outputs": [
        {
          "internalType": "address",
          "name": "",
          "type": "address"
        }
      ],
      "stateMutability": "view",
      "type": "function"
    },
    {
      "inputs": [],
      "name": "proxiableUUID",
      "outputs": [
        {
          "internalType": "bytes32",
          "name": "",
          "type": "bytes32"
        }
      ],
      "stateMutability": "view",
      "type": "function"
    },
    {
      "inputs": [],
      "name": "renounceOwnership",
      "outputs": [],
      "stateMutability": "nonpayable",
      "type": "function"
    },
    {
      "inputs": [],
      "name": "stableCoin",
      "outputs": [
        {
          "internalType": "contract IERC20",
          "name": "",
          "type": "address"
        }
      ],
      "stateMutability": "view",
      "type": "function"
    },
    {
      "inputs": [
        {
          "internalType": "address",
          "name": "newOwner",
          "type": "address"
        }
      ],
      "name": "transferOwnership",
      "outputs": [],
      "stateMutability": "nonpayable",
      "type": "function"
    },
    {
      "inputs": [
        {
          "internalType": "address",
          "name": "newImplementation",
          "type": "address"
        },
        {
          "internalType": "bytes",
          "name": "data",
          "type": "bytes"
        }
      ],
      "name": "upgradeToAndCall",
      "outputs": [],
      "stateMutability": "payable",
      "type": "function"
    }
  ],
  "bytecode": "0x60a0806040523461002a5730608052610c799081610030823960805181818161070601526109fa0152f35b600080fdfe60406080815260048036101561001457600080fd5b600091823560e01c9182634f1ef2861461075857826352d1902d146106f1578263715018a61461068257826379ba50971461062b5782638129fc1c146104b45782638da5cb5b1461047e578263992642e514610455578263a6e82cf914610203578263ad3cb1cc1461016057508163e30c397814610126575063f2fde38b1461009c57600080fd5b34610123576020366003190112610123576100b561095c565b6100bd610a5c565b600080516020610c2483398151915280546001600160a01b0319166001600160a01b03928316908117909155600080516020610b84833981519152549091167f38d16b8cac22d99fc7c124b9cd0de2d3fa1faef420bfe791d8c362d765e227008380a380f35b80fd5b90503461015c578160031936011261015c57600080516020610c248339815191525490516001600160a01b039091168152602090f35b5080fd5b909150346101ff57826003193601126101ff57815190818301906001600160401b038211838310176101ec5750825260058152602090640352e302e360dc1b6020820152825193849260208452825192836020860152825b8481106101d657505050828201840152601f01601f19168101030190f35b81810183015188820188015287955082016101b8565b634e487b7160e01b855260419052602484fd5b8280fd5b83903461015c57606036600319011261015c576001600160401b03928135908482116104515736602383011215610451578183013585811161044d5760249081840193828236920101116104495781359360443592600080516020610be483398151915296600288541461043b576002885586156104075784156103ce576002549986519a60209b808d80820193898986378c8a8401928301528a8c83015242606083015260808201520360808101825260a0016102c19082610977565b51902095338b528a8c5286888c2055868b5260018c52878b2060ff1981541690556002546102ee906109cb565b600255600354885163a9059cbb60e01b8e820190815230878301526044808301949094529281526001600160a01b03919091169260808201908111828210176103bc578952518c918c919082855af1156103b25789513d6103a95750803b155b6103975750505091817ff4c94e35f93ec8707efe938113271b1e54683c5576d17820b4fdcb31d15437f29360019899938651928392833781018a81520390209351908152a35580f35b8651635274afe760e01b815291820152fd5b6001141561034e565b86513d8b823e3d90fd5b634e487b7160e01b8d5260418552858dfd5b60146064926020885193636e38ef5d60e11b855284015282015273125b9d985b1a5908125b9c1d5d08105b5bdd5b9d60621b6044820152fd5b600f60649260208851936305c57e8360e01b85528401528201526e125b9d985b1a590810da185a5b9259608a1b6044820152fd5b8551633ee5aeb560e01b8152fd5b8580fd5b8480fd5b8380fd5b83823461015c578160031936011261015c5760035490516001600160a01b039091168152602090f35b83823461015c578160031936011261015c57600080516020610b848339815191525490516001600160a01b039091168152602090f35b909150346101ff57826003193601126101ff57600080516020610c048339815191528054909181841c60ff1615916001600160401b03811680159081610623575b6001149081610619575b159081610610575b50610601576001600160401b031981166001178455826105e6575b5061052b6109f0565b610533610af1565b61053b610af1565b610543610af1565b61054b610af1565b33156105cf575061055b33610a95565b610563610af1565b61056b610af1565b6001600080516020610be4833981519152556105886002546109cb565b600255610593578280f35b805460ff60401b1916905551600181527fc7f505b2f371ae2175ee4913f4499e1f2633a7b5936321eed1cdaeb6115181d290602090a138808280f35b8351631e4fbdf760e01b8152908101859052602490fd5b6001600160481b0319166001600160401b0117835538610522565b50835163f92ee8a960e01b8152fd5b90501538610507565b303b1591506104ff565b8491506104f5565b9150346101ff57826003193601126101ff57600080516020610c2483398151915254336001600160a01b039091160361066b578261066833610a95565b80f35b60249250519063118cdaa760e01b82523390820152fd5b833461012357806003193601126101235761069b610a5c565b600080516020610c2483398151915280546001600160a01b0319908116909155600080516020610b848339815191528054918216905581906001600160a01b0316600080516020610bc48339815191528280a380f35b908334610123578060031936011261012357507f00000000000000000000000000000000000000000000000000000000000000006001600160a01b0316300361074b5760209051600080516020610ba48339815191528152f35b5163703e46dd60e11b8152fd5b9150806003193601126101ff5761076d61095c565b60249390919084356001600160401b03811161015c573660238201121561015c578085013561079b816109b0565b946107a885519687610977565b81865260209182870193368a8383010111610449578186928b8693018737880101526107d26109f0565b6107da610a5c565b803b1561094c5784516352d1902d60e01b81526001600160a01b038216969083818a818b5afa869181610919575b50610824575050505050505191634c9c8ce360e01b8352820152fd5b9088888894938c600080516020610ba4833981519152918281036109045750853b156108f0575080546001600160a01b031916821790558451889392917fbc7cd75a20ee27fd9adebab32041f755214dbc6bffa90cc0225b39da2e5c2d3b8580a28251156108d25750506108c49582915190845af4913d156108c8573d6108b66108ad826109b0565b92519283610977565b81528581943d92013e610b20565b5080f35b5060609250610b20565b9550955050505050346108e457505080f35b63b398979f60e01b8152fd5b8651634c9c8ce360e01b8152808501849052fd5b8751632a87526960e21b815280860191909152fd5b9091508481813d8311610945575b6109318183610977565b8101031261094157519038610808565b8680fd5b503d610927565b845163340aafcd60e11b81528790fd5b600435906001600160a01b038216820361097257565b600080fd5b601f909101601f19168101906001600160401b0382119082101761099a57604052565b634e487b7160e01b600052604160045260246000fd5b6001600160401b03811161099a57601f01601f191660200190565b60001981146109da5760010190565b634e487b7160e01b600052601160045260246000fd5b6001600160a01b037f00000000000000000000000000000000000000000000000000000000000000008116308114918215610a40575b5050610a2e57565b60405163703e46dd60e11b8152600490fd5b600080516020610ba48339815191525416141590503880610a26565b600080516020610b84833981519152546001600160a01b03163303610a7d57565b60405163118cdaa760e01b8152336004820152602490fd5b600080516020610c2483398151915280546001600160a01b0319908116909155600080516020610b8483398151915280549182166001600160a01b039384169081179091559116600080516020610bc4833981519152600080a3565b60ff600080516020610c048339815191525460401c1615610b0e57565b604051631afcd79f60e31b8152600490fd5b90610b475750805115610b3557602081519101fd5b60405163d6bda27560e01b8152600490fd5b81511580610b7a575b610b58575090565b604051639996b31560e01b81526001600160a01b039091166004820152602490fd5b50803b15610b5056fe9016d09d72d40fdae2fd8ceac6b6234c7706214fd39c1cd1e609a0528c199300360894a13ba1a3210667c828492db98dca3e2076cc3735a920a3ca505d382bbc8be0079c531659141344cd1fd0a4f28419497f9722a3daafe3b4186f6b6457e09b779b17422d0df92223018b32b4d1fa46e071723d6817e2486d003becc55f00f0c57e16840df040f15088dc2f81fe391c3923bec73e23a9662efc9c229c6a00237e158222e3e6968b72b9db0d8043aacf074ad9f650f0d1606b4d82ee432c00a26469706673582212202c915f76ddea8559bdad3710467ff1ffd655ba59234720710f8526b07ecf61b264736f6c63430008180033",
  "linkReferences": {},
  "deployedLinkReferences": {}
}