{
  "_format": "hh-sol-artifact-1",
  "contractName": "Dealer",
  "sourceName": "src/Dealer.sol",
  "abi": [
    {
      "inputs": [
        {
          "internalType": "address",
          "name": "target",
          "type": "address"
        }
      ],
      "name": "AddressEmptyCode",
      "type": "error"
    },
    {
      "inputs": [
        {
          "internalType": "string",
          "name": "reason",
          "type": "string"
        }
      ],
      "name": "AuthenticationFailed",
      "type": "error"
    },
    {
      "inputs": [
        {
          "internalType": "address",
          "name": "implementation",
          "type": "address"
        }
      ],
      "name": "ERC1967InvalidImplementation",
      "type": "error"
    },
    {
      "inputs": [],
      "name": "ERC1967NonPayable",
      "type": "error"
    },
    {
      "inputs": [],
      "name": "FailedCall",
      "type": "error"
    },
    {
      "inputs": [
        {
          "internalType": "string",
          "name": "reason",
          "type": "string"
        }
      ],
      "name": "InvalidChainId",
      "type": "error"
    },
    {
      "inputs": [],
      "name": "InvalidImplementation",
      "type": "error"
    },
    {
      "inputs": [],
      "name": "InvalidInitialization",
      "type": "error"
    },
    {
      "inputs": [
        {
          "internalType": "string",
          "name": "reason",
          "type": "string"
        }
      ],
      "name": "InvalidInteraction",
      "type": "error"
    },
    {
      "inputs": [],
      "name": "NotInitializing",
      "type": "error"
    },
    {
      "inputs": [
        {
          "internalType": "address",
          "name": "owner",
          "type": "address"
        }
      ],
      "name": "OwnableInvalidOwner",
      "type": "error"
    },
    {
      "inputs": [
        {
          "internalType": "address",
          "name": "account",
          "type": "address"
        }
      ],
      "name": "OwnableUnauthorizedAccount",
      "type": "error"
    },
    {
      "inputs": [],
      "name": "ReentrancyGuardReentrantCall",
      "type": "error"
    },
    {
      "inputs": [
        {
          "internalType": "address",
          "name": "token",
          "type": "address"
        }
      ],
      "name": "SafeERC20FailedOperation",
      "type": "error"
    },
    {
      "inputs": [],
      "name": "UUPSUnauthorizedCallContext",
      "type": "error"
    },
    {
      "inputs": [
        {
          "internalType": "bytes32",
          "name": "slot",
          "type": "bytes32"
        }
      ],
      "name": "UUPSUnsupportedProxiableUUID",
      "type": "error"
    },
    {
      "anonymous": false,
      "inputs": [
        {
          "indexed": false,
          "internalType": "uint256",
          "name": "_amount",
          "type": "uint256"
        }
      ],
      "name": "FundsTransferredToMediator",
      "type": "event"
    },
    {
      "anonymous": false,
      "inputs": [
        {
          "indexed": false,
          "internalType": "uint64",
          "name": "version",
          "type": "uint64"
        }
      ],
      "name": "Initialized",
      "type": "event"
    },
    {
      "anonymous": false,
      "inputs": [
        {
          "indexed": true,
          "internalType": "string",
          "name": "_backendDigest",
          "type": "string"
        },
        {
          "indexed": false,
          "internalType": "bytes32",
          "name": "_jobDigest",
          "type": "bytes32"
        },
        {
          "indexed": true,
          "internalType": "uint256",
          "name": "_chainId",
          "type": "uint256"
        }
      ],
      "name": "L3Interaction",
      "type": "event"
    },
    {
      "anonymous": false,
      "inputs": [
        {
          "indexed": true,
          "internalType": "address",
          "name": "previousOwner",
          "type": "address"
        },
        {
          "indexed": true,
          "internalType": "address",
          "name": "newOwner",
          "type": "address"
        }
      ],
      "name": "OwnershipTransferStarted",
      "type": "event"
    },
    {
      "anonymous": false,
      "inputs": [
        {
          "indexed": true,
          "internalType": "address",
          "name": "previousOwner",
          "type": "address"
        },
        {
          "indexed": true,
          "internalType": "address",
          "name": "newOwner",
          "type": "address"
        }
      ],
      "name": "OwnershipTransferred",
      "type": "event"
    },
    {
      "anonymous": false,
      "inputs": [
        {
          "indexed": true,
          "internalType": "address",
          "name": "implementation",
          "type": "address"
        }
      ],
      "name": "Upgraded",
      "type": "event"
    },
    {
      "inputs": [],
      "name": "UPGRADE_INTERFACE_VERSION",
      "outputs": [
        {
          "internalType": "string",
          "name": "",
          "type": "string"
        }
      ],
      "stateMutability": "view",
      "type": "function"
    },
    {
      "inputs": [],
      "name": "acceptOwnership",
      "outputs": [],
      "stateMutability": "nonpayable",
      "type": "function"
    },
    {
      "inputs": [
        {
          "internalType": "string",
          "name": "_backendDigest",
          "type": "string"
        },
        {
          "internalType": "uint256",
          "name": "_privateChainId",
          "type": "uint256"
        },
        {
          "internalType": "uint256",
          "name": "_totalAmount",
          "type": "uint256"
        }
      ],
      "name": "depositAndExec",
      "outputs": [],
      "stateMutability": "nonpayable",
      "type": "function"
    },
    {
      "inputs": [
        {
          "internalType": "address",
          "name": "_creator",
          "type": "address"
        }
      ],
      "name": "getJobDetails",
      "outputs": [
        {
          "components": [
            {
              "internalType": "bool",
              "name": "status",
              "type": "bool"
            },
            {
              "internalType": "bytes32",
              "name": "digest",
              "type": "bytes32"
            },
            {
              "internalType": "uint256",
              "name": "value",
              "type": "uint256"
            }
          ],
          "internalType": "struct IDealer.Job",
          "name": "",
          "type": "tuple"
        }
      ],
      "stateMutability": "view",
      "type": "function"
    },
    {
      "inputs": [
        {
          "internalType": "address",
          "name": "_mediator",
          "type": "address"
        }
      ],
      "name": "initialize",
      "outputs": [],
      "stateMutability": "nonpayable",
      "type": "function"
    },
    {
      "inputs": [],
      "name": "mediator",
      "outputs": [
        {
          "internalType": "address",
          "name": "",
          "type": "address"
        }
      ],
      "stateMutability": "view",
      "type": "function"
    },
    {
      "inputs": [],
      "name": "owner",
      "outputs": [
        {
          "internalType": "address",
          "name": "",
          "type": "address"
        }
      ],
      "stateMutability": "view",
      "type": "function"
    },
    {
      "inputs": [],
      "name": "pendingOwner",
      "outputs": [
        {
          "internalType": "address",
          "name": "",
          "type": "address"
        }
      ],
      "stateMutability": "view",
      "type": "function"
    },
    {
      "inputs": [],
      "name": "proxiableUUID",
      "outputs": [
        {
          "internalType": "bytes32",
          "name": "",
          "type": "bytes32"
        }
      ],
      "stateMutability": "view",
      "type": "function"
    },
    {
      "inputs": [],
      "name": "renounceOwnership",
      "outputs": [],
      "stateMutability": "nonpayable",
      "type": "function"
    },
    {
      "inputs": [],
      "name": "stableCoin",
      "outputs": [
        {
          "internalType": "contract IERC20",
          "name": "",
          "type": "address"
        }
      ],
      "stateMutability": "view",
      "type": "function"
    },
    {
      "inputs": [
        {
          "internalType": "address",
          "name": "newOwner",
          "type": "address"
        }
      ],
      "name": "transferOwnership",
      "outputs": [],
      "stateMutability": "nonpayable",
      "type": "function"
    },
    {
      "inputs": [
        {
          "internalType": "address",
          "name": "_jobCreator",
          "type": "address"
        }
      ],
      "name": "transferToWhisperRouter",
      "outputs": [],
      "stateMutability": "nonpayable",
      "type": "function"
    },
    {
      "inputs": [
        {
          "internalType": "address",
          "name": "newImplementation",
          "type": "address"
        },
        {
          "internalType": "bytes",
          "name": "data",
          "type": "bytes"
        }
      ],
      "name": "upgradeToAndCall",
      "outputs": [],
      "stateMutability": "payable",
      "type": "function"
    }
  ],
  "bytecode": "0x60a0806040523461002a5730608052610f0d908161003082396080518181816108da0152610bed0152f35b600080fdfe60406080815260048036101561001457600080fd5b600091823560e01c9182634f1ef2861461092c57826352d1902d146108c55782636d0501f61461089d578263715018a61461082e57826377924d1f1461073a57826379ba5097146106e35782638da5cb5b146106ad578263924b5a7914610471578263992642e514610448578263ad3cb1cc146103a9578263b18008d214610322578263c4d66de81461018157508163e30c397814610147575063f2fde38b146100bd57600080fd5b34610144576020366003190112610144576100d6610b34565b6100de610c4f565b600080516020610eb883398151915280546001600160a01b0319166001600160a01b03928316908117909155600080516020610e18833981519152549091167f38d16b8cac22d99fc7c124b9cd0de2d3fa1faef420bfe791d8c362d765e227008380a380f35b80fd5b90503461017d578160031936011261017d57600080516020610eb88339815191525490516001600160a01b039091168152602090f35b5080fd5b9091503461031e57602036600319011261031e5761019d610b34565b600080516020610e988339815191528054909281851c60ff161592916001600160401b03811680159081610316575b600114908161030c575b159081610303575b506102f4576001600160401b031981166001178555836102d9575b50610202610be3565b61020a610d85565b610212610d85565b61021a610d85565b610222610d85565b33156102c2575061023233610c88565b61023a610d85565b610242610d85565b6001600080516020610e788339815191525584546001600160a01b0319166001600160a01b039190911617845560025461027b90610bbe565b600255610286578280f35b805460ff60401b1916905551600181527fc7f505b2f371ae2175ee4913f4499e1f2633a7b5936321eed1cdaeb6115181d290602090a138808280f35b8451631e4fbdf760e01b8152908101869052602490fd5b6001600160481b0319166001600160401b01178455386101f9565b50845163f92ee8a960e01b8152fd5b905015386101de565b303b1591506101d6565b8591506101cc565b8280fd5b83823461017d57602036600319011261017d5780606092610341610b34565b8183805161034e81610b4f565b828152826020820152015260018060a01b0316815260016020522090805161037581610b4f565b60ff835416151592838252826002600183015492602085019384520154920191825282519384525160208401525190820152f35b9091503461031e578260031936011261031e57815190818301906001600160401b038211838310176104355750825260058152602090640352e302e360dc1b6020820152825193849260208452825192836020860152825b84811061041f57505050828201840152601f01601f19168101030190f35b8181018301518882018801528795508201610401565b634e487b7160e01b855260419052602484fd5b83823461017d578160031936011261017d5760035490516001600160a01b039091168152602090f35b83903461017d57606036600319011261017d576001600160401b0381358181116106a957366023820112156106a957808301359182116106a95760249081810190828436920101116106a55781359260443591600292600080516020610e788339815191529684885414610697578488558615610662578115610628573389526020956001875260ff8b8b205416156105e95750509183916105cf8488889661056e60a060019e9f809c7f78352e0cd5a6d886c0f17f330e53c3af773e83642f27370af2442e49e1506f029c548251958693838501988d8d8b378d8601948501528301524260608301526080820152036080810184520182610b80565b519020948c818a519161058083610b4f565b8083528983018981528c8085019287845233815260018d52209351151560ff80198654169116178455518f840155519101556105bc8154610bbe565b90558a8060a01b03600354163090610ce4565b818651928392833781018a81520390209351908152a35580f35b8a51636e38ef5d60e11b815291820187905260199082015278141c995d9a5bdd5cc8129bd888139bdd08199a5b9a5cda1959603a1b6044820152606490fd5b60649060148760208d5193636e38ef5d60e11b855284015282015273125b9d985b1a5908125b9c1d5d08105b5bdd5b9d60621b6044820152fd5b606490600f8760208d51936305c57e8360e01b85528401528201526e125b9d985b1a590810da185a5b9259608a1b6044820152fd5b8951633ee5aeb560e01b8152fd5b8480fd5b8380fd5b83823461017d578160031936011261017d57600080516020610e188339815191525490516001600160a01b039091168152602090f35b91503461031e578260031936011261031e57600080516020610eb883398151915254336001600160a01b0390911603610723578261072033610c88565b80f35b60249250519063118cdaa760e01b82523390820152fd5b83903461017d57602036600319011261017d57610755610b34565b61075d610c4f565b6001600160a01b03908116835260016020819052848420855193919061078285610b4f565b86600260ff83541615159283885284810154602089015201549501948552146107ea5750837f7c834a8a637af7c8ad16699142b1a7b82ff8ac97de948638b65a6c9458228e90926107e0836020946003541690875416835191610ce4565b519051908152a180f35b6064906020865191636e38ef5d60e11b8352820152601e60248201527f4e6f206c617465737420696e746572616374696f6e20726571756972656400006044820152fd5b8334610144578060031936011261014457610847610c4f565b600080516020610eb883398151915280546001600160a01b0319908116909155600080516020610e188339815191528054918216905581906001600160a01b0316600080516020610e588339815191528280a380f35b83823461017d578160031936011261017d57905490516001600160a01b039091168152602090f35b908334610144578060031936011261014457507f00000000000000000000000000000000000000000000000000000000000000006001600160a01b0316300361091f5760209051600080516020610e388339815191528152f35b5163703e46dd60e11b8152fd5b91508060031936011261031e57610941610b34565b60249390919084356001600160401b03811161017d573660238201121561017d578085013561096f81610ba3565b9461097c85519687610b80565b81865260209182870193368a8383010111610b30578186928b8693018737880101526109a6610be3565b6109ae610c4f565b803b15610b205784516352d1902d60e01b81526001600160a01b038216969083818a818b5afa869181610aed575b506109f8575050505050505191634c9c8ce360e01b8352820152fd5b9088888894938c600080516020610e3883398151915291828103610ad85750853b15610ac4575080546001600160a01b031916821790558451889392917fbc7cd75a20ee27fd9adebab32041f755214dbc6bffa90cc0225b39da2e5c2d3b8580a2825115610aa6575050610a989582915190845af4913d15610a9c573d610a8a610a8182610ba3565b92519283610b80565b81528581943d92013e610db4565b5080f35b5060609250610db4565b955095505050505034610ab857505080f35b63b398979f60e01b8152fd5b8651634c9c8ce360e01b8152808501849052fd5b8751632a87526960e21b815280860191909152fd5b9091508481813d8311610b19575b610b058183610b80565b81010312610b15575190386109dc565b8680fd5b503d610afb565b845163340aafcd60e11b81528790fd5b8580fd5b600435906001600160a01b0382168203610b4a57565b600080fd5b606081019081106001600160401b03821117610b6a57604052565b634e487b7160e01b600052604160045260246000fd5b601f909101601f19168101906001600160401b03821190821017610b6a57604052565b6001600160401b038111610b6a57601f01601f191660200190565b6000198114610bcd5760010190565b634e487b7160e01b600052601160045260246000fd5b6001600160a01b037f00000000000000000000000000000000000000000000000000000000000000008116308114918215610c33575b5050610c2157565b60405163703e46dd60e11b8152600490fd5b600080516020610e388339815191525416141590503880610c19565b600080516020610e18833981519152546001600160a01b03163303610c7057565b60405163118cdaa760e01b8152336004820152602490fd5b600080516020610eb883398151915280546001600160a01b0319908116909155600080516020610e1883398151915280549182166001600160a01b039384169081179091559116600080516020610e58833981519152600080a3565b60405163a9059cbb60e01b602082019081526001600160a01b039384166024830152604480830195909552938152909260808201906001600160401b03821183831017610b6a57602092600092604052519082865af115610d79576000513d610d7057508082163b155b610d56575050565b604051635274afe760e01b81529116600482015260249150fd5b60011415610d4e565b6040513d6000823e3d90fd5b60ff600080516020610e988339815191525460401c1615610da257565b604051631afcd79f60e31b8152600490fd5b90610ddb5750805115610dc957602081519101fd5b60405163d6bda27560e01b8152600490fd5b81511580610e0e575b610dec575090565b604051639996b31560e01b81526001600160a01b039091166004820152602490fd5b50803b15610de456fe9016d09d72d40fdae2fd8ceac6b6234c7706214fd39c1cd1e609a0528c199300360894a13ba1a3210667c828492db98dca3e2076cc3735a920a3ca505d382bbc8be0079c531659141344cd1fd0a4f28419497f9722a3daafe3b4186f6b6457e09b779b17422d0df92223018b32b4d1fa46e071723d6817e2486d003becc55f00f0c57e16840df040f15088dc2f81fe391c3923bec73e23a9662efc9c229c6a00237e158222e3e6968b72b9db0d8043aacf074ad9f650f0d1606b4d82ee432c00a2646970667358221220f04fa58709e8ad0063d94e16f24f7f0a965c988393cc438883bdf4c8b5e07c0f64736f6c63430008180033",
  "linkReferences": {},
  "deployedLinkReferences": {}
}