{
  "_format": "hh-sol-artifact-1",
  "contractName": "BurnerWallet",
  "sourceName": "src/L3Contracts/BurnerWallet.sol",
  "abi": [
    {
      "inputs": [
        {
          "internalType": "string",
          "name": "_backendDigest",
          "type": "string"
        },
        {
          "internalType": "address",
          "name": "_tokenAddress",
          "type": "address"
        }
      ],
      "stateMutability": "nonpayable",
      "type": "constructor"
    },
    {
      "inputs": [
        {
          "internalType": "string",
          "name": "reason",
          "type": "string"
        }
      ],
      "name": "InvalidInteraction",
      "type": "error"
    },
    {
      "inputs": [
        {
          "internalType": "address",
          "name": "owner",
          "type": "address"
        }
      ],
      "name": "OwnableInvalidOwner",
      "type": "error"
    },
    {
      "inputs": [
        {
          "internalType": "address",
          "name": "account",
          "type": "address"
        }
      ],
      "name": "OwnableUnauthorizedAccount",
      "type": "error"
    },
    {
      "inputs": [],
      "name": "ReentrancyGuardReentrantCall",
      "type": "error"
    },
    {
      "anonymous": false,
      "inputs": [
        {
          "indexed": true,
          "internalType": "address",
          "name": "previousOwner",
          "type": "address"
        },
        {
          "indexed": true,
          "internalType": "address",
          "name": "newOwner",
          "type": "address"
        }
      ],
      "name": "OwnershipTransferStarted",
      "type": "event"
    },
    {
      "anonymous": false,
      "inputs": [
        {
          "indexed": true,
          "internalType": "address",
          "name": "previousOwner",
          "type": "address"
        },
        {
          "indexed": true,
          "internalType": "address",
          "name": "newOwner",
          "type": "address"
        }
      ],
      "name": "OwnershipTransferred",
      "type": "event"
    },
    {
      "inputs": [],
      "name": "acceptOwnership",
      "outputs": [],
      "stateMutability": "nonpayable",
      "type": "function"
    },
    {
      "inputs": [],
      "name": "backendDigest",
      "outputs": [
        {
          "internalType": "string",
          "name": "",
          "type": "string"
        }
      ],
      "stateMutability": "view",
      "type": "function"
    },
    {
      "inputs": [
        {
          "internalType": "address[]",
          "name": "_receivers",
          "type": "address[]"
        },
        {
          "internalType": "uint256[]",
          "name": "_amounts",
          "type": "uint256[]"
        }
      ],
      "name": "executeBurnerTransaction",
      "outputs": [],
      "stateMutability": "nonpayable",
      "type": "function"
    },
    {
      "inputs": [],
      "name": "mediator",
      "outputs": [
        {
          "internalType": "address",
          "name": "",
          "type": "address"
        }
      ],
      "stateMutability": "view",
      "type": "function"
    },
    {
      "inputs": [],
      "name": "owner",
      "outputs": [
        {
          "internalType": "address",
          "name": "",
          "type": "address"
        }
      ],
      "stateMutability": "view",
      "type": "function"
    },
    {
      "inputs": [],
      "name": "pendingOwner",
      "outputs": [
        {
          "internalType": "address",
          "name": "",
          "type": "address"
        }
      ],
      "stateMutability": "view",
      "type": "function"
    },
    {
      "inputs": [],
      "name": "renounceOwnership",
      "outputs": [],
      "stateMutability": "nonpayable",
      "type": "function"
    },
    {
      "inputs": [],
      "name": "stableCoin",
      "outputs": [
        {
          "internalType": "contract IERC20",
          "name": "",
          "type": "address"
        }
      ],
      "stateMutability": "view",
      "type": "function"
    },
    {
      "inputs": [
        {
          "internalType": "address",
          "name": "newOwner",
          "type": "address"
        }
      ],
      "name": "transferOwnership",
      "outputs": [],
      "stateMutability": "nonpayable",
      "type": "function"
    },
    {
      "inputs": [],
      "name": "walletOwner",
      "outputs": [
        {
          "internalType": "address",
          "name": "",
          "type": "address"
        }
      ],
      "stateMutability": "view",
      "type": "function"
    }
  ],
  "bytecode": "0x60806040523461026b576108fe8038038061001981610284565b928339810160408282031261026b5781516001600160401b03929083811161026b578101601f9383858301121561026b5781519281841161023c57602093601f199361006a88830186168701610284565b9682885286838301011161026b579085929160005b828110610270575050600090870183015201516001600160a01b0380821696909187900361026b57331561025257600180546001600160a01b031990811682556000805433818416811783559299939516907f8be0079c531659141344cd1fd0a4f28419497f9722a3daafe3b4186f6b6457e09080a382600255805193841161023c5760059586548481811c91168015610232575b8282101461021c578381116101d8575b5080928511600114610174575083945090839291600094610169575b50501b916000199060031b1c19161790555b600654161760065560405161065490816102aa8239f35b015192503880610140565b9294849081168760005284600020946000905b888383106101be57505050106101a5575b505050811b019055610152565b015160001960f88460031b161c19169055388080610198565b858701518855909601959485019487935090810190610187565b8760005281600020848088018a1c820192848910610213575b01891c019085905b828110610207575050610124565b600081550185906101f9565b925081926101f1565b634e487b7160e01b600052602260045260246000fd5b90607f1690610114565b634e487b7160e01b600052604160045260246000fd5b604051631e4fbdf760e01b815260006004820152602490fd5b600080fd5b81810185015189820186015287940161007f565b6040519190601f01601f191682016001600160401b0381118382101761023c5760405256fe60806040908082526004908136101561001757600080fd5b600092833560e01c9182631ae879e81461055d575081635e6f0419146103975781636d0501f61461036e578163715018a61461031b57816379ba5097146102ab5781638da5cb5b14610283578163992642e51461025a578163e2c760121461012e578163e30c397814610105575063f2fde38b1461009457600080fd5b3461010157602036600319011261010157356001600160a01b03818116918290036100fd576100c16105d2565b600180546001600160a01b031916831790558254167f38d16b8cac22d99fc7c124b9cd0de2d3fa1faef420bfe791d8c362d765e227008380a380f35b8280fd5b5080fd5b83903461010157816003193601126101015760015490516001600160a01b039091168152602090f35b905082346102575780600319360112610257578151908060055460018160011c9160018116801561024d575b602098898510821461023a575091839189959388958652908160001461021957506001146101db575b50506101959250959392950382610582565b82519382859384528251928382860152825b8481106101c557505050828201840152601f01601f19168101030190f35b81810183015188820188015287955082016101a7565b600586528486209492508591905b81831061020157508894505082010161019588610183565b855488840185015294850194879450918301916101e9565b91505061019594925060ff191682840152151560051b820101869288610183565b634e487b7160e01b875260229052602486fd5b92607f169261015a565b80fd5b83903461010157816003193601126101015760065490516001600160a01b039091168152602090f35b839034610101578160031936011261010157905490516001600160a01b039091168152602090f35b9050346100fd57826003193601126100fd57600154916001600160a01b039133838516036103045750506001600160a01b031991821660015582543392811683178455166000805160206105ff8339815191528380a380f35b60249250519063118cdaa760e01b82523390820152fd5b83346102575780600319360112610257576103346105d2565b600180546001600160a01b03199081169091558154908116825581906001600160a01b03166000805160206105ff8339815191528280a380f35b919050346100fd57826003193601126100fd575490516001600160a01b03909116815260209150f35b9050346100fd57806003193601126100fd578135906001600160401b039081831161055957366023840112156105595782840135916024936103d8846105bb565b906103e584519283610582565b848252602094868684019160051b8301019136831161052e578701905b828210610536575050508435918211610532573660238301121561053257818601359161042e836105bb565b9261043b85519485610582565b808452868685019160051b8301019136831161052e5787879101915b83831061051e5750505050600280541461050e57600280556104776105d2565b8051158015610505575b6104cc57519051036104965784600160025580f35b51636e38ef5d60e11b81529283015260139082015272496e636f6e73697374656e7420696e7075747360681b6044820152606490fd5b8251636e38ef5d60e11b815280870185905260138187015272496e76616c6964207573657220696e7075747360681b6044820152606490fd5b50815115610481565b8251633ee5aeb560e01b81528690fd5b8235815291810191879101610457565b8980fd5b8680fd5b81356001600160a01b0381168103610555578152908601908601610402565b8a80fd5b8480fd5b8490346101015781600319360112610101576003546001600160a01b03168152602090f35b601f909101601f19168101906001600160401b038211908210176105a557604052565b634e487b7160e01b600052604160045260246000fd5b6001600160401b0381116105a55760051b60200190565b6000546001600160a01b031633036105e657565b60405163118cdaa760e01b8152336004820152602490fdfe8be0079c531659141344cd1fd0a4f28419497f9722a3daafe3b4186f6b6457e0a264697066735822122046a6d2aea31ddc0f906fed316ca1bf580342948804587428fd74d10a5483dea364736f6c63430008180033",
  "linkReferences": {},
  "deployedLinkReferences": {}
}