{
  "_format": "hh-sol-artifact-1",
  "contractName": "Dealer",
  "sourceName": "src/L2Contracts/Dealer.sol",
  "abi": [
    {
      "inputs": [
        {
          "internalType": "address",
          "name": "target",
          "type": "address"
        }
      ],
      "name": "AddressEmptyCode",
      "type": "error"
    },
    {
      "inputs": [
        {
          "internalType": "string",
          "name": "reason",
          "type": "string"
        }
      ],
      "name": "AuthenticationFailed",
      "type": "error"
    },
    {
      "inputs": [
        {
          "internalType": "address",
          "name": "implementation",
          "type": "address"
        }
      ],
      "name": "ERC1967InvalidImplementation",
      "type": "error"
    },
    {
      "inputs": [],
      "name": "ERC1967NonPayable",
      "type": "error"
    },
    {
      "inputs": [],
      "name": "FailedCall",
      "type": "error"
    },
    {
      "inputs": [
        {
          "internalType": "string",
          "name": "reason",
          "type": "string"
        }
      ],
      "name": "InvalidChainId",
      "type": "error"
    },
    {
      "inputs": [],
      "name": "InvalidImplementation",
      "type": "error"
    },
    {
      "inputs": [],
      "name": "InvalidInitialization",
      "type": "error"
    },
    {
      "inputs": [
        {
          "internalType": "string",
          "name": "reason",
          "type": "string"
        }
      ],
      "name": "InvalidInteraction",
      "type": "error"
    },
    {
      "inputs": [],
      "name": "NotInitializing",
      "type": "error"
    },
    {
      "inputs": [
        {
          "internalType": "address",
          "name": "owner",
          "type": "address"
        }
      ],
      "name": "OwnableInvalidOwner",
      "type": "error"
    },
    {
      "inputs": [
        {
          "internalType": "address",
          "name": "account",
          "type": "address"
        }
      ],
      "name": "OwnableUnauthorizedAccount",
      "type": "error"
    },
    {
      "inputs": [],
      "name": "ReentrancyGuardReentrantCall",
      "type": "error"
    },
    {
      "inputs": [
        {
          "internalType": "address",
          "name": "token",
          "type": "address"
        }
      ],
      "name": "SafeERC20FailedOperation",
      "type": "error"
    },
    {
      "inputs": [],
      "name": "UUPSUnauthorizedCallContext",
      "type": "error"
    },
    {
      "inputs": [
        {
          "internalType": "bytes32",
          "name": "slot",
          "type": "bytes32"
        }
      ],
      "name": "UUPSUnsupportedProxiableUUID",
      "type": "error"
    },
    {
      "anonymous": false,
      "inputs": [
        {
          "indexed": false,
          "internalType": "uint256",
          "name": "_amount",
          "type": "uint256"
        }
      ],
      "name": "FundsTransferredToMediator",
      "type": "event"
    },
    {
      "anonymous": false,
      "inputs": [
        {
          "indexed": false,
          "internalType": "uint64",
          "name": "version",
          "type": "uint64"
        }
      ],
      "name": "Initialized",
      "type": "event"
    },
    {
      "anonymous": false,
      "inputs": [
        {
          "indexed": true,
          "internalType": "string",
          "name": "_backendDigest",
          "type": "string"
        },
        {
          "indexed": false,
          "internalType": "bytes32",
          "name": "_jobDigest",
          "type": "bytes32"
        },
        {
          "indexed": true,
          "internalType": "uint256",
          "name": "_chainId",
          "type": "uint256"
        }
      ],
      "name": "L3Interaction",
      "type": "event"
    },
    {
      "anonymous": false,
      "inputs": [
        {
          "indexed": true,
          "internalType": "address",
          "name": "previousOwner",
          "type": "address"
        },
        {
          "indexed": true,
          "internalType": "address",
          "name": "newOwner",
          "type": "address"
        }
      ],
      "name": "OwnershipTransferStarted",
      "type": "event"
    },
    {
      "anonymous": false,
      "inputs": [
        {
          "indexed": true,
          "internalType": "address",
          "name": "previousOwner",
          "type": "address"
        },
        {
          "indexed": true,
          "internalType": "address",
          "name": "newOwner",
          "type": "address"
        }
      ],
      "name": "OwnershipTransferred",
      "type": "event"
    },
    {
      "anonymous": false,
      "inputs": [
        {
          "indexed": true,
          "internalType": "address",
          "name": "implementation",
          "type": "address"
        }
      ],
      "name": "Upgraded",
      "type": "event"
    },
    {
      "inputs": [],
      "name": "UPGRADE_INTERFACE_VERSION",
      "outputs": [
        {
          "internalType": "string",
          "name": "",
          "type": "string"
        }
      ],
      "stateMutability": "view",
      "type": "function"
    },
    {
      "inputs": [],
      "name": "acceptOwnership",
      "outputs": [],
      "stateMutability": "nonpayable",
      "type": "function"
    },
    {
      "inputs": [
        {
          "internalType": "string",
          "name": "_backendDigest",
          "type": "string"
        },
        {
          "internalType": "uint256",
          "name": "_privateChainId",
          "type": "uint256"
        },
        {
          "internalType": "uint256",
          "name": "_totalAmount",
          "type": "uint256"
        }
      ],
      "name": "depositAndExec",
      "outputs": [],
      "stateMutability": "nonpayable",
      "type": "function"
    },
    {
      "inputs": [
        {
          "internalType": "address",
          "name": "_creator",
          "type": "address"
        }
      ],
      "name": "getJobDetails",
      "outputs": [
        {
          "components": [
            {
              "internalType": "bool",
              "name": "status",
              "type": "bool"
            },
            {
              "internalType": "bytes32",
              "name": "digest",
              "type": "bytes32"
            },
            {
              "internalType": "uint256",
              "name": "value",
              "type": "uint256"
            }
          ],
          "internalType": "struct IDealer.Job",
          "name": "",
          "type": "tuple"
        }
      ],
      "stateMutability": "view",
      "type": "function"
    },
    {
      "inputs": [
        {
          "internalType": "address",
          "name": "_mediator",
          "type": "address"
        },
        {
          "internalType": "address",
          "name": "_stableCoin",
          "type": "address"
        }
      ],
      "name": "initialize",
      "outputs": [],
      "stateMutability": "nonpayable",
      "type": "function"
    },
    {
      "inputs": [],
      "name": "mediator",
      "outputs": [
        {
          "internalType": "address",
          "name": "",
          "type": "address"
        }
      ],
      "stateMutability": "view",
      "type": "function"
    },
    {
      "inputs": [],
      "name": "owner",
      "outputs": [
        {
          "internalType": "address",
          "name": "",
          "type": "address"
        }
      ],
      "stateMutability": "view",
      "type": "function"
    },
    {
      "inputs": [],
      "name": "pendingOwner",
      "outputs": [
        {
          "internalType": "address",
          "name": "",
          "type": "address"
        }
      ],
      "stateMutability": "view",
      "type": "function"
    },
    {
      "inputs": [],
      "name": "proxiableUUID",
      "outputs": [
        {
          "internalType": "bytes32",
          "name": "",
          "type": "bytes32"
        }
      ],
      "stateMutability": "view",
      "type": "function"
    },
    {
      "inputs": [],
      "name": "renounceOwnership",
      "outputs": [],
      "stateMutability": "nonpayable",
      "type": "function"
    },
    {
      "inputs": [],
      "name": "stableCoin",
      "outputs": [
        {
          "internalType": "contract IERC20",
          "name": "",
          "type": "address"
        }
      ],
      "stateMutability": "view",
      "type": "function"
    },
    {
      "inputs": [
        {
          "internalType": "address",
          "name": "newOwner",
          "type": "address"
        }
      ],
      "name": "transferOwnership",
      "outputs": [],
      "stateMutability": "nonpayable",
      "type": "function"
    },
    {
      "inputs": [
        {
          "internalType": "address",
          "name": "_jobCreator",
          "type": "address"
        }
      ],
      "name": "transferToWhisperRouter",
      "outputs": [],
      "stateMutability": "nonpayable",
      "type": "function"
    },
    {
      "inputs": [
        {
          "internalType": "address",
          "name": "newImplementation",
          "type": "address"
        },
        {
          "internalType": "bytes",
          "name": "data",
          "type": "bytes"
        }
      ],
      "name": "upgradeToAndCall",
      "outputs": [],
      "stateMutability": "payable",
      "type": "function"
    }
  ],
  "bytecode": "0x60a0806040523461002a5730608052610f85908161003082396080518181816107de0152610c9e0152f35b600080fdfe60806040908082526004918236101561001757600080fd5b600092833560e01c928363485cc95514610a38575082634f1ef2861461083057826352d1902d146107c95782636d0501f6146107a1578263715018a61461073257826377924d1f146105f657826379ba50971461059f5782638da5cb5b14610569578263924b5a79146102d8578263992642e5146102af578263ad3cb1cc1461020c57508163b18008d214610185578163e30c39781461014b575063f2fde38b146100c157600080fd5b34610148576020366003190112610148576100da610be5565b6100e2610d00565b600080516020610f3083398151915280546001600160a01b0319166001600160a01b03928316908117909155600080516020610e90833981519152549091167f38d16b8cac22d99fc7c124b9cd0de2d3fa1faef420bfe791d8c362d765e227008380a380f35b80fd5b905034610181578160031936011261018157600080516020610f308339815191525490516001600160a01b039091168152602090f35b5080fd5b90503461018157602036600319011261018157806060926101a4610be5565b818380516101b181610c00565b828152826020820152015260018060a01b031681526001602052209080516101d881610c00565b60ff835416151592838252826002600183015492602085019384520154920191825282519384525160208401525190820152f35b909150346102ab57826003193601126102ab57815190818301906001600160401b038211838310176102985750825260058152602090640352e302e360dc1b6020820152825193849260208452825192836020860152825b84811061028257505050828201840152601f01601f19168101030190f35b8181018301518882018801528795508201610264565b634e487b7160e01b855260419052602484fd5b8280fd5b83823461018157816003193601126101815760035490516001600160a01b039091168152602090f35b908334610148576060366003190112610148576001600160401b0383358181116102ab57366023820112156102ab57808501359382851161056557602494858301928682369201011161056157853592604435600298600080516020610ef0833981519152968a885414610552578a8855861561051d5782156104e35733895260209960018b5260ff878b205416156104a5578b8a81878e9f9b809d9e9f9b9c60a08c8f8f908d6103b39554918051978589968688019b8c378601948501528301524260608301526080820152036080810184520182610c31565b519020998b51926103c384610c00565b8084528c828501918d83526001828701948c865233835252209351151560ff80198654169116178455516001840155519101556104008154610c6f565b905560035488516323b872dd60e01b8e82015233838201523060448201526064808201969096529485526001600160a01b03169260a08501928311858410176104945750506001999a94927f78352e0cd5a6d886c0f17f330e53c3af773e83642f27370af2442e49e1506f0296949261047a928952610dc4565b818651928392833781018a81520390209351908152a35580f35b634e487b7160e01b8c52604190528afd5b8260196064928d8a5193636e38ef5d60e11b855284015282015278141c995d9a5bdd5cc8129bd888139bdd08199a5b9a5cda1959603a1b6044820152fd5b8551636e38ef5d60e11b81526020818401526014818c015273125b9d985b1a5908125b9c1d5d08105b5bdd5b9d60621b6044820152606490fd5b85516305c57e8360e01b8152602081840152600f818c01526e125b9d985b1a590810da185a5b9259608a1b6044820152606490fd5b508451633ee5aeb560e01b8152fd5b8480fd5b8380fd5b838234610181578160031936011261018157600080516020610e908339815191525490516001600160a01b039091168152602090f35b9150346102ab57826003193601126102ab57600080516020610f3083398151915254336001600160a01b03909116036105df57826105dc33610d39565b80f35b60249250519063118cdaa760e01b82523390820152fd5b83823461018157602090816003193601126102ab57610613610be5565b61061b610d00565b6001600160a01b0390811684526001808452828520835192919061063e84610c00565b84600260ff835416151592838752848101548988015201549401938452146106ee5760035485548351855163a9059cbb60e01b88820152918416602483015260448083019190915281529116608082016001600160401b038111838210176106db577f7c834a8a637af7c8ad16699142b1a7b82ff8ac97de948638b65a6c9458228e90969750906106d192918552610dc4565b519051908152a180f35b634e487b7160e01b875260418852602487fd5b8251636e38ef5d60e11b8152808701859052601e60248201527f4e6f206c617465737420696e746572616374696f6e20726571756972656400006044820152606490fd5b833461014857806003193601126101485761074b610d00565b600080516020610f3083398151915280546001600160a01b0319908116909155600080516020610e908339815191528054918216905581906001600160a01b0316600080516020610ed08339815191528280a380f35b838234610181578160031936011261018157905490516001600160a01b039091168152602090f35b908334610148578060031936011261014857507f00000000000000000000000000000000000000000000000000000000000000006001600160a01b031630036108235760209051600080516020610eb08339815191528152f35b5163703e46dd60e11b8152fd5b9150806003193601126102ab57610845610be5565b60249390919084356001600160401b0381116101815736602382011215610181578085013561087381610c54565b9461088085519687610c31565b81865260209182870193368a8383010111610a34578186928b8693018737880101526108aa610c94565b6108b2610d00565b803b15610a245784516352d1902d60e01b81526001600160a01b038216969083818a818b5afa8691816109f1575b506108fc575050505050505191634c9c8ce360e01b8352820152fd5b9088888894938c600080516020610eb0833981519152918281036109dc5750853b156109c8575080546001600160a01b031916821790558451889392917fbc7cd75a20ee27fd9adebab32041f755214dbc6bffa90cc0225b39da2e5c2d3b8580a28251156109aa57505061099c9582915190845af4913d156109a0573d61098e61098582610c54565b92519283610c31565b81528581943d92013e610e2c565b5080f35b5060609250610e2c565b9550955050505050346109bc57505080f35b63b398979f60e01b8152fd5b8651634c9c8ce360e01b8152808501849052fd5b8751632a87526960e21b815280860191909152fd5b9091508481813d8311610a1d575b610a098183610c31565b81010312610a19575190386108e0565b8680fd5b503d6109ff565b845163340aafcd60e11b81528790fd5b8580fd5b84935034610565578260031936011261056557610a53610be5565b6024356001600160a01b038181169291839003610a1957600080516020610f1083398151915294855460ff81891c16159560018060401b03821680159081610bdd575b6001149081610bd3575b159081610bca575b50610bbc57506001600160401b03198116600117875585610ba1575b50610acd610c94565b610ad5610d95565b610add610d95565b610ae5610d95565b610aed610d95565b3315610b8a5750610afd33610d39565b610b05610d95565b610b0d610d95565b6001600080516020610ef08339815191525560018060a01b03199116818754161786556003541617600355610b43600254610c6f565b600255610b4e578280f35b805460ff60401b1916905551600181527fc7f505b2f371ae2175ee4913f4499e1f2633a7b5936321eed1cdaeb6115181d290602090a181808280f35b8651631e4fbdf760e01b8152908101889052602490fd5b6001600160481b0319166001600160401b0117865588610ac4565b63f92ee8a960e01b81529050fd5b9050158b610aa8565b303b159150610aa0565b889150610a96565b600435906001600160a01b0382168203610bfb57565b600080fd5b606081019081106001600160401b03821117610c1b57604052565b634e487b7160e01b600052604160045260246000fd5b601f909101601f19168101906001600160401b03821190821017610c1b57604052565b6001600160401b038111610c1b57601f01601f191660200190565b6000198114610c7e5760010190565b634e487b7160e01b600052601160045260246000fd5b6001600160a01b037f00000000000000000000000000000000000000000000000000000000000000008116308114918215610ce4575b5050610cd257565b60405163703e46dd60e11b8152600490fd5b600080516020610eb08339815191525416141590503880610cca565b600080516020610e90833981519152546001600160a01b03163303610d2157565b60405163118cdaa760e01b8152336004820152602490fd5b600080516020610f3083398151915280546001600160a01b0319908116909155600080516020610e9083398151915280549182166001600160a01b039384169081179091559116600080516020610ed0833981519152600080a3565b60ff600080516020610f108339815191525460401c1615610db257565b604051631afcd79f60e31b8152600490fd5b906000602091828151910182855af115610e20576000513d610e1757506001600160a01b0381163b155b610df55750565b604051635274afe760e01b81526001600160a01b039091166004820152602490fd5b60011415610dee565b6040513d6000823e3d90fd5b90610e535750805115610e4157602081519101fd5b60405163d6bda27560e01b8152600490fd5b81511580610e86575b610e64575090565b604051639996b31560e01b81526001600160a01b039091166004820152602490fd5b50803b15610e5c56fe9016d09d72d40fdae2fd8ceac6b6234c7706214fd39c1cd1e609a0528c199300360894a13ba1a3210667c828492db98dca3e2076cc3735a920a3ca505d382bbc8be0079c531659141344cd1fd0a4f28419497f9722a3daafe3b4186f6b6457e09b779b17422d0df92223018b32b4d1fa46e071723d6817e2486d003becc55f00f0c57e16840df040f15088dc2f81fe391c3923bec73e23a9662efc9c229c6a00237e158222e3e6968b72b9db0d8043aacf074ad9f650f0d1606b4d82ee432c00a264697066735822122021ddc322a4d91111947a35f677e33caef009ea7848be798128d45930acfbee9364736f6c63430008180033",
  "linkReferences": {},
  "deployedLinkReferences": {}
}