{
  "_format": "hh-sol-artifact-1",
  "contractName": "Dealer",
  "sourceName": "src/L2Contracts/Dealer.sol",
  "abi": [
    {
      "inputs": [
        {
          "internalType": "address",
          "name": "target",
          "type": "address"
        }
      ],
      "name": "AddressEmptyCode",
      "type": "error"
    },
    {
      "inputs": [
        {
          "internalType": "string",
          "name": "reason",
          "type": "string"
        }
      ],
      "name": "AuthenticationFailed",
      "type": "error"
    },
    {
      "inputs": [
        {
          "internalType": "address",
          "name": "implementation",
          "type": "address"
        }
      ],
      "name": "ERC1967InvalidImplementation",
      "type": "error"
    },
    {
      "inputs": [],
      "name": "ERC1967NonPayable",
      "type": "error"
    },
    {
      "inputs": [],
      "name": "FailedCall",
      "type": "error"
    },
    {
      "inputs": [
        {
          "internalType": "string",
          "name": "reason",
          "type": "string"
        }
      ],
      "name": "InvalidChainId",
      "type": "error"
    },
    {
      "inputs": [],
      "name": "InvalidImplementation",
      "type": "error"
    },
    {
      "inputs": [],
      "name": "InvalidInitialization",
      "type": "error"
    },
    {
      "inputs": [
        {
          "internalType": "string",
          "name": "reason",
          "type": "string"
        }
      ],
      "name": "InvalidInteraction",
      "type": "error"
    },
    {
      "inputs": [],
      "name": "NotInitializing",
      "type": "error"
    },
    {
      "inputs": [
        {
          "internalType": "address",
          "name": "owner",
          "type": "address"
        }
      ],
      "name": "OwnableInvalidOwner",
      "type": "error"
    },
    {
      "inputs": [
        {
          "internalType": "address",
          "name": "account",
          "type": "address"
        }
      ],
      "name": "OwnableUnauthorizedAccount",
      "type": "error"
    },
    {
      "inputs": [],
      "name": "ReentrancyGuardReentrantCall",
      "type": "error"
    },
    {
      "inputs": [
        {
          "internalType": "address",
          "name": "token",
          "type": "address"
        }
      ],
      "name": "SafeERC20FailedOperation",
      "type": "error"
    },
    {
      "inputs": [],
      "name": "UUPSUnauthorizedCallContext",
      "type": "error"
    },
    {
      "inputs": [
        {
          "internalType": "bytes32",
          "name": "slot",
          "type": "bytes32"
        }
      ],
      "name": "UUPSUnsupportedProxiableUUID",
      "type": "error"
    },
    {
      "anonymous": false,
      "inputs": [
        {
          "indexed": false,
          "internalType": "uint256",
          "name": "_amount",
          "type": "uint256"
        }
      ],
      "name": "FundsTransferredToMediator",
      "type": "event"
    },
    {
      "anonymous": false,
      "inputs": [
        {
          "indexed": false,
          "internalType": "uint64",
          "name": "version",
          "type": "uint64"
        }
      ],
      "name": "Initialized",
      "type": "event"
    },
    {
      "anonymous": false,
      "inputs": [
        {
          "indexed": true,
          "internalType": "string",
          "name": "_backendDigest",
          "type": "string"
        },
        {
          "indexed": false,
          "internalType": "bytes32",
          "name": "_jobDigest",
          "type": "bytes32"
        },
        {
          "indexed": true,
          "internalType": "uint256",
          "name": "_chainId",
          "type": "uint256"
        }
      ],
      "name": "L3Interaction",
      "type": "event"
    },
    {
      "anonymous": false,
      "inputs": [
        {
          "indexed": true,
          "internalType": "address",
          "name": "previousOwner",
          "type": "address"
        },
        {
          "indexed": true,
          "internalType": "address",
          "name": "newOwner",
          "type": "address"
        }
      ],
      "name": "OwnershipTransferStarted",
      "type": "event"
    },
    {
      "anonymous": false,
      "inputs": [
        {
          "indexed": true,
          "internalType": "address",
          "name": "previousOwner",
          "type": "address"
        },
        {
          "indexed": true,
          "internalType": "address",
          "name": "newOwner",
          "type": "address"
        }
      ],
      "name": "OwnershipTransferred",
      "type": "event"
    },
    {
      "anonymous": false,
      "inputs": [
        {
          "indexed": true,
          "internalType": "address",
          "name": "implementation",
          "type": "address"
        }
      ],
      "name": "Upgraded",
      "type": "event"
    },
    {
      "inputs": [],
      "name": "UPGRADE_INTERFACE_VERSION",
      "outputs": [
        {
          "internalType": "string",
          "name": "",
          "type": "string"
        }
      ],
      "stateMutability": "view",
      "type": "function"
    },
    {
      "inputs": [],
      "name": "acceptOwnership",
      "outputs": [],
      "stateMutability": "nonpayable",
      "type": "function"
    },
    {
      "inputs": [
        {
          "internalType": "string",
          "name": "_backendDigest",
          "type": "string"
        },
        {
          "internalType": "uint256",
          "name": "_privateChainId",
          "type": "uint256"
        },
        {
          "internalType": "uint256",
          "name": "_totalAmount",
          "type": "uint256"
        }
      ],
      "name": "depositAndExec",
      "outputs": [],
      "stateMutability": "nonpayable",
      "type": "function"
    },
    {
      "inputs": [
        {
          "internalType": "address",
          "name": "_creator",
          "type": "address"
        }
      ],
      "name": "getJobDetails",
      "outputs": [
        {
          "components": [
            {
              "internalType": "bool",
              "name": "status",
              "type": "bool"
            },
            {
              "internalType": "bytes32",
              "name": "digest",
              "type": "bytes32"
            },
            {
              "internalType": "uint256",
              "name": "value",
              "type": "uint256"
            }
          ],
          "internalType": "struct IDealer.Job",
          "name": "",
          "type": "tuple"
        }
      ],
      "stateMutability": "view",
      "type": "function"
    },
    {
      "inputs": [
        {
          "internalType": "address",
          "name": "_mediator",
          "type": "address"
        },
        {
          "internalType": "address",
          "name": "_stableCoin",
          "type": "address"
        }
      ],
      "name": "initialize",
      "outputs": [],
      "stateMutability": "nonpayable",
      "type": "function"
    },
    {
      "inputs": [],
      "name": "mediator",
      "outputs": [
        {
          "internalType": "address",
          "name": "",
          "type": "address"
        }
      ],
      "stateMutability": "view",
      "type": "function"
    },
    {
      "inputs": [],
      "name": "owner",
      "outputs": [
        {
          "internalType": "address",
          "name": "",
          "type": "address"
        }
      ],
      "stateMutability": "view",
      "type": "function"
    },
    {
      "inputs": [],
      "name": "pendingOwner",
      "outputs": [
        {
          "internalType": "address",
          "name": "",
          "type": "address"
        }
      ],
      "stateMutability": "view",
      "type": "function"
    },
    {
      "inputs": [],
      "name": "proxiableUUID",
      "outputs": [
        {
          "internalType": "bytes32",
          "name": "",
          "type": "bytes32"
        }
      ],
      "stateMutability": "view",
      "type": "function"
    },
    {
      "inputs": [],
      "name": "renounceOwnership",
      "outputs": [],
      "stateMutability": "nonpayable",
      "type": "function"
    },
    {
      "inputs": [],
      "name": "stableCoin",
      "outputs": [
        {
          "internalType": "contract IERC20",
          "name": "",
          "type": "address"
        }
      ],
      "stateMutability": "view",
      "type": "function"
    },
    {
      "inputs": [
        {
          "internalType": "address",
          "name": "newOwner",
          "type": "address"
        }
      ],
      "name": "transferOwnership",
      "outputs": [],
      "stateMutability": "nonpayable",
      "type": "function"
    },
    {
      "inputs": [
        {
          "internalType": "address",
          "name": "_jobCreator",
          "type": "address"
        }
      ],
      "name": "transferToWhisperRouter",
      "outputs": [],
      "stateMutability": "nonpayable",
      "type": "function"
    },
    {
      "inputs": [
        {
          "internalType": "address",
          "name": "newImplementation",
          "type": "address"
        },
        {
          "internalType": "bytes",
          "name": "data",
          "type": "bytes"
        }
      ],
      "name": "upgradeToAndCall",
      "outputs": [],
      "stateMutability": "payable",
      "type": "function"
    }
  ],
  "bytecode": "0x60a0806040523461002a5730608052610f21908161003082396080518181816107410152610c010152f35b600080fdfe60806040908082526004918236101561001757600080fd5b600092833560e01c928363485cc9551461099b575082634f1ef2861461079357826352d1902d1461072c5782636d0501f614610704578263715018a61461069557826377924d1f146105a157826379ba50971461054a5782638da5cb5b14610514578263924b5a79146102d8578263992642e5146102af578263ad3cb1cc1461020c57508163b18008d214610185578163e30c39781461014b575063f2fde38b146100c157600080fd5b34610148576020366003190112610148576100da610b48565b6100e2610c63565b600080516020610ecc83398151915280546001600160a01b0319166001600160a01b03928316908117909155600080516020610e2c833981519152549091167f38d16b8cac22d99fc7c124b9cd0de2d3fa1faef420bfe791d8c362d765e227008380a380f35b80fd5b905034610181578160031936011261018157600080516020610ecc8339815191525490516001600160a01b039091168152602090f35b5080fd5b90503461018157602036600319011261018157806060926101a4610b48565b818380516101b181610b63565b828152826020820152015260018060a01b031681526001602052209080516101d881610b63565b60ff835416151592838252826002600183015492602085019384520154920191825282519384525160208401525190820152f35b909150346102ab57826003193601126102ab57815190818301906001600160401b038211838310176102985750825260058152602090640352e302e360dc1b6020820152825193849260208452825192836020860152825b84811061028257505050828201840152601f01601f19168101030190f35b8181018301518882018801528795508201610264565b634e487b7160e01b855260419052602484fd5b8280fd5b83823461018157816003193601126101815760035490516001600160a01b039091168152602090f35b839034610181576060366003190112610181576001600160401b0381358181116105105736602382011215610510578083013591821161051057602490818101908284369201011161050c5781359260443591600292600080516020610e8c83398151915296848854146104fe5784885586156104c957811561048f573389526020956001875260ff8b8b20541615610450575050918391610436848888966103d560a060019e9f809c7f78352e0cd5a6d886c0f17f330e53c3af773e83642f27370af2442e49e1506f029c548251958693838501988d8d8b378d8601948501528301524260608301526080820152036080810184520182610b94565b519020948c818a51916103e783610b63565b8083528983018981528c8085019287845233815260018d52209351151560ff80198654169116178455518f840155519101556104238154610bd2565b90558a8060a01b03600354163090610cf8565b818651928392833781018a81520390209351908152a35580f35b8a51636e38ef5d60e11b815291820187905260199082015278141c995d9a5bdd5cc8129bd888139bdd08199a5b9a5cda1959603a1b6044820152606490fd5b60649060148760208d5193636e38ef5d60e11b855284015282015273125b9d985b1a5908125b9c1d5d08105b5bdd5b9d60621b6044820152fd5b606490600f8760208d51936305c57e8360e01b85528401528201526e125b9d985b1a590810da185a5b9259608a1b6044820152fd5b8951633ee5aeb560e01b8152fd5b8480fd5b8380fd5b838234610181578160031936011261018157600080516020610e2c8339815191525490516001600160a01b039091168152602090f35b9150346102ab57826003193601126102ab57600080516020610ecc83398151915254336001600160a01b039091160361058a578261058733610c9c565b80f35b60249250519063118cdaa760e01b82523390820152fd5b839034610181576020366003190112610181576105bc610b48565b6105c4610c63565b6001600160a01b0390811683526001602081905284842085519391906105e985610b63565b86600260ff83541615159283885284810154602089015201549501948552146106515750837f7c834a8a637af7c8ad16699142b1a7b82ff8ac97de948638b65a6c9458228e9092610647836020946003541690875416835191610cf8565b519051908152a180f35b6064906020865191636e38ef5d60e11b8352820152601e60248201527f4e6f206c617465737420696e746572616374696f6e20726571756972656400006044820152fd5b83346101485780600319360112610148576106ae610c63565b600080516020610ecc83398151915280546001600160a01b0319908116909155600080516020610e2c8339815191528054918216905581906001600160a01b0316600080516020610e6c8339815191528280a380f35b838234610181578160031936011261018157905490516001600160a01b039091168152602090f35b908334610148578060031936011261014857507f00000000000000000000000000000000000000000000000000000000000000006001600160a01b031630036107865760209051600080516020610e4c8339815191528152f35b5163703e46dd60e11b8152fd5b9150806003193601126102ab576107a8610b48565b60249390919084356001600160401b038111610181573660238201121561018157808501356107d681610bb7565b946107e385519687610b94565b81865260209182870193368a8383010111610997578186928b86930187378801015261080d610bf7565b610815610c63565b803b156109875784516352d1902d60e01b81526001600160a01b038216969083818a818b5afa869181610954575b5061085f575050505050505191634c9c8ce360e01b8352820152fd5b9088888894938c600080516020610e4c8339815191529182810361093f5750853b1561092b575080546001600160a01b031916821790558451889392917fbc7cd75a20ee27fd9adebab32041f755214dbc6bffa90cc0225b39da2e5c2d3b8580a282511561090d5750506108ff9582915190845af4913d15610903573d6108f16108e882610bb7565b92519283610b94565b81528581943d92013e610dc8565b5080f35b5060609250610dc8565b95509550505050503461091f57505080f35b63b398979f60e01b8152fd5b8651634c9c8ce360e01b8152808501849052fd5b8751632a87526960e21b815280860191909152fd5b9091508481813d8311610980575b61096c8183610b94565b8101031261097c57519038610843565b8680fd5b503d610962565b845163340aafcd60e11b81528790fd5b8580fd5b849350346105105782600319360112610510576109b6610b48565b6024356001600160a01b03818116929183900361097c57600080516020610eac83398151915294855460ff81891c16159560018060401b03821680159081610b40575b6001149081610b36575b159081610b2d575b50610b1f57506001600160401b03198116600117875585610b04575b50610a30610bf7565b610a38610d99565b610a40610d99565b610a48610d99565b610a50610d99565b3315610aed5750610a6033610c9c565b610a68610d99565b610a70610d99565b6001600080516020610e8c8339815191525560018060a01b03199116818754161786556003541617600355610aa6600254610bd2565b600255610ab1578280f35b805460ff60401b1916905551600181527fc7f505b2f371ae2175ee4913f4499e1f2633a7b5936321eed1cdaeb6115181d290602090a181808280f35b8651631e4fbdf760e01b8152908101889052602490fd5b6001600160481b0319166001600160401b0117865588610a27565b63f92ee8a960e01b81529050fd5b9050158b610a0b565b303b159150610a03565b8891506109f9565b600435906001600160a01b0382168203610b5e57565b600080fd5b606081019081106001600160401b03821117610b7e57604052565b634e487b7160e01b600052604160045260246000fd5b601f909101601f19168101906001600160401b03821190821017610b7e57604052565b6001600160401b038111610b7e57601f01601f191660200190565b6000198114610be15760010190565b634e487b7160e01b600052601160045260246000fd5b6001600160a01b037f00000000000000000000000000000000000000000000000000000000000000008116308114918215610c47575b5050610c3557565b60405163703e46dd60e11b8152600490fd5b600080516020610e4c8339815191525416141590503880610c2d565b600080516020610e2c833981519152546001600160a01b03163303610c8457565b60405163118cdaa760e01b8152336004820152602490fd5b600080516020610ecc83398151915280546001600160a01b0319908116909155600080516020610e2c83398151915280549182166001600160a01b039384169081179091559116600080516020610e6c833981519152600080a3565b60405163a9059cbb60e01b602082019081526001600160a01b039384166024830152604480830195909552938152909260808201906001600160401b03821183831017610b7e57602092600092604052519082865af115610d8d576000513d610d8457508082163b155b610d6a575050565b604051635274afe760e01b81529116600482015260249150fd5b60011415610d62565b6040513d6000823e3d90fd5b60ff600080516020610eac8339815191525460401c1615610db657565b604051631afcd79f60e31b8152600490fd5b90610def5750805115610ddd57602081519101fd5b60405163d6bda27560e01b8152600490fd5b81511580610e22575b610e00575090565b604051639996b31560e01b81526001600160a01b039091166004820152602490fd5b50803b15610df856fe9016d09d72d40fdae2fd8ceac6b6234c7706214fd39c1cd1e609a0528c199300360894a13ba1a3210667c828492db98dca3e2076cc3735a920a3ca505d382bbc8be0079c531659141344cd1fd0a4f28419497f9722a3daafe3b4186f6b6457e09b779b17422d0df92223018b32b4d1fa46e071723d6817e2486d003becc55f00f0c57e16840df040f15088dc2f81fe391c3923bec73e23a9662efc9c229c6a00237e158222e3e6968b72b9db0d8043aacf074ad9f650f0d1606b4d82ee432c00a2646970667358221220fdcdfc7f5fed2318885acc92a017835b54f544cde5a74539c018b62555ab583b64736f6c63430008180033",
  "linkReferences": {},
  "deployedLinkReferences": {}
}