{"src/L2Contracts/Dealer.sol":{"Dealer":{"abi":[{"inputs":[{"internalType":"address","name":"target","type":"address"}],"name":"AddressEmptyCode","type":"error"},{"inputs":[{"internalType":"string","name":"reason","type":"string"}],"name":"AuthenticationFailed","type":"error"},{"inputs":[{"internalType":"address","name":"implementation","type":"address"}],"name":"ERC1967InvalidImplementation","type":"error"},{"inputs":[],"name":"ERC1967NonPayable","type":"error"},{"inputs":[],"name":"FailedCall","type":"error"},{"inputs":[{"internalType":"string","name":"reason","type":"string"}],"name":"InvalidChainId","type":"error"},{"inputs":[],"name":"InvalidImplementation","type":"error"},{"inputs":[],"name":"InvalidInitialization","type":"error"},{"inputs":[{"internalType":"string","name":"reason","type":"string"}],"name":"InvalidInteraction","type":"error"},{"inputs":[],"name":"NotInitializing","type":"error"},{"inputs":[{"internalType":"address","name":"owner","type":"address"}],"name":"OwnableInvalidOwner","type":"error"},{"inputs":[{"internalType":"address","name":"account","type":"address"}],"name":"OwnableUnauthorizedAccount","type":"error"},{"inputs":[],"name":"ReentrancyGuardReentrantCall","type":"error"},{"inputs":[{"internalType":"address","name":"token","type":"address"}],"name":"SafeERC20FailedOperation","type":"error"},{"inputs":[],"name":"UUPSUnauthorizedCallContext","type":"error"},{"inputs":[{"internalType":"bytes32","name":"slot","type":"bytes32"}],"name":"UUPSUnsupportedProxiableUUID","type":"error"},{"anonymous":false,"inputs":[{"indexed":false,"internalType":"uint256","name":"_amount","type":"uint256"}],"name":"FundsTransferredToMediator","type":"event"},{"anonymous":false,"inputs":[{"indexed":false,"internalType":"uint64","name":"version","type":"uint64"}],"name":"Initialized","type":"event"},{"anonymous":false,"inputs":[{"indexed":true,"internalType":"string","name":"_backendDigest","type":"string"},{"indexed":false,"internalType":"bytes32","name":"_jobDigest","type":"bytes32"},{"indexed":true,"internalType":"uint256","name":"_chainId","type":"uint256"}],"name":"L3Interaction","type":"event"},{"anonymous":false,"inputs":[{"indexed":true,"internalType":"address","name":"previousOwner","type":"address"},{"indexed":true,"internalType":"address","name":"newOwner","type":"address"}],"name":"OwnershipTransferStarted","type":"event"},{"anonymous":false,"inputs":[{"indexed":true,"internalType":"address","name":"previousOwner","type":"address"},{"indexed":true,"internalType":"address","name":"newOwner","type":"address"}],"name":"OwnershipTransferred","type":"event"},{"anonymous":false,"inputs":[{"indexed":true,"internalType":"address","name":"implementation","type":"address"}],"name":"Upgraded","type":"event"},{"inputs":[],"name":"UPGRADE_INTERFACE_VERSION","outputs":[{"internalType":"string","name":"","type":"string"}],"stateMutability":"view","type":"function"},{"inputs":[],"name":"acceptOwnership","outputs":[],"stateMutability":"nonpayable","type":"function"},{"inputs":[{"internalType":"string","name":"_backendDigest","type":"string"},{"internalType":"uint256","name":"_privateChainId","type":"uint256"},{"internalType":"uint256","name":"_totalAmount","type":"uint256"}],"name":"depositAndExec","outputs":[],"stateMutability":"nonpayable","type":"function"},{"inputs":[{"internalType":"address","name":"_creator","type":"address"}],"name":"getJobDetails","outputs":[{"components":[{"internalType":"bool","name":"status","type":"bool"},{"internalType":"bytes32","name":"digest","type":"bytes32"},{"internalType":"uint256","name":"value","type":"uint256"}],"internalType":"struct IDealer.Job","name":"","type":"tuple"}],"stateMutability":"view","type":"function"},{"inputs":[{"internalType":"address","name":"_mediator","type":"address"},{"internalType":"address","name":"_stableCoin","type":"address"}],"name":"initialize","outputs":[],"stateMutability":"nonpayable","type":"function"},{"inputs":[],"name":"mediator","outputs":[{"internalType":"address","name":"","type":"address"}],"stateMutability":"view","type":"function"},{"inputs":[],"name":"owner","outputs":[{"internalType":"address","name":"","type":"address"}],"stateMutability":"view","type":"function"},{"inputs":[],"name":"pendingOwner","outputs":[{"internalType":"address","name":"","type":"address"}],"stateMutability":"view","type":"function"},{"inputs":[],"name":"proxiableUUID","outputs":[{"internalType":"bytes32","name":"","type":"bytes32"}],"stateMutability":"view","type":"function"},{"inputs":[],"name":"renounceOwnership","outputs":[],"stateMutability":"nonpayable","type":"function"},{"inputs":[],"name":"stableCoin","outputs":[{"internalType":"contract IERC20","name":"","type":"address"}],"stateMutability":"view","type":"function"},{"inputs":[{"internalType":"address","name":"newOwner","type":"address"}],"name":"transferOwnership","outputs":[],"stateMutability":"nonpayable","type":"function"},{"inputs":[{"internalType":"address","name":"_jobCreator","type":"address"}],"name":"transferToWhisperRouter","outputs":[],"stateMutability":"nonpayable","type":"function"},{"inputs":[{"internalType":"address","name":"newImplementation","type":"address"},{"internalType":"bytes","name":"data","type":"bytes"}],"name":"upgradeToAndCall","outputs":[],"stateMutability":"payable","type":"function"}],"evm":{"bytecode":{"linkReferences":{},"object":"60a0806040523461002a5730608052610f85908161003082396080518181816107de0152610c9e0152f35b600080fdfe60806040908082526004918236101561001757600080fd5b600092833560e01c928363485cc95514610a38575082634f1ef2861461083057826352d1902d146107c95782636d0501f6146107a1578263715018a61461073257826377924d1f146105f657826379ba50971461059f5782638da5cb5b14610569578263924b5a79146102d8578263992642e5146102af578263ad3cb1cc1461020c57508163b18008d214610185578163e30c39781461014b575063f2fde38b146100c157600080fd5b34610148576020366003190112610148576100da610be5565b6100e2610d00565b600080516020610f3083398151915280546001600160a01b0319166001600160a01b03928316908117909155600080516020610e90833981519152549091167f38d16b8cac22d99fc7c124b9cd0de2d3fa1faef420bfe791d8c362d765e227008380a380f35b80fd5b905034610181578160031936011261018157600080516020610f308339815191525490516001600160a01b039091168152602090f35b5080fd5b90503461018157602036600319011261018157806060926101a4610be5565b818380516101b181610c00565b828152826020820152015260018060a01b031681526001602052209080516101d881610c00565b60ff835416151592838252826002600183015492602085019384520154920191825282519384525160208401525190820152f35b909150346102ab57826003193601126102ab57815190818301906001600160401b038211838310176102985750825260058152602090640352e302e360dc1b6020820152825193849260208452825192836020860152825b84811061028257505050828201840152601f01601f19168101030190f35b8181018301518882018801528795508201610264565b634e487b7160e01b855260419052602484fd5b8280fd5b83823461018157816003193601126101815760035490516001600160a01b039091168152602090f35b908334610148576060366003190112610148576001600160401b0383358181116102ab57366023820112156102ab57808501359382851161056557602494858301928682369201011161056157853592604435600298600080516020610ef0833981519152968a885414610552578a8855861561051d5782156104e35733895260209960018b5260ff878b205416156104a5578b8a81878e9f9b809d9e9f9b9c60a08c8f8f908d6103b39554918051978589968688019b8c378601948501528301524260608301526080820152036080810184520182610c31565b519020998b51926103c384610c00565b8084528c828501918d83526001828701948c865233835252209351151560ff80198654169116178455516001840155519101556104008154610c6f565b905560035488516323b872dd60e01b8e82015233838201523060448201526064808201969096529485526001600160a01b03169260a08501928311858410176104945750506001999a94927f78352e0cd5a6d886c0f17f330e53c3af773e83642f27370af2442e49e1506f0296949261047a928952610dc4565b818651928392833781018a81520390209351908152a35580f35b634e487b7160e01b8c52604190528afd5b8260196064928d8a5193636e38ef5d60e11b855284015282015278141c995d9a5bdd5cc8129bd888139bdd08199a5b9a5cda1959603a1b6044820152fd5b8551636e38ef5d60e11b81526020818401526014818c015273125b9d985b1a5908125b9c1d5d08105b5bdd5b9d60621b6044820152606490fd5b85516305c57e8360e01b8152602081840152600f818c01526e125b9d985b1a590810da185a5b9259608a1b6044820152606490fd5b508451633ee5aeb560e01b8152fd5b8480fd5b8380fd5b838234610181578160031936011261018157600080516020610e908339815191525490516001600160a01b039091168152602090f35b9150346102ab57826003193601126102ab57600080516020610f3083398151915254336001600160a01b03909116036105df57826105dc33610d39565b80f35b60249250519063118cdaa760e01b82523390820152fd5b83823461018157602090816003193601126102ab57610613610be5565b61061b610d00565b6001600160a01b0390811684526001808452828520835192919061063e84610c00565b84600260ff835416151592838752848101548988015201549401938452146106ee5760035485548351855163a9059cbb60e01b88820152918416602483015260448083019190915281529116608082016001600160401b038111838210176106db577f7c834a8a637af7c8ad16699142b1a7b82ff8ac97de948638b65a6c9458228e90969750906106d192918552610dc4565b519051908152a180f35b634e487b7160e01b875260418852602487fd5b8251636e38ef5d60e11b8152808701859052601e60248201527f4e6f206c617465737420696e746572616374696f6e20726571756972656400006044820152606490fd5b833461014857806003193601126101485761074b610d00565b600080516020610f3083398151915280546001600160a01b0319908116909155600080516020610e908339815191528054918216905581906001600160a01b0316600080516020610ed08339815191528280a380f35b838234610181578160031936011261018157905490516001600160a01b039091168152602090f35b908334610148578060031936011261014857507f00000000000000000000000000000000000000000000000000000000000000006001600160a01b031630036108235760209051600080516020610eb08339815191528152f35b5163703e46dd60e11b8152fd5b9150806003193601126102ab57610845610be5565b60249390919084356001600160401b0381116101815736602382011215610181578085013561087381610c54565b9461088085519687610c31565b81865260209182870193368a8383010111610a34578186928b8693018737880101526108aa610c94565b6108b2610d00565b803b15610a245784516352d1902d60e01b81526001600160a01b038216969083818a818b5afa8691816109f1575b506108fc575050505050505191634c9c8ce360e01b8352820152fd5b9088888894938c600080516020610eb0833981519152918281036109dc5750853b156109c8575080546001600160a01b031916821790558451889392917fbc7cd75a20ee27fd9adebab32041f755214dbc6bffa90cc0225b39da2e5c2d3b8580a28251156109aa57505061099c9582915190845af4913d156109a0573d61098e61098582610c54565b92519283610c31565b81528581943d92013e610e2c565b5080f35b5060609250610e2c565b9550955050505050346109bc57505080f35b63b398979f60e01b8152fd5b8651634c9c8ce360e01b8152808501849052fd5b8751632a87526960e21b815280860191909152fd5b9091508481813d8311610a1d575b610a098183610c31565b81010312610a19575190386108e0565b8680fd5b503d6109ff565b845163340aafcd60e11b81528790fd5b8580fd5b84935034610565578260031936011261056557610a53610be5565b6024356001600160a01b038181169291839003610a1957600080516020610f1083398151915294855460ff81891c16159560018060401b03821680159081610bdd575b6001149081610bd3575b159081610bca575b50610bbc57506001600160401b03198116600117875585610ba1575b50610acd610c94565b610ad5610d95565b610add610d95565b610ae5610d95565b610aed610d95565b3315610b8a5750610afd33610d39565b610b05610d95565b610b0d610d95565b6001600080516020610ef08339815191525560018060a01b03199116818754161786556003541617600355610b43600254610c6f565b600255610b4e578280f35b805460ff60401b1916905551600181527fc7f505b2f371ae2175ee4913f4499e1f2633a7b5936321eed1cdaeb6115181d290602090a181808280f35b8651631e4fbdf760e01b8152908101889052602490fd5b6001600160481b0319166001600160401b0117865588610ac4565b63f92ee8a960e01b81529050fd5b9050158b610aa8565b303b159150610aa0565b889150610a96565b600435906001600160a01b0382168203610bfb57565b600080fd5b606081019081106001600160401b03821117610c1b57604052565b634e487b7160e01b600052604160045260246000fd5b601f909101601f19168101906001600160401b03821190821017610c1b57604052565b6001600160401b038111610c1b57601f01601f191660200190565b6000198114610c7e5760010190565b634e487b7160e01b600052601160045260246000fd5b6001600160a01b037f00000000000000000000000000000000000000000000000000000000000000008116308114918215610ce4575b5050610cd257565b60405163703e46dd60e11b8152600490fd5b600080516020610eb08339815191525416141590503880610cca565b600080516020610e90833981519152546001600160a01b03163303610d2157565b60405163118cdaa760e01b8152336004820152602490fd5b600080516020610f3083398151915280546001600160a01b0319908116909155600080516020610e9083398151915280549182166001600160a01b039384169081179091559116600080516020610ed0833981519152600080a3565b60ff600080516020610f108339815191525460401c1615610db257565b604051631afcd79f60e31b8152600490fd5b906000602091828151910182855af115610e20576000513d610e1757506001600160a01b0381163b155b610df55750565b604051635274afe760e01b81526001600160a01b039091166004820152602490fd5b60011415610dee565b6040513d6000823e3d90fd5b90610e535750805115610e4157602081519101fd5b60405163d6bda27560e01b8152600490fd5b81511580610e86575b610e64575090565b604051639996b31560e01b81526001600160a01b039091166004820152602490fd5b50803b15610e5c56fe9016d09d72d40fdae2fd8ceac6b6234c7706214fd39c1cd1e609a0528c199300360894a13ba1a3210667c828492db98dca3e2076cc3735a920a3ca505d382bbc8be0079c531659141344cd1fd0a4f28419497f9722a3daafe3b4186f6b6457e09b779b17422d0df92223018b32b4d1fa46e071723d6817e2486d003becc55f00f0c57e16840df040f15088dc2f81fe391c3923bec73e23a9662efc9c229c6a00237e158222e3e6968b72b9db0d8043aacf074ad9f650f0d1606b4d82ee432c00a264697066735822122021ddc322a4d91111947a35f677e33caef009ea7848be798128d45930acfbee9364736f6c63430008180033","opcodes":"PUSH1 0xA0 DUP1 PUSH1 0x40 MSTORE CALLVALUE PUSH2 0x2A JUMPI ADDRESS PUSH1 0x80 MSTORE PUSH2 0xF85 SWAP1 DUP2 PUSH2 0x30 DUP3 CODECOPY PUSH1 0x80 MLOAD DUP2 DUP2 DUP2 PUSH2 0x7DE ADD MSTORE PUSH2 0xC9E ADD MSTORE RETURN JUMPDEST PUSH1 0x0 DUP1 REVERT INVALID PUSH1 0x80 PUSH1 0x40 SWAP1 DUP1 DUP3 MSTORE PUSH1 0x4 SWAP2 DUP3 CALLDATASIZE LT ISZERO PUSH2 0x17 JUMPI PUSH1 0x0 DUP1 REVERT JUMPDEST PUSH1 0x0 SWAP3 DUP4 CALLDATALOAD PUSH1 0xE0 SHR SWAP3 DUP4 PUSH4 0x485CC955 EQ PUSH2 0xA38 JUMPI POP DUP3 PUSH4 0x4F1EF286 EQ PUSH2 0x830 JUMPI DUP3 PUSH4 0x52D1902D EQ PUSH2 0x7C9 JUMPI DUP3 PUSH4 0x6D0501F6 EQ PUSH2 0x7A1 JUMPI DUP3 PUSH4 0x715018A6 EQ PUSH2 0x732 JUMPI DUP3 PUSH4 0x77924D1F EQ PUSH2 0x5F6 JUMPI DUP3 PUSH4 0x79BA5097 EQ PUSH2 0x59F JUMPI DUP3 PUSH4 0x8DA5CB5B EQ PUSH2 0x569 JUMPI DUP3 PUSH4 0x924B5A79 EQ PUSH2 0x2D8 JUMPI DUP3 PUSH4 0x992642E5 EQ PUSH2 0x2AF JUMPI DUP3 PUSH4 0xAD3CB1CC EQ PUSH2 0x20C JUMPI POP DUP2 PUSH4 0xB18008D2 EQ PUSH2 0x185 JUMPI DUP2 PUSH4 0xE30C3978 EQ PUSH2 0x14B JUMPI POP PUSH4 0xF2FDE38B EQ PUSH2 0xC1 JUMPI PUSH1 0x0 DUP1 REVERT JUMPDEST CALLVALUE PUSH2 0x148 JUMPI PUSH1 0x20 CALLDATASIZE PUSH1 0x3 NOT ADD SLT PUSH2 0x148 JUMPI PUSH2 0xDA PUSH2 0xBE5 JUMP JUMPDEST PUSH2 0xE2 PUSH2 0xD00 JUMP JUMPDEST PUSH1 0x0 DUP1 MLOAD PUSH1 0x20 PUSH2 0xF30 DUP4 CODECOPY DUP2 MLOAD SWAP2 MSTORE DUP1 SLOAD PUSH1 0x1 PUSH1 0x1 PUSH1 0xA0 SHL SUB NOT AND PUSH1 0x1 PUSH1 0x1 PUSH1 0xA0 SHL SUB SWAP3 DUP4 AND SWAP1 DUP2 OR SWAP1 SWAP2 SSTORE PUSH1 0x0 DUP1 MLOAD PUSH1 0x20 PUSH2 0xE90 DUP4 CODECOPY DUP2 MLOAD SWAP2 MSTORE SLOAD SWAP1 SWAP2 AND PUSH32 0x38D16B8CAC22D99FC7C124B9CD0DE2D3FA1FAEF420BFE791D8C362D765E22700 DUP4 DUP1 LOG3 DUP1 RETURN JUMPDEST DUP1 REVERT JUMPDEST SWAP1 POP CALLVALUE PUSH2 0x181 JUMPI DUP2 PUSH1 0x3 NOT CALLDATASIZE ADD SLT PUSH2 0x181 JUMPI PUSH1 0x0 DUP1 MLOAD PUSH1 0x20 PUSH2 0xF30 DUP4 CODECOPY DUP2 MLOAD SWAP2 MSTORE SLOAD SWAP1 MLOAD PUSH1 0x1 PUSH1 0x1 PUSH1 0xA0 SHL SUB SWAP1 SWAP2 AND DUP2 MSTORE PUSH1 0x20 SWAP1 RETURN JUMPDEST POP DUP1 REVERT JUMPDEST SWAP1 POP CALLVALUE PUSH2 0x181 JUMPI PUSH1 0x20 CALLDATASIZE PUSH1 0x3 NOT ADD SLT PUSH2 0x181 JUMPI DUP1 PUSH1 0x60 SWAP3 PUSH2 0x1A4 PUSH2 0xBE5 JUMP JUMPDEST DUP2 DUP4 DUP1 MLOAD PUSH2 0x1B1 DUP2 PUSH2 0xC00 JUMP JUMPDEST DUP3 DUP2 MSTORE DUP3 PUSH1 0x20 DUP3 ADD MSTORE ADD MSTORE PUSH1 0x1 DUP1 PUSH1 0xA0 SHL SUB AND DUP2 MSTORE PUSH1 0x1 PUSH1 0x20 MSTORE KECCAK256 SWAP1 DUP1 MLOAD PUSH2 0x1D8 DUP2 PUSH2 0xC00 JUMP JUMPDEST PUSH1 0xFF DUP4 SLOAD AND ISZERO ISZERO SWAP3 DUP4 DUP3 MSTORE DUP3 PUSH1 0x2 PUSH1 0x1 DUP4 ADD SLOAD SWAP3 PUSH1 0x20 DUP6 ADD SWAP4 DUP5 MSTORE ADD SLOAD SWAP3 ADD SWAP2 DUP3 MSTORE DUP3 MLOAD SWAP4 DUP5 MSTORE MLOAD PUSH1 0x20 DUP5 ADD MSTORE MLOAD SWAP1 DUP3 ADD MSTORE RETURN JUMPDEST SWAP1 SWAP2 POP CALLVALUE PUSH2 0x2AB JUMPI DUP3 PUSH1 0x3 NOT CALLDATASIZE ADD SLT PUSH2 0x2AB JUMPI DUP2 MLOAD SWAP1 DUP2 DUP4 ADD SWAP1 PUSH1 0x1 PUSH1 0x1 PUSH1 0x40 SHL SUB DUP3 GT DUP4 DUP4 LT OR PUSH2 0x298 JUMPI POP DUP3 MSTORE PUSH1 0x5 DUP2 MSTORE PUSH1 0x20 SWAP1 PUSH5 0x352E302E3 PUSH1 0xDC SHL PUSH1 0x20 DUP3 ADD MSTORE DUP3 MLOAD SWAP4 DUP5 SWAP3 PUSH1 0x20 DUP5 MSTORE DUP3 MLOAD SWAP3 DUP4 PUSH1 0x20 DUP7 ADD MSTORE DUP3 JUMPDEST DUP5 DUP2 LT PUSH2 0x282 JUMPI POP POP POP DUP3 DUP3 ADD DUP5 ADD MSTORE PUSH1 0x1F ADD PUSH1 0x1F NOT AND DUP2 ADD SUB ADD SWAP1 RETURN JUMPDEST DUP2 DUP2 ADD DUP4 ADD MLOAD DUP9 DUP3 ADD DUP9 ADD MSTORE DUP8 SWAP6 POP DUP3 ADD PUSH2 0x264 JUMP JUMPDEST PUSH4 0x4E487B71 PUSH1 0xE0 SHL DUP6 MSTORE PUSH1 0x41 SWAP1 MSTORE PUSH1 0x24 DUP5 REVERT JUMPDEST DUP3 DUP1 REVERT JUMPDEST DUP4 DUP3 CALLVALUE PUSH2 0x181 JUMPI DUP2 PUSH1 0x3 NOT CALLDATASIZE ADD SLT PUSH2 0x181 JUMPI PUSH1 0x3 SLOAD SWAP1 MLOAD PUSH1 0x1 PUSH1 0x1 PUSH1 0xA0 SHL SUB SWAP1 SWAP2 AND DUP2 MSTORE PUSH1 0x20 SWAP1 RETURN JUMPDEST SWAP1 DUP4 CALLVALUE PUSH2 0x148 JUMPI PUSH1 0x60 CALLDATASIZE PUSH1 0x3 NOT ADD SLT PUSH2 0x148 JUMPI PUSH1 0x1 PUSH1 0x1 PUSH1 0x40 SHL SUB DUP4 CALLDATALOAD DUP2 DUP2 GT PUSH2 0x2AB JUMPI CALLDATASIZE PUSH1 0x23 DUP3 ADD SLT ISZERO PUSH2 0x2AB JUMPI DUP1 DUP6 ADD CALLDATALOAD SWAP4 DUP3 DUP6 GT PUSH2 0x565 JUMPI PUSH1 0x24 SWAP5 DUP6 DUP4 ADD SWAP3 DUP7 DUP3 CALLDATASIZE SWAP3 ADD ADD GT PUSH2 0x561 JUMPI DUP6 CALLDATALOAD SWAP3 PUSH1 0x44 CALLDATALOAD PUSH1 0x2 SWAP9 PUSH1 0x0 DUP1 MLOAD PUSH1 0x20 PUSH2 0xEF0 DUP4 CODECOPY DUP2 MLOAD SWAP2 MSTORE SWAP7 DUP11 DUP9 SLOAD EQ PUSH2 0x552 JUMPI DUP11 DUP9 SSTORE DUP7 ISZERO PUSH2 0x51D JUMPI DUP3 ISZERO PUSH2 0x4E3 JUMPI CALLER DUP10 MSTORE PUSH1 0x20 SWAP10 PUSH1 0x1 DUP12 MSTORE PUSH1 0xFF DUP8 DUP12 KECCAK256 SLOAD AND ISZERO PUSH2 0x4A5 JUMPI DUP12 DUP11 DUP2 DUP8 DUP15 SWAP16 SWAP12 DUP1 SWAP14 SWAP15 SWAP16 SWAP12 SWAP13 PUSH1 0xA0 DUP13 DUP16 DUP16 SWAP1 DUP14 PUSH2 0x3B3 SWAP6 SLOAD SWAP2 DUP1 MLOAD SWAP8 DUP6 DUP10 SWAP7 DUP7 DUP9 ADD SWAP12 DUP13 CALLDATACOPY DUP7 ADD SWAP5 DUP6 ADD MSTORE DUP4 ADD MSTORE TIMESTAMP PUSH1 0x60 DUP4 ADD MSTORE PUSH1 0x80 DUP3 ADD MSTORE SUB PUSH1 0x80 DUP2 ADD DUP5 MSTORE ADD DUP3 PUSH2 0xC31 JUMP JUMPDEST MLOAD SWAP1 KECCAK256 SWAP10 DUP12 MLOAD SWAP3 PUSH2 0x3C3 DUP5 PUSH2 0xC00 JUMP JUMPDEST DUP1 DUP5 MSTORE DUP13 DUP3 DUP6 ADD SWAP2 DUP14 DUP4 MSTORE PUSH1 0x1 DUP3 DUP8 ADD SWAP5 DUP13 DUP7 MSTORE CALLER DUP4 MSTORE MSTORE KECCAK256 SWAP4 MLOAD ISZERO ISZERO PUSH1 0xFF DUP1 NOT DUP7 SLOAD AND SWAP2 AND OR DUP5 SSTORE MLOAD PUSH1 0x1 DUP5 ADD SSTORE MLOAD SWAP2 ADD SSTORE PUSH2 0x400 DUP2 SLOAD PUSH2 0xC6F JUMP JUMPDEST SWAP1 SSTORE PUSH1 0x3 SLOAD DUP9 MLOAD PUSH4 0x23B872DD PUSH1 0xE0 SHL DUP15 DUP3 ADD MSTORE CALLER DUP4 DUP3 ADD MSTORE ADDRESS PUSH1 0x44 DUP3 ADD MSTORE PUSH1 0x64 DUP1 DUP3 ADD SWAP7 SWAP1 SWAP7 MSTORE SWAP5 DUP6 MSTORE PUSH1 0x1 PUSH1 0x1 PUSH1 0xA0 SHL SUB AND SWAP3 PUSH1 0xA0 DUP6 ADD SWAP3 DUP4 GT DUP6 DUP5 LT OR PUSH2 0x494 JUMPI POP POP PUSH1 0x1 SWAP10 SWAP11 SWAP5 SWAP3 PUSH32 0x78352E0CD5A6D886C0F17F330E53C3AF773E83642F27370AF2442E49E1506F02 SWAP7 SWAP5 SWAP3 PUSH2 0x47A SWAP3 DUP10 MSTORE PUSH2 0xDC4 JUMP JUMPDEST DUP2 DUP7 MLOAD SWAP3 DUP4 SWAP3 DUP4 CALLDATACOPY DUP2 ADD DUP11 DUP2 MSTORE SUB SWAP1 KECCAK256 SWAP4 MLOAD SWAP1 DUP2 MSTORE LOG3 SSTORE DUP1 RETURN JUMPDEST PUSH4 0x4E487B71 PUSH1 0xE0 SHL DUP13 MSTORE PUSH1 0x41 SWAP1 MSTORE DUP11 REVERT JUMPDEST DUP3 PUSH1 0x19 PUSH1 0x64 SWAP3 DUP14 DUP11 MLOAD SWAP4 PUSH4 0x6E38EF5D PUSH1 0xE1 SHL DUP6 MSTORE DUP5 ADD MSTORE DUP3 ADD MSTORE PUSH25 0x141C995D9A5BDD5CC8129BD888139BDD08199A5B9A5CDA1959 PUSH1 0x3A SHL PUSH1 0x44 DUP3 ADD MSTORE REVERT JUMPDEST DUP6 MLOAD PUSH4 0x6E38EF5D PUSH1 0xE1 SHL DUP2 MSTORE PUSH1 0x20 DUP2 DUP5 ADD MSTORE PUSH1 0x14 DUP2 DUP13 ADD MSTORE PUSH20 0x125B9D985B1A5908125B9C1D5D08105B5BDD5B9D PUSH1 0x62 SHL PUSH1 0x44 DUP3 ADD MSTORE PUSH1 0x64 SWAP1 REVERT JUMPDEST DUP6 MLOAD PUSH4 0x5C57E83 PUSH1 0xE0 SHL DUP2 MSTORE PUSH1 0x20 DUP2 DUP5 ADD MSTORE PUSH1 0xF DUP2 DUP13 ADD MSTORE PUSH15 0x125B9D985B1A590810DA185A5B9259 PUSH1 0x8A SHL PUSH1 0x44 DUP3 ADD MSTORE PUSH1 0x64 SWAP1 REVERT JUMPDEST POP DUP5 MLOAD PUSH4 0x3EE5AEB5 PUSH1 0xE0 SHL DUP2 MSTORE REVERT JUMPDEST DUP5 DUP1 REVERT JUMPDEST DUP4 DUP1 REVERT JUMPDEST DUP4 DUP3 CALLVALUE PUSH2 0x181 JUMPI DUP2 PUSH1 0x3 NOT CALLDATASIZE ADD SLT PUSH2 0x181 JUMPI PUSH1 0x0 DUP1 MLOAD PUSH1 0x20 PUSH2 0xE90 DUP4 CODECOPY DUP2 MLOAD SWAP2 MSTORE SLOAD SWAP1 MLOAD PUSH1 0x1 PUSH1 0x1 PUSH1 0xA0 SHL SUB SWAP1 SWAP2 AND DUP2 MSTORE PUSH1 0x20 SWAP1 RETURN JUMPDEST SWAP2 POP CALLVALUE PUSH2 0x2AB JUMPI DUP3 PUSH1 0x3 NOT CALLDATASIZE ADD SLT PUSH2 0x2AB JUMPI PUSH1 0x0 DUP1 MLOAD PUSH1 0x20 PUSH2 0xF30 DUP4 CODECOPY DUP2 MLOAD SWAP2 MSTORE SLOAD CALLER PUSH1 0x1 PUSH1 0x1 PUSH1 0xA0 SHL SUB SWAP1 SWAP2 AND SUB PUSH2 0x5DF JUMPI DUP3 PUSH2 0x5DC CALLER PUSH2 0xD39 JUMP JUMPDEST DUP1 RETURN JUMPDEST PUSH1 0x24 SWAP3 POP MLOAD SWAP1 PUSH4 0x118CDAA7 PUSH1 0xE0 SHL DUP3 MSTORE CALLER SWAP1 DUP3 ADD MSTORE REVERT JUMPDEST DUP4 DUP3 CALLVALUE PUSH2 0x181 JUMPI PUSH1 0x20 SWAP1 DUP2 PUSH1 0x3 NOT CALLDATASIZE ADD SLT PUSH2 0x2AB JUMPI PUSH2 0x613 PUSH2 0xBE5 JUMP JUMPDEST PUSH2 0x61B PUSH2 0xD00 JUMP JUMPDEST PUSH1 0x1 PUSH1 0x1 PUSH1 0xA0 SHL SUB SWAP1 DUP2 AND DUP5 MSTORE PUSH1 0x1 DUP1 DUP5 MSTORE DUP3 DUP6 KECCAK256 DUP4 MLOAD SWAP3 SWAP2 SWAP1 PUSH2 0x63E DUP5 PUSH2 0xC00 JUMP JUMPDEST DUP5 PUSH1 0x2 PUSH1 0xFF DUP4 SLOAD AND ISZERO ISZERO SWAP3 DUP4 DUP8 MSTORE DUP5 DUP2 ADD SLOAD DUP10 DUP9 ADD MSTORE ADD SLOAD SWAP5 ADD SWAP4 DUP5 MSTORE EQ PUSH2 0x6EE JUMPI PUSH1 0x3 SLOAD DUP6 SLOAD DUP4 MLOAD DUP6 MLOAD PUSH4 0xA9059CBB PUSH1 0xE0 SHL DUP9 DUP3 ADD MSTORE SWAP2 DUP5 AND PUSH1 0x24 DUP4 ADD MSTORE PUSH1 0x44 DUP1 DUP4 ADD SWAP2 SWAP1 SWAP2 MSTORE DUP2 MSTORE SWAP2 AND PUSH1 0x80 DUP3 ADD PUSH1 0x1 PUSH1 0x1 PUSH1 0x40 SHL SUB DUP2 GT DUP4 DUP3 LT OR PUSH2 0x6DB JUMPI PUSH32 0x7C834A8A637AF7C8AD16699142B1A7B82FF8AC97DE948638B65A6C9458228E90 SWAP7 SWAP8 POP SWAP1 PUSH2 0x6D1 SWAP3 SWAP2 DUP6 MSTORE PUSH2 0xDC4 JUMP JUMPDEST MLOAD SWAP1 MLOAD SWAP1 DUP2 MSTORE LOG1 DUP1 RETURN JUMPDEST PUSH4 0x4E487B71 PUSH1 0xE0 SHL DUP8 MSTORE PUSH1 0x41 DUP9 MSTORE PUSH1 0x24 DUP8 REVERT JUMPDEST DUP3 MLOAD PUSH4 0x6E38EF5D PUSH1 0xE1 SHL DUP2 MSTORE DUP1 DUP8 ADD DUP6 SWAP1 MSTORE PUSH1 0x1E PUSH1 0x24 DUP3 ADD MSTORE PUSH32 0x4E6F206C617465737420696E746572616374696F6E2072657175697265640000 PUSH1 0x44 DUP3 ADD MSTORE PUSH1 0x64 SWAP1 REVERT JUMPDEST DUP4 CALLVALUE PUSH2 0x148 JUMPI DUP1 PUSH1 0x3 NOT CALLDATASIZE ADD SLT PUSH2 0x148 JUMPI PUSH2 0x74B PUSH2 0xD00 JUMP JUMPDEST PUSH1 0x0 DUP1 MLOAD PUSH1 0x20 PUSH2 0xF30 DUP4 CODECOPY DUP2 MLOAD SWAP2 MSTORE DUP1 SLOAD PUSH1 0x1 PUSH1 0x1 PUSH1 0xA0 SHL SUB NOT SWAP1 DUP2 AND SWAP1 SWAP2 SSTORE PUSH1 0x0 DUP1 MLOAD PUSH1 0x20 PUSH2 0xE90 DUP4 CODECOPY DUP2 MLOAD SWAP2 MSTORE DUP1 SLOAD SWAP2 DUP3 AND SWAP1 SSTORE DUP2 SWAP1 PUSH1 0x1 PUSH1 0x1 PUSH1 0xA0 SHL SUB AND PUSH1 0x0 DUP1 MLOAD PUSH1 0x20 PUSH2 0xED0 DUP4 CODECOPY DUP2 MLOAD SWAP2 MSTORE DUP3 DUP1 LOG3 DUP1 RETURN JUMPDEST DUP4 DUP3 CALLVALUE PUSH2 0x181 JUMPI DUP2 PUSH1 0x3 NOT CALLDATASIZE ADD SLT PUSH2 0x181 JUMPI SWAP1 SLOAD SWAP1 MLOAD PUSH1 0x1 PUSH1 0x1 PUSH1 0xA0 SHL SUB SWAP1 SWAP2 AND DUP2 MSTORE PUSH1 0x20 SWAP1 RETURN JUMPDEST SWAP1 DUP4 CALLVALUE PUSH2 0x148 JUMPI DUP1 PUSH1 0x3 NOT CALLDATASIZE ADD SLT PUSH2 0x148 JUMPI POP PUSH32 0x0 PUSH1 0x1 PUSH1 0x1 PUSH1 0xA0 SHL SUB AND ADDRESS SUB PUSH2 0x823 JUMPI PUSH1 0x20 SWAP1 MLOAD PUSH1 0x0 DUP1 MLOAD PUSH1 0x20 PUSH2 0xEB0 DUP4 CODECOPY DUP2 MLOAD SWAP2 MSTORE DUP2 MSTORE RETURN JUMPDEST MLOAD PUSH4 0x703E46DD PUSH1 0xE1 SHL DUP2 MSTORE REVERT JUMPDEST SWAP2 POP DUP1 PUSH1 0x3 NOT CALLDATASIZE ADD SLT PUSH2 0x2AB JUMPI PUSH2 0x845 PUSH2 0xBE5 JUMP JUMPDEST PUSH1 0x24 SWAP4 SWAP1 SWAP2 SWAP1 DUP5 CALLDATALOAD PUSH1 0x1 PUSH1 0x1 PUSH1 0x40 SHL SUB DUP2 GT PUSH2 0x181 JUMPI CALLDATASIZE PUSH1 0x23 DUP3 ADD SLT ISZERO PUSH2 0x181 JUMPI DUP1 DUP6 ADD CALLDATALOAD PUSH2 0x873 DUP2 PUSH2 0xC54 JUMP JUMPDEST SWAP5 PUSH2 0x880 DUP6 MLOAD SWAP7 DUP8 PUSH2 0xC31 JUMP JUMPDEST DUP2 DUP7 MSTORE PUSH1 0x20 SWAP2 DUP3 DUP8 ADD SWAP4 CALLDATASIZE DUP11 DUP4 DUP4 ADD ADD GT PUSH2 0xA34 JUMPI DUP2 DUP7 SWAP3 DUP12 DUP7 SWAP4 ADD DUP8 CALLDATACOPY DUP9 ADD ADD MSTORE PUSH2 0x8AA PUSH2 0xC94 JUMP JUMPDEST PUSH2 0x8B2 PUSH2 0xD00 JUMP JUMPDEST DUP1 EXTCODESIZE ISZERO PUSH2 0xA24 JUMPI DUP5 MLOAD PUSH4 0x52D1902D PUSH1 0xE0 SHL DUP2 MSTORE PUSH1 0x1 PUSH1 0x1 PUSH1 0xA0 SHL SUB DUP3 AND SWAP7 SWAP1 DUP4 DUP2 DUP11 DUP2 DUP12 GAS STATICCALL DUP7 SWAP2 DUP2 PUSH2 0x9F1 JUMPI JUMPDEST POP PUSH2 0x8FC JUMPI POP POP POP POP POP POP MLOAD SWAP2 PUSH4 0x4C9C8CE3 PUSH1 0xE0 SHL DUP4 MSTORE DUP3 ADD MSTORE REVERT JUMPDEST SWAP1 DUP9 DUP9 DUP9 SWAP5 SWAP4 DUP13 PUSH1 0x0 DUP1 MLOAD PUSH1 0x20 PUSH2 0xEB0 DUP4 CODECOPY DUP2 MLOAD SWAP2 MSTORE SWAP2 DUP3 DUP2 SUB PUSH2 0x9DC JUMPI POP DUP6 EXTCODESIZE ISZERO PUSH2 0x9C8 JUMPI POP DUP1 SLOAD PUSH1 0x1 PUSH1 0x1 PUSH1 0xA0 SHL SUB NOT AND DUP3 OR SWAP1 SSTORE DUP5 MLOAD DUP9 SWAP4 SWAP3 SWAP2 PUSH32 0xBC7CD75A20EE27FD9ADEBAB32041F755214DBC6BFFA90CC0225B39DA2E5C2D3B DUP6 DUP1 LOG2 DUP3 MLOAD ISZERO PUSH2 0x9AA JUMPI POP POP PUSH2 0x99C SWAP6 DUP3 SWAP2 MLOAD SWAP1 DUP5 GAS DELEGATECALL SWAP2 RETURNDATASIZE ISZERO PUSH2 0x9A0 JUMPI RETURNDATASIZE PUSH2 0x98E PUSH2 0x985 DUP3 PUSH2 0xC54 JUMP JUMPDEST SWAP3 MLOAD SWAP3 DUP4 PUSH2 0xC31 JUMP JUMPDEST DUP2 MSTORE DUP6 DUP2 SWAP5 RETURNDATASIZE SWAP3 ADD RETURNDATACOPY PUSH2 0xE2C JUMP JUMPDEST POP DUP1 RETURN JUMPDEST POP PUSH1 0x60 SWAP3 POP PUSH2 0xE2C JUMP JUMPDEST SWAP6 POP SWAP6 POP POP POP POP POP CALLVALUE PUSH2 0x9BC JUMPI POP POP DUP1 RETURN JUMPDEST PUSH4 0xB398979F PUSH1 0xE0 SHL DUP2 MSTORE REVERT JUMPDEST DUP7 MLOAD PUSH4 0x4C9C8CE3 PUSH1 0xE0 SHL DUP2 MSTORE DUP1 DUP6 ADD DUP5 SWAP1 MSTORE REVERT JUMPDEST DUP8 MLOAD PUSH4 0x2A875269 PUSH1 0xE2 SHL DUP2 MSTORE DUP1 DUP7 ADD SWAP2 SWAP1 SWAP2 MSTORE REVERT JUMPDEST SWAP1 SWAP2 POP DUP5 DUP2 DUP2 RETURNDATASIZE DUP4 GT PUSH2 0xA1D JUMPI JUMPDEST PUSH2 0xA09 DUP2 DUP4 PUSH2 0xC31 JUMP JUMPDEST DUP2 ADD SUB SLT PUSH2 0xA19 JUMPI MLOAD SWAP1 CODESIZE PUSH2 0x8E0 JUMP JUMPDEST DUP7 DUP1 REVERT JUMPDEST POP RETURNDATASIZE PUSH2 0x9FF JUMP JUMPDEST DUP5 MLOAD PUSH4 0x340AAFCD PUSH1 0xE1 SHL DUP2 MSTORE DUP8 SWAP1 REVERT JUMPDEST DUP6 DUP1 REVERT JUMPDEST DUP5 SWAP4 POP CALLVALUE PUSH2 0x565 JUMPI DUP3 PUSH1 0x3 NOT CALLDATASIZE ADD SLT PUSH2 0x565 JUMPI PUSH2 0xA53 PUSH2 0xBE5 JUMP JUMPDEST PUSH1 0x24 CALLDATALOAD PUSH1 0x1 PUSH1 0x1 PUSH1 0xA0 SHL SUB DUP2 DUP2 AND SWAP3 SWAP2 DUP4 SWAP1 SUB PUSH2 0xA19 JUMPI PUSH1 0x0 DUP1 MLOAD PUSH1 0x20 PUSH2 0xF10 DUP4 CODECOPY DUP2 MLOAD SWAP2 MSTORE SWAP5 DUP6 SLOAD PUSH1 0xFF DUP2 DUP10 SHR AND ISZERO SWAP6 PUSH1 0x1 DUP1 PUSH1 0x40 SHL SUB DUP3 AND DUP1 ISZERO SWAP1 DUP2 PUSH2 0xBDD JUMPI JUMPDEST PUSH1 0x1 EQ SWAP1 DUP2 PUSH2 0xBD3 JUMPI JUMPDEST ISZERO SWAP1 DUP2 PUSH2 0xBCA JUMPI JUMPDEST POP PUSH2 0xBBC JUMPI POP PUSH1 0x1 PUSH1 0x1 PUSH1 0x40 SHL SUB NOT DUP2 AND PUSH1 0x1 OR DUP8 SSTORE DUP6 PUSH2 0xBA1 JUMPI JUMPDEST POP PUSH2 0xACD PUSH2 0xC94 JUMP JUMPDEST PUSH2 0xAD5 PUSH2 0xD95 JUMP JUMPDEST PUSH2 0xADD PUSH2 0xD95 JUMP JUMPDEST PUSH2 0xAE5 PUSH2 0xD95 JUMP JUMPDEST PUSH2 0xAED PUSH2 0xD95 JUMP JUMPDEST CALLER ISZERO PUSH2 0xB8A JUMPI POP PUSH2 0xAFD CALLER PUSH2 0xD39 JUMP JUMPDEST PUSH2 0xB05 PUSH2 0xD95 JUMP JUMPDEST PUSH2 0xB0D PUSH2 0xD95 JUMP JUMPDEST PUSH1 0x1 PUSH1 0x0 DUP1 MLOAD PUSH1 0x20 PUSH2 0xEF0 DUP4 CODECOPY DUP2 MLOAD SWAP2 MSTORE SSTORE PUSH1 0x1 DUP1 PUSH1 0xA0 SHL SUB NOT SWAP2 AND DUP2 DUP8 SLOAD AND OR DUP7 SSTORE PUSH1 0x3 SLOAD AND OR PUSH1 0x3 SSTORE PUSH2 0xB43 PUSH1 0x2 SLOAD PUSH2 0xC6F JUMP JUMPDEST PUSH1 0x2 SSTORE PUSH2 0xB4E JUMPI DUP3 DUP1 RETURN JUMPDEST DUP1 SLOAD PUSH1 0xFF PUSH1 0x40 SHL NOT AND SWAP1 SSTORE MLOAD PUSH1 0x1 DUP2 MSTORE PUSH32 0xC7F505B2F371AE2175EE4913F4499E1F2633A7B5936321EED1CDAEB6115181D2 SWAP1 PUSH1 0x20 SWAP1 LOG1 DUP2 DUP1 DUP3 DUP1 RETURN JUMPDEST DUP7 MLOAD PUSH4 0x1E4FBDF7 PUSH1 0xE0 SHL DUP2 MSTORE SWAP1 DUP2 ADD DUP9 SWAP1 MSTORE PUSH1 0x24 SWAP1 REVERT JUMPDEST PUSH1 0x1 PUSH1 0x1 PUSH1 0x48 SHL SUB NOT AND PUSH1 0x1 PUSH1 0x1 PUSH1 0x40 SHL ADD OR DUP7 SSTORE DUP9 PUSH2 0xAC4 JUMP JUMPDEST PUSH4 0xF92EE8A9 PUSH1 0xE0 SHL DUP2 MSTORE SWAP1 POP REVERT JUMPDEST SWAP1 POP ISZERO DUP12 PUSH2 0xAA8 JUMP JUMPDEST ADDRESS EXTCODESIZE ISZERO SWAP2 POP PUSH2 0xAA0 JUMP JUMPDEST DUP9 SWAP2 POP PUSH2 0xA96 JUMP JUMPDEST PUSH1 0x4 CALLDATALOAD SWAP1 PUSH1 0x1 PUSH1 0x1 PUSH1 0xA0 SHL SUB DUP3 AND DUP3 SUB PUSH2 0xBFB JUMPI JUMP JUMPDEST PUSH1 0x0 DUP1 REVERT JUMPDEST PUSH1 0x60 DUP2 ADD SWAP1 DUP2 LT PUSH1 0x1 PUSH1 0x1 PUSH1 0x40 SHL SUB DUP3 GT OR PUSH2 0xC1B JUMPI PUSH1 0x40 MSTORE JUMP JUMPDEST PUSH4 0x4E487B71 PUSH1 0xE0 SHL PUSH1 0x0 MSTORE PUSH1 0x41 PUSH1 0x4 MSTORE PUSH1 0x24 PUSH1 0x0 REVERT JUMPDEST PUSH1 0x1F SWAP1 SWAP2 ADD PUSH1 0x1F NOT AND DUP2 ADD SWAP1 PUSH1 0x1 PUSH1 0x1 PUSH1 0x40 SHL SUB DUP3 GT SWAP1 DUP3 LT OR PUSH2 0xC1B JUMPI PUSH1 0x40 MSTORE JUMP JUMPDEST PUSH1 0x1 PUSH1 0x1 PUSH1 0x40 SHL SUB DUP2 GT PUSH2 0xC1B JUMPI PUSH1 0x1F ADD PUSH1 0x1F NOT AND PUSH1 0x20 ADD SWAP1 JUMP JUMPDEST PUSH1 0x0 NOT DUP2 EQ PUSH2 0xC7E JUMPI PUSH1 0x1 ADD SWAP1 JUMP JUMPDEST PUSH4 0x4E487B71 PUSH1 0xE0 SHL PUSH1 0x0 MSTORE PUSH1 0x11 PUSH1 0x4 MSTORE PUSH1 0x24 PUSH1 0x0 REVERT JUMPDEST PUSH1 0x1 PUSH1 0x1 PUSH1 0xA0 SHL SUB PUSH32 0x0 DUP2 AND ADDRESS DUP2 EQ SWAP2 DUP3 ISZERO PUSH2 0xCE4 JUMPI JUMPDEST POP POP PUSH2 0xCD2 JUMPI JUMP JUMPDEST PUSH1 0x40 MLOAD PUSH4 0x703E46DD PUSH1 0xE1 SHL DUP2 MSTORE PUSH1 0x4 SWAP1 REVERT JUMPDEST PUSH1 0x0 DUP1 MLOAD PUSH1 0x20 PUSH2 0xEB0 DUP4 CODECOPY DUP2 MLOAD SWAP2 MSTORE SLOAD AND EQ ISZERO SWAP1 POP CODESIZE DUP1 PUSH2 0xCCA JUMP JUMPDEST PUSH1 0x0 DUP1 MLOAD PUSH1 0x20 PUSH2 0xE90 DUP4 CODECOPY DUP2 MLOAD SWAP2 MSTORE SLOAD PUSH1 0x1 PUSH1 0x1 PUSH1 0xA0 SHL SUB AND CALLER SUB PUSH2 0xD21 JUMPI JUMP JUMPDEST PUSH1 0x40 MLOAD PUSH4 0x118CDAA7 PUSH1 0xE0 SHL DUP2 MSTORE CALLER PUSH1 0x4 DUP3 ADD MSTORE PUSH1 0x24 SWAP1 REVERT JUMPDEST PUSH1 0x0 DUP1 MLOAD PUSH1 0x20 PUSH2 0xF30 DUP4 CODECOPY DUP2 MLOAD SWAP2 MSTORE DUP1 SLOAD PUSH1 0x1 PUSH1 0x1 PUSH1 0xA0 SHL SUB NOT SWAP1 DUP2 AND SWAP1 SWAP2 SSTORE PUSH1 0x0 DUP1 MLOAD PUSH1 0x20 PUSH2 0xE90 DUP4 CODECOPY DUP2 MLOAD SWAP2 MSTORE DUP1 SLOAD SWAP2 DUP3 AND PUSH1 0x1 PUSH1 0x1 PUSH1 0xA0 SHL SUB SWAP4 DUP5 AND SWAP1 DUP2 OR SWAP1 SWAP2 SSTORE SWAP2 AND PUSH1 0x0 DUP1 MLOAD PUSH1 0x20 PUSH2 0xED0 DUP4 CODECOPY DUP2 MLOAD SWAP2 MSTORE PUSH1 0x0 DUP1 LOG3 JUMP JUMPDEST PUSH1 0xFF PUSH1 0x0 DUP1 MLOAD PUSH1 0x20 PUSH2 0xF10 DUP4 CODECOPY DUP2 MLOAD SWAP2 MSTORE SLOAD PUSH1 0x40 SHR AND ISZERO PUSH2 0xDB2 JUMPI JUMP JUMPDEST PUSH1 0x40 MLOAD PUSH4 0x1AFCD79F PUSH1 0xE3 SHL DUP2 MSTORE PUSH1 0x4 SWAP1 REVERT JUMPDEST SWAP1 PUSH1 0x0 PUSH1 0x20 SWAP2 DUP3 DUP2 MLOAD SWAP2 ADD DUP3 DUP6 GAS CALL ISZERO PUSH2 0xE20 JUMPI PUSH1 0x0 MLOAD RETURNDATASIZE PUSH2 0xE17 JUMPI POP PUSH1 0x1 PUSH1 0x1 PUSH1 0xA0 SHL SUB DUP2 AND EXTCODESIZE ISZERO JUMPDEST PUSH2 0xDF5 JUMPI POP JUMP JUMPDEST PUSH1 0x40 MLOAD PUSH4 0x5274AFE7 PUSH1 0xE0 SHL DUP2 MSTORE PUSH1 0x1 PUSH1 0x1 PUSH1 0xA0 SHL SUB SWAP1 SWAP2 AND PUSH1 0x4 DUP3 ADD MSTORE PUSH1 0x24 SWAP1 REVERT JUMPDEST PUSH1 0x1 EQ ISZERO PUSH2 0xDEE JUMP JUMPDEST PUSH1 0x40 MLOAD RETURNDATASIZE PUSH1 0x0 DUP3 RETURNDATACOPY RETURNDATASIZE SWAP1 REVERT JUMPDEST SWAP1 PUSH2 0xE53 JUMPI POP DUP1 MLOAD ISZERO PUSH2 0xE41 JUMPI PUSH1 0x20 DUP2 MLOAD SWAP2 ADD REVERT JUMPDEST PUSH1 0x40 MLOAD PUSH4 0xD6BDA275 PUSH1 0xE0 SHL DUP2 MSTORE PUSH1 0x4 SWAP1 REVERT JUMPDEST DUP2 MLOAD ISZERO DUP1 PUSH2 0xE86 JUMPI JUMPDEST PUSH2 0xE64 JUMPI POP SWAP1 JUMP JUMPDEST PUSH1 0x40 MLOAD PUSH4 0x9996B315 PUSH1 0xE0 SHL DUP2 MSTORE PUSH1 0x1 PUSH1 0x1 PUSH1 0xA0 SHL SUB SWAP1 SWAP2 AND PUSH1 0x4 DUP3 ADD MSTORE PUSH1 0x24 SWAP1 REVERT JUMPDEST POP DUP1 EXTCODESIZE ISZERO PUSH2 0xE5C JUMP INVALID SWAP1 AND 0xD0 SWAP14 PUSH19 0xD40FDAE2FD8CEAC6B6234C7706214FD39C1CD1 0xE6 MULMOD LOG0 MSTORE DUP13 NOT SWAP4 STOP CALLDATASIZE ADDMOD SWAP5 LOG1 EXTCODESIZE LOG1 LOG3 0x21 MOD PUSH8 0xC828492DB98DCA3E KECCAK256 PUSH23 0xCC3735A920A3CA505D382BBC8BE0079C531659141344CD 0x1F 0xD0 LOG4 CALLCODE DUP5 NOT BLOBHASH PUSH32 0x9722A3DAAFE3B4186F6B6457E09B779B17422D0DF92223018B32B4D1FA46E071 PUSH19 0x3D6817E2486D003BECC55F00F0C57E16840DF0 BLOCKHASH CALL POP DUP9 0xDC 0x2F DUP2 INVALID CODECOPY SHR CODECOPY 0x23 0xBE 0xC7 RETURNDATACOPY 0x23 0xA9 PUSH7 0x2EFC9C229C6A00 0x23 PUSH31 0x158222E3E6968B72B9DB0D8043AACF074AD9F650F0D1606B4D82EE432C00A2 PUSH5 0x6970667358 0x22 SLT KECCAK256 0x21 0xDD 0xC3 0x22 LOG4 0xD9 GT GT SWAP5 PUSH27 0x35F677E33CAEF009EA7848BE798128D45930ACFBEE9364736F6C63 NUMBER STOP ADDMOD XOR STOP CALLER "},"methodIdentifiers":{"UPGRADE_INTERFACE_VERSION()":"ad3cb1cc","acceptOwnership()":"79ba5097","depositAndExec(string,uint256,uint256)":"924b5a79","getJobDetails(address)":"b18008d2","initialize(address,address)":"485cc955","mediator()":"6d0501f6","owner()":"8da5cb5b","pendingOwner()":"e30c3978","proxiableUUID()":"52d1902d","renounceOwnership()":"715018a6","stableCoin()":"992642e5","transferOwnership(address)":"f2fde38b","transferToWhisperRouter(address)":"77924d1f","upgradeToAndCall(address,bytes)":"4f1ef286"}},"storageLayout":{"storage":[{"astId":2700,"contract":"src/L2Contracts/Dealer.sol:Dealer","label":"mediator","offset":0,"slot":"0","type":"t_address"},{"astId":2705,"contract":"src/L2Contracts/Dealer.sol:Dealer","label":"jobDetails","offset":0,"slot":"1","type":"t_mapping(t_address,t_struct(Job)3175_storage)"},{"astId":2707,"contract":"src/L2Contracts/Dealer.sol:Dealer","label":"nonce","offset":0,"slot":"2","type":"t_uint256"},{"astId":2710,"contract":"src/L2Contracts/Dealer.sol:Dealer","label":"stableCoin","offset":0,"slot":"3","type":"t_contract(IERC20)1693"}],"types":{"t_address":{"encoding":"inplace","label":"address","numberOfBytes":"20"},"t_bool":{"encoding":"inplace","label":"bool","numberOfBytes":"1"},"t_bytes32":{"encoding":"inplace","label":"bytes32","numberOfBytes":"32"},"t_contract(IERC20)1693":{"encoding":"inplace","label":"contract IERC20","numberOfBytes":"20"},"t_mapping(t_address,t_struct(Job)3175_storage)":{"encoding":"mapping","key":"t_address","label":"mapping(address => struct IDealer.Job)","numberOfBytes":"32","value":"t_struct(Job)3175_storage"},"t_struct(Job)3175_storage":{"encoding":"inplace","label":"struct IDealer.Job","members":[{"astId":3170,"contract":"src/L2Contracts/Dealer.sol:Dealer","label":"status","offset":0,"slot":"0","type":"t_bool"},{"astId":3172,"contract":"src/L2Contracts/Dealer.sol:Dealer","label":"digest","offset":0,"slot":"1","type":"t_bytes32"},{"astId":3174,"contract":"src/L2Contracts/Dealer.sol:Dealer","label":"value","offset":0,"slot":"2","type":"t_uint256"}],"numberOfBytes":"96"},"t_uint256":{"encoding":"inplace","label":"uint256","numberOfBytes":"32"}}}}}}