{"src/L3Contracts/BurnerWallet.sol":{"BurnerWallet":{"abi":[{"inputs":[],"name":"executeBurnerTransaction","outputs":[],"stateMutability":"nonpayable","type":"function"},{"inputs":[],"name":"walletOwner","outputs":[{"internalType":"address","name":"","type":"address"}],"stateMutability":"view","type":"function"}],"evm":{"bytecode":{"linkReferences":{},"object":"6080806040523460145760a4908161001a8239f35b600080fdfe6080806040526004361015601257600080fd5b600090813560e01c9081631ae879e81460485750639a7c292414603457600080fd5b346045578060031936011260455780f35b80fd5b905034606a5781600319360112606a5790546001600160a01b03168152602090f35b5080fdfea26469706673582212209c8953ed6e22fb84eabb27fdb99f331ea6eb2ebcf5baf0b71c7ddafbf643780f64736f6c63430008180033","opcodes":"PUSH1 0x80 DUP1 PUSH1 0x40 MSTORE CALLVALUE PUSH1 0x14 JUMPI PUSH1 0xA4 SWAP1 DUP2 PUSH2 0x1A DUP3 CODECOPY RETURN JUMPDEST PUSH1 0x0 DUP1 REVERT INVALID PUSH1 0x80 DUP1 PUSH1 0x40 MSTORE PUSH1 0x4 CALLDATASIZE LT ISZERO PUSH1 0x12 JUMPI PUSH1 0x0 DUP1 REVERT JUMPDEST PUSH1 0x0 SWAP1 DUP2 CALLDATALOAD PUSH1 0xE0 SHR SWAP1 DUP2 PUSH4 0x1AE879E8 EQ PUSH1 0x48 JUMPI POP PUSH4 0x9A7C2924 EQ PUSH1 0x34 JUMPI PUSH1 0x0 DUP1 REVERT JUMPDEST CALLVALUE PUSH1 0x45 JUMPI DUP1 PUSH1 0x3 NOT CALLDATASIZE ADD SLT PUSH1 0x45 JUMPI DUP1 RETURN JUMPDEST DUP1 REVERT JUMPDEST SWAP1 POP CALLVALUE PUSH1 0x6A JUMPI DUP2 PUSH1 0x3 NOT CALLDATASIZE ADD SLT PUSH1 0x6A JUMPI SWAP1 SLOAD PUSH1 0x1 PUSH1 0x1 PUSH1 0xA0 SHL SUB AND DUP2 MSTORE PUSH1 0x20 SWAP1 RETURN JUMPDEST POP DUP1 REVERT INVALID LOG2 PUSH5 0x6970667358 0x22 SLT KECCAK256 SWAP13 DUP10 MSTORE8 0xED PUSH15 0x22FB84EABB27FDB99F331EA6EB2EBC CREATE2 0xBA CREATE 0xB7 SHR PUSH30 0xDAFBF643780F64736F6C6343000818003300000000000000000000000000 "},"methodIdentifiers":{"executeBurnerTransaction()":"9a7c2924","walletOwner()":"1ae879e8"}},"storageLayout":{"storage":[{"astId":3288,"contract":"src/L3Contracts/BurnerWallet.sol:BurnerWallet","label":"walletOwner","offset":0,"slot":"0","type":"t_address"}],"types":{"t_address":{"encoding":"inplace","label":"address","numberOfBytes":"20"}}}}}}