{"src/L3Contracts/BurnerWallet.sol":{"BurnerWallet":{"abi":[{"inputs":[{"internalType":"string","name":"_backendDigest","type":"string"},{"internalType":"address","name":"_tokenAddress","type":"address"}],"stateMutability":"nonpayable","type":"constructor"},{"inputs":[{"internalType":"string","name":"reason","type":"string"}],"name":"InvalidInteraction","type":"error"},{"inputs":[{"internalType":"address","name":"owner","type":"address"}],"name":"OwnableInvalidOwner","type":"error"},{"inputs":[{"internalType":"address","name":"account","type":"address"}],"name":"OwnableUnauthorizedAccount","type":"error"},{"inputs":[],"name":"ReentrancyGuardReentrantCall","type":"error"},{"anonymous":false,"inputs":[{"indexed":true,"internalType":"address","name":"previousOwner","type":"address"},{"indexed":true,"internalType":"address","name":"newOwner","type":"address"}],"name":"OwnershipTransferStarted","type":"event"},{"anonymous":false,"inputs":[{"indexed":true,"internalType":"address","name":"previousOwner","type":"address"},{"indexed":true,"internalType":"address","name":"newOwner","type":"address"}],"name":"OwnershipTransferred","type":"event"},{"inputs":[],"name":"acceptOwnership","outputs":[],"stateMutability":"nonpayable","type":"function"},{"inputs":[],"name":"backendDigest","outputs":[{"internalType":"string","name":"","type":"string"}],"stateMutability":"view","type":"function"},{"inputs":[{"internalType":"address[]","name":"_receivers","type":"address[]"},{"internalType":"uint256[]","name":"_amounts","type":"uint256[]"}],"name":"executeBurnerTransaction","outputs":[],"stateMutability":"nonpayable","type":"function"},{"inputs":[],"name":"mediator","outputs":[{"internalType":"address","name":"","type":"address"}],"stateMutability":"view","type":"function"},{"inputs":[],"name":"owner","outputs":[{"internalType":"address","name":"","type":"address"}],"stateMutability":"view","type":"function"},{"inputs":[],"name":"pendingOwner","outputs":[{"internalType":"address","name":"","type":"address"}],"stateMutability":"view","type":"function"},{"inputs":[],"name":"renounceOwnership","outputs":[],"stateMutability":"nonpayable","type":"function"},{"inputs":[],"name":"stableCoin","outputs":[{"internalType":"contract IERC20","name":"","type":"address"}],"stateMutability":"view","type":"function"},{"inputs":[{"internalType":"address","name":"newOwner","type":"address"}],"name":"transferOwnership","outputs":[],"stateMutability":"nonpayable","type":"function"},{"inputs":[],"name":"walletOwner","outputs":[{"internalType":"address","name":"","type":"address"}],"stateMutability":"view","type":"function"}],"evm":{"bytecode":{"linkReferences":{},"object":"60806040523461026b576108fe8038038061001981610284565b928339810160408282031261026b5781516001600160401b03929083811161026b578101601f9383858301121561026b5781519281841161023c57602093601f199361006a88830186168701610284565b9682885286838301011161026b579085929160005b828110610270575050600090870183015201516001600160a01b0380821696909187900361026b57331561025257600180546001600160a01b031990811682556000805433818416811783559299939516907f8be0079c531659141344cd1fd0a4f28419497f9722a3daafe3b4186f6b6457e09080a382600255805193841161023c5760059586548481811c91168015610232575b8282101461021c578381116101d8575b5080928511600114610174575083945090839291600094610169575b50501b916000199060031b1c19161790555b600654161760065560405161065490816102aa8239f35b015192503880610140565b9294849081168760005284600020946000905b888383106101be57505050106101a5575b505050811b019055610152565b015160001960f88460031b161c19169055388080610198565b858701518855909601959485019487935090810190610187565b8760005281600020848088018a1c820192848910610213575b01891c019085905b828110610207575050610124565b600081550185906101f9565b925081926101f1565b634e487b7160e01b600052602260045260246000fd5b90607f1690610114565b634e487b7160e01b600052604160045260246000fd5b604051631e4fbdf760e01b815260006004820152602490fd5b600080fd5b81810185015189820186015287940161007f565b6040519190601f01601f191682016001600160401b0381118382101761023c5760405256fe60806040908082526004908136101561001757600080fd5b600092833560e01c9182631ae879e81461055d575081635e6f0419146103975781636d0501f61461036e578163715018a61461031b57816379ba5097146102ab5781638da5cb5b14610283578163992642e51461025a578163e2c760121461012e578163e30c397814610105575063f2fde38b1461009457600080fd5b3461010157602036600319011261010157356001600160a01b03818116918290036100fd576100c16105d2565b600180546001600160a01b031916831790558254167f38d16b8cac22d99fc7c124b9cd0de2d3fa1faef420bfe791d8c362d765e227008380a380f35b8280fd5b5080fd5b83903461010157816003193601126101015760015490516001600160a01b039091168152602090f35b905082346102575780600319360112610257578151908060055460018160011c9160018116801561024d575b602098898510821461023a575091839189959388958652908160001461021957506001146101db575b50506101959250959392950382610582565b82519382859384528251928382860152825b8481106101c557505050828201840152601f01601f19168101030190f35b81810183015188820188015287955082016101a7565b600586528486209492508591905b81831061020157508894505082010161019588610183565b855488840185015294850194879450918301916101e9565b91505061019594925060ff191682840152151560051b820101869288610183565b634e487b7160e01b875260229052602486fd5b92607f169261015a565b80fd5b83903461010157816003193601126101015760065490516001600160a01b039091168152602090f35b839034610101578160031936011261010157905490516001600160a01b039091168152602090f35b9050346100fd57826003193601126100fd57600154916001600160a01b039133838516036103045750506001600160a01b031991821660015582543392811683178455166000805160206105ff8339815191528380a380f35b60249250519063118cdaa760e01b82523390820152fd5b83346102575780600319360112610257576103346105d2565b600180546001600160a01b03199081169091558154908116825581906001600160a01b03166000805160206105ff8339815191528280a380f35b919050346100fd57826003193601126100fd575490516001600160a01b03909116815260209150f35b9050346100fd57806003193601126100fd578135906001600160401b039081831161055957366023840112156105595782840135916024936103d8846105bb565b906103e584519283610582565b848252602094868684019160051b8301019136831161052e578701905b828210610536575050508435918211610532573660238301121561053257818601359161042e836105bb565b9261043b85519485610582565b808452868685019160051b8301019136831161052e5787879101915b83831061051e5750505050600280541461050e57600280556104776105d2565b8051158015610505575b6104cc57519051036104965784600160025580f35b51636e38ef5d60e11b81529283015260139082015272496e636f6e73697374656e7420696e7075747360681b6044820152606490fd5b8251636e38ef5d60e11b815280870185905260138187015272496e76616c6964207573657220696e7075747360681b6044820152606490fd5b50815115610481565b8251633ee5aeb560e01b81528690fd5b8235815291810191879101610457565b8980fd5b8680fd5b81356001600160a01b0381168103610555578152908601908601610402565b8a80fd5b8480fd5b8490346101015781600319360112610101576003546001600160a01b03168152602090f35b601f909101601f19168101906001600160401b038211908210176105a557604052565b634e487b7160e01b600052604160045260246000fd5b6001600160401b0381116105a55760051b60200190565b6000546001600160a01b031633036105e657565b60405163118cdaa760e01b8152336004820152602490fdfe8be0079c531659141344cd1fd0a4f28419497f9722a3daafe3b4186f6b6457e0a264697066735822122046a6d2aea31ddc0f906fed316ca1bf580342948804587428fd74d10a5483dea364736f6c63430008180033","opcodes":"PUSH1 0x80 PUSH1 0x40 MSTORE CALLVALUE PUSH2 0x26B JUMPI PUSH2 0x8FE DUP1 CODESIZE SUB DUP1 PUSH2 0x19 DUP2 PUSH2 0x284 JUMP JUMPDEST SWAP3 DUP4 CODECOPY DUP2 ADD PUSH1 0x40 DUP3 DUP3 SUB SLT PUSH2 0x26B JUMPI DUP2 MLOAD PUSH1 0x1 PUSH1 0x1 PUSH1 0x40 SHL SUB SWAP3 SWAP1 DUP4 DUP2 GT PUSH2 0x26B JUMPI DUP2 ADD PUSH1 0x1F SWAP4 DUP4 DUP6 DUP4 ADD SLT ISZERO PUSH2 0x26B JUMPI DUP2 MLOAD SWAP3 DUP2 DUP5 GT PUSH2 0x23C JUMPI PUSH1 0x20 SWAP4 PUSH1 0x1F NOT SWAP4 PUSH2 0x6A DUP9 DUP4 ADD DUP7 AND DUP8 ADD PUSH2 0x284 JUMP JUMPDEST SWAP7 DUP3 DUP9 MSTORE DUP7 DUP4 DUP4 ADD ADD GT PUSH2 0x26B JUMPI SWAP1 DUP6 SWAP3 SWAP2 PUSH1 0x0 JUMPDEST DUP3 DUP2 LT PUSH2 0x270 JUMPI POP POP PUSH1 0x0 SWAP1 DUP8 ADD DUP4 ADD MSTORE ADD MLOAD PUSH1 0x1 PUSH1 0x1 PUSH1 0xA0 SHL SUB DUP1 DUP3 AND SWAP7 SWAP1 SWAP2 DUP8 SWAP1 SUB PUSH2 0x26B JUMPI CALLER ISZERO PUSH2 0x252 JUMPI PUSH1 0x1 DUP1 SLOAD PUSH1 0x1 PUSH1 0x1 PUSH1 0xA0 SHL SUB NOT SWAP1 DUP2 AND DUP3 SSTORE PUSH1 0x0 DUP1 SLOAD CALLER DUP2 DUP5 AND DUP2 OR DUP4 SSTORE SWAP3 SWAP10 SWAP4 SWAP6 AND SWAP1 PUSH32 0x8BE0079C531659141344CD1FD0A4F28419497F9722A3DAAFE3B4186F6B6457E0 SWAP1 DUP1 LOG3 DUP3 PUSH1 0x2 SSTORE DUP1 MLOAD SWAP4 DUP5 GT PUSH2 0x23C JUMPI PUSH1 0x5 SWAP6 DUP7 SLOAD DUP5 DUP2 DUP2 SHR SWAP2 AND DUP1 ISZERO PUSH2 0x232 JUMPI JUMPDEST DUP3 DUP3 LT EQ PUSH2 0x21C JUMPI DUP4 DUP2 GT PUSH2 0x1D8 JUMPI JUMPDEST POP DUP1 SWAP3 DUP6 GT PUSH1 0x1 EQ PUSH2 0x174 JUMPI POP DUP4 SWAP5 POP SWAP1 DUP4 SWAP3 SWAP2 PUSH1 0x0 SWAP5 PUSH2 0x169 JUMPI JUMPDEST POP POP SHL SWAP2 PUSH1 0x0 NOT SWAP1 PUSH1 0x3 SHL SHR NOT AND OR SWAP1 SSTORE JUMPDEST PUSH1 0x6 SLOAD AND OR PUSH1 0x6 SSTORE PUSH1 0x40 MLOAD PUSH2 0x654 SWAP1 DUP2 PUSH2 0x2AA DUP3 CODECOPY RETURN JUMPDEST ADD MLOAD SWAP3 POP CODESIZE DUP1 PUSH2 0x140 JUMP JUMPDEST SWAP3 SWAP5 DUP5 SWAP1 DUP2 AND DUP8 PUSH1 0x0 MSTORE DUP5 PUSH1 0x0 KECCAK256 SWAP5 PUSH1 0x0 SWAP1 JUMPDEST DUP9 DUP4 DUP4 LT PUSH2 0x1BE JUMPI POP POP POP LT PUSH2 0x1A5 JUMPI JUMPDEST POP POP POP DUP2 SHL ADD SWAP1 SSTORE PUSH2 0x152 JUMP JUMPDEST ADD MLOAD PUSH1 0x0 NOT PUSH1 0xF8 DUP5 PUSH1 0x3 SHL AND SHR NOT AND SWAP1 SSTORE CODESIZE DUP1 DUP1 PUSH2 0x198 JUMP JUMPDEST DUP6 DUP8 ADD MLOAD DUP9 SSTORE SWAP1 SWAP7 ADD SWAP6 SWAP5 DUP6 ADD SWAP5 DUP8 SWAP4 POP SWAP1 DUP2 ADD SWAP1 PUSH2 0x187 JUMP JUMPDEST DUP8 PUSH1 0x0 MSTORE DUP2 PUSH1 0x0 KECCAK256 DUP5 DUP1 DUP9 ADD DUP11 SHR DUP3 ADD SWAP3 DUP5 DUP10 LT PUSH2 0x213 JUMPI JUMPDEST ADD DUP10 SHR ADD SWAP1 DUP6 SWAP1 JUMPDEST DUP3 DUP2 LT PUSH2 0x207 JUMPI POP POP PUSH2 0x124 JUMP JUMPDEST PUSH1 0x0 DUP2 SSTORE ADD DUP6 SWAP1 PUSH2 0x1F9 JUMP JUMPDEST SWAP3 POP DUP2 SWAP3 PUSH2 0x1F1 JUMP JUMPDEST PUSH4 0x4E487B71 PUSH1 0xE0 SHL PUSH1 0x0 MSTORE PUSH1 0x22 PUSH1 0x4 MSTORE PUSH1 0x24 PUSH1 0x0 REVERT JUMPDEST SWAP1 PUSH1 0x7F AND SWAP1 PUSH2 0x114 JUMP JUMPDEST PUSH4 0x4E487B71 PUSH1 0xE0 SHL PUSH1 0x0 MSTORE PUSH1 0x41 PUSH1 0x4 MSTORE PUSH1 0x24 PUSH1 0x0 REVERT JUMPDEST PUSH1 0x40 MLOAD PUSH4 0x1E4FBDF7 PUSH1 0xE0 SHL DUP2 MSTORE PUSH1 0x0 PUSH1 0x4 DUP3 ADD MSTORE PUSH1 0x24 SWAP1 REVERT JUMPDEST PUSH1 0x0 DUP1 REVERT JUMPDEST DUP2 DUP2 ADD DUP6 ADD MLOAD DUP10 DUP3 ADD DUP7 ADD MSTORE DUP8 SWAP5 ADD PUSH2 0x7F JUMP JUMPDEST PUSH1 0x40 MLOAD SWAP2 SWAP1 PUSH1 0x1F ADD PUSH1 0x1F NOT AND DUP3 ADD PUSH1 0x1 PUSH1 0x1 PUSH1 0x40 SHL SUB DUP2 GT DUP4 DUP3 LT OR PUSH2 0x23C JUMPI PUSH1 0x40 MSTORE JUMP INVALID PUSH1 0x80 PUSH1 0x40 SWAP1 DUP1 DUP3 MSTORE PUSH1 0x4 SWAP1 DUP2 CALLDATASIZE LT ISZERO PUSH2 0x17 JUMPI PUSH1 0x0 DUP1 REVERT JUMPDEST PUSH1 0x0 SWAP3 DUP4 CALLDATALOAD PUSH1 0xE0 SHR SWAP2 DUP3 PUSH4 0x1AE879E8 EQ PUSH2 0x55D JUMPI POP DUP2 PUSH4 0x5E6F0419 EQ PUSH2 0x397 JUMPI DUP2 PUSH4 0x6D0501F6 EQ PUSH2 0x36E JUMPI DUP2 PUSH4 0x715018A6 EQ PUSH2 0x31B JUMPI DUP2 PUSH4 0x79BA5097 EQ PUSH2 0x2AB JUMPI DUP2 PUSH4 0x8DA5CB5B EQ PUSH2 0x283 JUMPI DUP2 PUSH4 0x992642E5 EQ PUSH2 0x25A JUMPI DUP2 PUSH4 0xE2C76012 EQ PUSH2 0x12E JUMPI DUP2 PUSH4 0xE30C3978 EQ PUSH2 0x105 JUMPI POP PUSH4 0xF2FDE38B EQ PUSH2 0x94 JUMPI PUSH1 0x0 DUP1 REVERT JUMPDEST CALLVALUE PUSH2 0x101 JUMPI PUSH1 0x20 CALLDATASIZE PUSH1 0x3 NOT ADD SLT PUSH2 0x101 JUMPI CALLDATALOAD PUSH1 0x1 PUSH1 0x1 PUSH1 0xA0 SHL SUB DUP2 DUP2 AND SWAP2 DUP3 SWAP1 SUB PUSH2 0xFD JUMPI PUSH2 0xC1 PUSH2 0x5D2 JUMP JUMPDEST PUSH1 0x1 DUP1 SLOAD PUSH1 0x1 PUSH1 0x1 PUSH1 0xA0 SHL SUB NOT AND DUP4 OR SWAP1 SSTORE DUP3 SLOAD AND PUSH32 0x38D16B8CAC22D99FC7C124B9CD0DE2D3FA1FAEF420BFE791D8C362D765E22700 DUP4 DUP1 LOG3 DUP1 RETURN JUMPDEST DUP3 DUP1 REVERT JUMPDEST POP DUP1 REVERT JUMPDEST DUP4 SWAP1 CALLVALUE PUSH2 0x101 JUMPI DUP2 PUSH1 0x3 NOT CALLDATASIZE ADD SLT PUSH2 0x101 JUMPI PUSH1 0x1 SLOAD SWAP1 MLOAD PUSH1 0x1 PUSH1 0x1 PUSH1 0xA0 SHL SUB SWAP1 SWAP2 AND DUP2 MSTORE PUSH1 0x20 SWAP1 RETURN JUMPDEST SWAP1 POP DUP3 CALLVALUE PUSH2 0x257 JUMPI DUP1 PUSH1 0x3 NOT CALLDATASIZE ADD SLT PUSH2 0x257 JUMPI DUP2 MLOAD SWAP1 DUP1 PUSH1 0x5 SLOAD PUSH1 0x1 DUP2 PUSH1 0x1 SHR SWAP2 PUSH1 0x1 DUP2 AND DUP1 ISZERO PUSH2 0x24D JUMPI JUMPDEST PUSH1 0x20 SWAP9 DUP10 DUP6 LT DUP3 EQ PUSH2 0x23A JUMPI POP SWAP2 DUP4 SWAP2 DUP10 SWAP6 SWAP4 DUP9 SWAP6 DUP7 MSTORE SWAP1 DUP2 PUSH1 0x0 EQ PUSH2 0x219 JUMPI POP PUSH1 0x1 EQ PUSH2 0x1DB JUMPI JUMPDEST POP POP PUSH2 0x195 SWAP3 POP SWAP6 SWAP4 SWAP3 SWAP6 SUB DUP3 PUSH2 0x582 JUMP JUMPDEST DUP3 MLOAD SWAP4 DUP3 DUP6 SWAP4 DUP5 MSTORE DUP3 MLOAD SWAP3 DUP4 DUP3 DUP7 ADD MSTORE DUP3 JUMPDEST DUP5 DUP2 LT PUSH2 0x1C5 JUMPI POP POP POP DUP3 DUP3 ADD DUP5 ADD MSTORE PUSH1 0x1F ADD PUSH1 0x1F NOT AND DUP2 ADD SUB ADD SWAP1 RETURN JUMPDEST DUP2 DUP2 ADD DUP4 ADD MLOAD DUP9 DUP3 ADD DUP9 ADD MSTORE DUP8 SWAP6 POP DUP3 ADD PUSH2 0x1A7 JUMP JUMPDEST PUSH1 0x5 DUP7 MSTORE DUP5 DUP7 KECCAK256 SWAP5 SWAP3 POP DUP6 SWAP2 SWAP1 JUMPDEST DUP2 DUP4 LT PUSH2 0x201 JUMPI POP DUP9 SWAP5 POP POP DUP3 ADD ADD PUSH2 0x195 DUP9 PUSH2 0x183 JUMP JUMPDEST DUP6 SLOAD DUP9 DUP5 ADD DUP6 ADD MSTORE SWAP5 DUP6 ADD SWAP5 DUP8 SWAP5 POP SWAP2 DUP4 ADD SWAP2 PUSH2 0x1E9 JUMP JUMPDEST SWAP2 POP POP PUSH2 0x195 SWAP5 SWAP3 POP PUSH1 0xFF NOT AND DUP3 DUP5 ADD MSTORE ISZERO ISZERO PUSH1 0x5 SHL DUP3 ADD ADD DUP7 SWAP3 DUP9 PUSH2 0x183 JUMP JUMPDEST PUSH4 0x4E487B71 PUSH1 0xE0 SHL DUP8 MSTORE PUSH1 0x22 SWAP1 MSTORE PUSH1 0x24 DUP7 REVERT JUMPDEST SWAP3 PUSH1 0x7F AND SWAP3 PUSH2 0x15A JUMP JUMPDEST DUP1 REVERT JUMPDEST DUP4 SWAP1 CALLVALUE PUSH2 0x101 JUMPI DUP2 PUSH1 0x3 NOT CALLDATASIZE ADD SLT PUSH2 0x101 JUMPI PUSH1 0x6 SLOAD SWAP1 MLOAD PUSH1 0x1 PUSH1 0x1 PUSH1 0xA0 SHL SUB SWAP1 SWAP2 AND DUP2 MSTORE PUSH1 0x20 SWAP1 RETURN JUMPDEST DUP4 SWAP1 CALLVALUE PUSH2 0x101 JUMPI DUP2 PUSH1 0x3 NOT CALLDATASIZE ADD SLT PUSH2 0x101 JUMPI SWAP1 SLOAD SWAP1 MLOAD PUSH1 0x1 PUSH1 0x1 PUSH1 0xA0 SHL SUB SWAP1 SWAP2 AND DUP2 MSTORE PUSH1 0x20 SWAP1 RETURN JUMPDEST SWAP1 POP CALLVALUE PUSH2 0xFD JUMPI DUP3 PUSH1 0x3 NOT CALLDATASIZE ADD SLT PUSH2 0xFD JUMPI PUSH1 0x1 SLOAD SWAP2 PUSH1 0x1 PUSH1 0x1 PUSH1 0xA0 SHL SUB SWAP2 CALLER DUP4 DUP6 AND SUB PUSH2 0x304 JUMPI POP POP PUSH1 0x1 PUSH1 0x1 PUSH1 0xA0 SHL SUB NOT SWAP2 DUP3 AND PUSH1 0x1 SSTORE DUP3 SLOAD CALLER SWAP3 DUP2 AND DUP4 OR DUP5 SSTORE AND PUSH1 0x0 DUP1 MLOAD PUSH1 0x20 PUSH2 0x5FF DUP4 CODECOPY DUP2 MLOAD SWAP2 MSTORE DUP4 DUP1 LOG3 DUP1 RETURN JUMPDEST PUSH1 0x24 SWAP3 POP MLOAD SWAP1 PUSH4 0x118CDAA7 PUSH1 0xE0 SHL DUP3 MSTORE CALLER SWAP1 DUP3 ADD MSTORE REVERT JUMPDEST DUP4 CALLVALUE PUSH2 0x257 JUMPI DUP1 PUSH1 0x3 NOT CALLDATASIZE ADD SLT PUSH2 0x257 JUMPI PUSH2 0x334 PUSH2 0x5D2 JUMP JUMPDEST PUSH1 0x1 DUP1 SLOAD PUSH1 0x1 PUSH1 0x1 PUSH1 0xA0 SHL SUB NOT SWAP1 DUP2 AND SWAP1 SWAP2 SSTORE DUP2 SLOAD SWAP1 DUP2 AND DUP3 SSTORE DUP2 SWAP1 PUSH1 0x1 PUSH1 0x1 PUSH1 0xA0 SHL SUB AND PUSH1 0x0 DUP1 MLOAD PUSH1 0x20 PUSH2 0x5FF DUP4 CODECOPY DUP2 MLOAD SWAP2 MSTORE DUP3 DUP1 LOG3 DUP1 RETURN JUMPDEST SWAP2 SWAP1 POP CALLVALUE PUSH2 0xFD JUMPI DUP3 PUSH1 0x3 NOT CALLDATASIZE ADD SLT PUSH2 0xFD JUMPI SLOAD SWAP1 MLOAD PUSH1 0x1 PUSH1 0x1 PUSH1 0xA0 SHL SUB SWAP1 SWAP2 AND DUP2 MSTORE PUSH1 0x20 SWAP2 POP RETURN JUMPDEST SWAP1 POP CALLVALUE PUSH2 0xFD JUMPI DUP1 PUSH1 0x3 NOT CALLDATASIZE ADD SLT PUSH2 0xFD JUMPI DUP2 CALLDATALOAD SWAP1 PUSH1 0x1 PUSH1 0x1 PUSH1 0x40 SHL SUB SWAP1 DUP2 DUP4 GT PUSH2 0x559 JUMPI CALLDATASIZE PUSH1 0x23 DUP5 ADD SLT ISZERO PUSH2 0x559 JUMPI DUP3 DUP5 ADD CALLDATALOAD SWAP2 PUSH1 0x24 SWAP4 PUSH2 0x3D8 DUP5 PUSH2 0x5BB JUMP JUMPDEST SWAP1 PUSH2 0x3E5 DUP5 MLOAD SWAP3 DUP4 PUSH2 0x582 JUMP JUMPDEST DUP5 DUP3 MSTORE PUSH1 0x20 SWAP5 DUP7 DUP7 DUP5 ADD SWAP2 PUSH1 0x5 SHL DUP4 ADD ADD SWAP2 CALLDATASIZE DUP4 GT PUSH2 0x52E JUMPI DUP8 ADD SWAP1 JUMPDEST DUP3 DUP3 LT PUSH2 0x536 JUMPI POP POP POP DUP5 CALLDATALOAD SWAP2 DUP3 GT PUSH2 0x532 JUMPI CALLDATASIZE PUSH1 0x23 DUP4 ADD SLT ISZERO PUSH2 0x532 JUMPI DUP2 DUP7 ADD CALLDATALOAD SWAP2 PUSH2 0x42E DUP4 PUSH2 0x5BB JUMP JUMPDEST SWAP3 PUSH2 0x43B DUP6 MLOAD SWAP5 DUP6 PUSH2 0x582 JUMP JUMPDEST DUP1 DUP5 MSTORE DUP7 DUP7 DUP6 ADD SWAP2 PUSH1 0x5 SHL DUP4 ADD ADD SWAP2 CALLDATASIZE DUP4 GT PUSH2 0x52E JUMPI DUP8 DUP8 SWAP2 ADD SWAP2 JUMPDEST DUP4 DUP4 LT PUSH2 0x51E JUMPI POP POP POP POP PUSH1 0x2 DUP1 SLOAD EQ PUSH2 0x50E JUMPI PUSH1 0x2 DUP1 SSTORE PUSH2 0x477 PUSH2 0x5D2 JUMP JUMPDEST DUP1 MLOAD ISZERO DUP1 ISZERO PUSH2 0x505 JUMPI JUMPDEST PUSH2 0x4CC JUMPI MLOAD SWAP1 MLOAD SUB PUSH2 0x496 JUMPI DUP5 PUSH1 0x1 PUSH1 0x2 SSTORE DUP1 RETURN JUMPDEST MLOAD PUSH4 0x6E38EF5D PUSH1 0xE1 SHL DUP2 MSTORE SWAP3 DUP4 ADD MSTORE PUSH1 0x13 SWAP1 DUP3 ADD MSTORE PUSH19 0x496E636F6E73697374656E7420696E70757473 PUSH1 0x68 SHL PUSH1 0x44 DUP3 ADD MSTORE PUSH1 0x64 SWAP1 REVERT JUMPDEST DUP3 MLOAD PUSH4 0x6E38EF5D PUSH1 0xE1 SHL DUP2 MSTORE DUP1 DUP8 ADD DUP6 SWAP1 MSTORE PUSH1 0x13 DUP2 DUP8 ADD MSTORE PUSH19 0x496E76616C6964207573657220696E70757473 PUSH1 0x68 SHL PUSH1 0x44 DUP3 ADD MSTORE PUSH1 0x64 SWAP1 REVERT JUMPDEST POP DUP2 MLOAD ISZERO PUSH2 0x481 JUMP JUMPDEST DUP3 MLOAD PUSH4 0x3EE5AEB5 PUSH1 0xE0 SHL DUP2 MSTORE DUP7 SWAP1 REVERT JUMPDEST DUP3 CALLDATALOAD DUP2 MSTORE SWAP2 DUP2 ADD SWAP2 DUP8 SWAP2 ADD PUSH2 0x457 JUMP JUMPDEST DUP10 DUP1 REVERT JUMPDEST DUP7 DUP1 REVERT JUMPDEST DUP2 CALLDATALOAD PUSH1 0x1 PUSH1 0x1 PUSH1 0xA0 SHL SUB DUP2 AND DUP2 SUB PUSH2 0x555 JUMPI DUP2 MSTORE SWAP1 DUP7 ADD SWAP1 DUP7 ADD PUSH2 0x402 JUMP JUMPDEST DUP11 DUP1 REVERT JUMPDEST DUP5 DUP1 REVERT JUMPDEST DUP5 SWAP1 CALLVALUE PUSH2 0x101 JUMPI DUP2 PUSH1 0x3 NOT CALLDATASIZE ADD SLT PUSH2 0x101 JUMPI PUSH1 0x3 SLOAD PUSH1 0x1 PUSH1 0x1 PUSH1 0xA0 SHL SUB AND DUP2 MSTORE PUSH1 0x20 SWAP1 RETURN JUMPDEST PUSH1 0x1F SWAP1 SWAP2 ADD PUSH1 0x1F NOT AND DUP2 ADD SWAP1 PUSH1 0x1 PUSH1 0x1 PUSH1 0x40 SHL SUB DUP3 GT SWAP1 DUP3 LT OR PUSH2 0x5A5 JUMPI PUSH1 0x40 MSTORE JUMP JUMPDEST PUSH4 0x4E487B71 PUSH1 0xE0 SHL PUSH1 0x0 MSTORE PUSH1 0x41 PUSH1 0x4 MSTORE PUSH1 0x24 PUSH1 0x0 REVERT JUMPDEST PUSH1 0x1 PUSH1 0x1 PUSH1 0x40 SHL SUB DUP2 GT PUSH2 0x5A5 JUMPI PUSH1 0x5 SHL PUSH1 0x20 ADD SWAP1 JUMP JUMPDEST PUSH1 0x0 SLOAD PUSH1 0x1 PUSH1 0x1 PUSH1 0xA0 SHL SUB AND CALLER SUB PUSH2 0x5E6 JUMPI JUMP JUMPDEST PUSH1 0x40 MLOAD PUSH4 0x118CDAA7 PUSH1 0xE0 SHL DUP2 MSTORE CALLER PUSH1 0x4 DUP3 ADD MSTORE PUSH1 0x24 SWAP1 REVERT INVALID DUP12 0xE0 SMOD SWAP13 MSTORE8 AND MSIZE EQ SGT PREVRANDAO 0xCD 0x1F 0xD0 LOG4 CALLCODE DUP5 NOT BLOBHASH PUSH32 0x9722A3DAAFE3B4186F6B6457E0A264697066735822122046A6D2AEA31DDC0F90 PUSH16 0xED316CA1BF580342948804587428FD74 0xD1 EXP SLOAD DUP4 0xDE LOG3 PUSH5 0x736F6C6343 STOP ADDMOD XOR STOP CALLER "},"methodIdentifiers":{"acceptOwnership()":"79ba5097","backendDigest()":"e2c76012","executeBurnerTransaction(address[],uint256[])":"5e6f0419","mediator()":"6d0501f6","owner()":"8da5cb5b","pendingOwner()":"e30c3978","renounceOwnership()":"715018a6","stableCoin()":"992642e5","transferOwnership(address)":"f2fde38b","walletOwner()":"1ae879e8"}},"storageLayout":{"storage":[{"astId":965,"contract":"src/L3Contracts/BurnerWallet.sol:BurnerWallet","label":"_owner","offset":0,"slot":"0","type":"t_address"},{"astId":1113,"contract":"src/L3Contracts/BurnerWallet.sol:BurnerWallet","label":"_pendingOwner","offset":0,"slot":"1","type":"t_address"},{"astId":3158,"contract":"src/L3Contracts/BurnerWallet.sol:BurnerWallet","label":"_status","offset":0,"slot":"2","type":"t_uint256"},{"astId":3680,"contract":"src/L3Contracts/BurnerWallet.sol:BurnerWallet","label":"walletOwner","offset":0,"slot":"3","type":"t_address"},{"astId":3682,"contract":"src/L3Contracts/BurnerWallet.sol:BurnerWallet","label":"mediator","offset":0,"slot":"4","type":"t_address"},{"astId":3684,"contract":"src/L3Contracts/BurnerWallet.sol:BurnerWallet","label":"backendDigest","offset":0,"slot":"5","type":"t_string_storage"},{"astId":3687,"contract":"src/L3Contracts/BurnerWallet.sol:BurnerWallet","label":"stableCoin","offset":0,"slot":"6","type":"t_contract(IERC20)2345"}],"types":{"t_address":{"encoding":"inplace","label":"address","numberOfBytes":"20"},"t_contract(IERC20)2345":{"encoding":"inplace","label":"contract IERC20","numberOfBytes":"20"},"t_string_storage":{"encoding":"bytes","label":"string","numberOfBytes":"32"},"t_uint256":{"encoding":"inplace","label":"uint256","numberOfBytes":"32"}}}}}}