{"src/L2Contracts/Dealer.sol":{"Dealer":{"abi":[{"inputs":[{"internalType":"address","name":"target","type":"address"}],"name":"AddressEmptyCode","type":"error"},{"inputs":[{"internalType":"string","name":"reason","type":"string"}],"name":"AuthenticationFailed","type":"error"},{"inputs":[{"internalType":"address","name":"implementation","type":"address"}],"name":"ERC1967InvalidImplementation","type":"error"},{"inputs":[],"name":"ERC1967NonPayable","type":"error"},{"inputs":[],"name":"FailedCall","type":"error"},{"inputs":[{"internalType":"string","name":"reason","type":"string"}],"name":"InvalidChainId","type":"error"},{"inputs":[],"name":"InvalidImplementation","type":"error"},{"inputs":[],"name":"InvalidInitialization","type":"error"},{"inputs":[{"internalType":"string","name":"reason","type":"string"}],"name":"InvalidInteraction","type":"error"},{"inputs":[],"name":"NotInitializing","type":"error"},{"inputs":[{"internalType":"address","name":"owner","type":"address"}],"name":"OwnableInvalidOwner","type":"error"},{"inputs":[{"internalType":"address","name":"account","type":"address"}],"name":"OwnableUnauthorizedAccount","type":"error"},{"inputs":[],"name":"ReentrancyGuardReentrantCall","type":"error"},{"inputs":[],"name":"UUPSUnauthorizedCallContext","type":"error"},{"inputs":[{"internalType":"bytes32","name":"slot","type":"bytes32"}],"name":"UUPSUnsupportedProxiableUUID","type":"error"},{"anonymous":false,"inputs":[{"indexed":false,"internalType":"uint256","name":"_amount","type":"uint256"}],"name":"FundsTransferredToMediator","type":"event"},{"anonymous":false,"inputs":[{"indexed":false,"internalType":"uint64","name":"version","type":"uint64"}],"name":"Initialized","type":"event"},{"anonymous":false,"inputs":[{"indexed":true,"internalType":"string","name":"_backendDigest","type":"string"},{"indexed":false,"internalType":"bytes32","name":"_jobDigest","type":"bytes32"},{"indexed":true,"internalType":"uint256","name":"_chainId","type":"uint256"},{"indexed":false,"internalType":"address","name":"_jobCreator","type":"address"}],"name":"L3Interaction","type":"event"},{"anonymous":false,"inputs":[{"indexed":false,"internalType":"bytes32","name":"_jobId","type":"bytes32"}],"name":"L3JobCompleted","type":"event"},{"anonymous":false,"inputs":[{"indexed":true,"internalType":"address","name":"previousOwner","type":"address"},{"indexed":true,"internalType":"address","name":"newOwner","type":"address"}],"name":"OwnershipTransferStarted","type":"event"},{"anonymous":false,"inputs":[{"indexed":true,"internalType":"address","name":"previousOwner","type":"address"},{"indexed":true,"internalType":"address","name":"newOwner","type":"address"}],"name":"OwnershipTransferred","type":"event"},{"anonymous":false,"inputs":[{"indexed":true,"internalType":"address","name":"implementation","type":"address"}],"name":"Upgraded","type":"event"},{"inputs":[],"name":"UPGRADE_INTERFACE_VERSION","outputs":[{"internalType":"string","name":"","type":"string"}],"stateMutability":"view","type":"function"},{"inputs":[],"name":"acceptOwnership","outputs":[],"stateMutability":"nonpayable","type":"function"},{"inputs":[{"internalType":"string","name":"_backendDigest","type":"string"},{"internalType":"uint256","name":"_privateChainId","type":"uint256"},{"internalType":"uint256","name":"_totalAmount","type":"uint256"}],"name":"depositAndExec","outputs":[],"stateMutability":"payable","type":"function"},{"inputs":[{"internalType":"address","name":"_creator","type":"address"}],"name":"getJobDetails","outputs":[{"components":[{"internalType":"enum IDealer.JobStatus","name":"status","type":"uint8"},{"internalType":"bytes32","name":"digest","type":"bytes32"},{"internalType":"uint256","name":"value","type":"uint256"}],"internalType":"struct IDealer.Job","name":"","type":"tuple"}],"stateMutability":"view","type":"function"},{"inputs":[{"internalType":"address","name":"_mediator","type":"address"},{"internalType":"address","name":"_stableCoin","type":"address"}],"name":"initialize","outputs":[],"stateMutability":"nonpayable","type":"function"},{"inputs":[],"name":"mediator","outputs":[{"internalType":"address","name":"","type":"address"}],"stateMutability":"view","type":"function"},{"inputs":[],"name":"owner","outputs":[{"internalType":"address","name":"","type":"address"}],"stateMutability":"view","type":"function"},{"inputs":[],"name":"pendingOwner","outputs":[{"internalType":"address","name":"","type":"address"}],"stateMutability":"view","type":"function"},{"inputs":[{"internalType":"address","name":"_jobCreator","type":"address"}],"name":"postOpsUpdate","outputs":[],"stateMutability":"nonpayable","type":"function"},{"inputs":[],"name":"proxiableUUID","outputs":[{"internalType":"bytes32","name":"","type":"bytes32"}],"stateMutability":"view","type":"function"},{"inputs":[],"name":"renounceOwnership","outputs":[],"stateMutability":"nonpayable","type":"function"},{"inputs":[],"name":"stableCoin","outputs":[{"internalType":"contract IERC20","name":"","type":"address"}],"stateMutability":"view","type":"function"},{"inputs":[{"internalType":"address","name":"newOwner","type":"address"}],"name":"transferOwnership","outputs":[],"stateMutability":"nonpayable","type":"function"},{"inputs":[{"internalType":"address","name":"_jobCreator","type":"address"}],"name":"transferToWhisperRouter","outputs":[],"stateMutability":"nonpayable","type":"function"},{"inputs":[{"internalType":"address","name":"newImplementation","type":"address"},{"internalType":"bytes","name":"data","type":"bytes"}],"name":"upgradeToAndCall","outputs":[],"stateMutability":"payable","type":"function"}],"evm":{"bytecode":{"linkReferences":{},"object":"60a0806040523461002a57306080526110aa9081610030823960805181818161084a0152610e640152f35b600080fdfe60406080815260048036101561001457600080fd5b600091823560e01c9182632eb5b98b14610cb1578263485cc95514610aa45782634f1ef2861461089c57826352d1902d146108355782636d0501f61461080d578263715018a61461079e57826377924d1f1461063257826379ba5097146105db5782638da5cb5b146105a5578263924b5a7914610304578263992642e5146102db578263ad3cb1cc14610238578263b18008d21461018c57508163e30c397814610152575063f2fde38b146100c857600080fd5b3461014f57602036600319011261014f576100e1610d50565b6100e9610e21565b60008051602061105583398151915280546001600160a01b0319166001600160a01b03928316908117909155600080516020610fb5833981519152549091167f38d16b8cac22d99fc7c124b9cd0de2d3fa1faef420bfe791d8c362d765e227008380a380f35b80fd5b9050346101885781600319360112610188576000805160206110558339815191525490516001600160a01b039091168152602090f35b5080fd5b838234610188576020366003190112610188576101a7610d50565b828280516101b481610d6b565b828152826020820152015260018060a01b031682526001602052808220918151926101de84610d6b565b6101ec60ff82541685610dff565b60026001820154916020860192835201549183850192835283519451908682101561022557506060955084525160208401525190820152f35b634e487b7160e01b815260218752602490fd5b909150346102d757826003193601126102d757815190818301906001600160401b038211838310176102c45750825260058152602090640352e302e360dc1b6020820152825193849260208452825192836020860152825b8481106102ae57505050828201840152601f01601f19168101030190f35b8181018301518882018801528795508201610290565b634e487b7160e01b855260419052602484fd5b8280fd5b83823461018857816003193601126101885760035490516001600160a01b039091168152602090f35b839060603660031901126101885780356001600160401b038082116105a157366023830112156105a157818301359081116105a157602490818301928282369201011161059d578135926044359460008051602061101583398151915295600287541461058e5760028755851561055957801561051f578034036104eb57338852600160205260ff8989205416828110156104d95760011461049a5788866103de60a060025484519384918760208401978c8c8a378c85019360208501528301524260608301526080820152036080810184520182610d9c565b519020948951926103ee84610d6b565b6001845260208401918783528b8501938452338b5260016020528b8b20945191808310156104895750506001999a94927fc13f52053f98cf2f818b8faecad9f3d5dbb36bda088ca07107d5aa135932aa8896949260029260ff80198654169116178455518b84015551910155610465600254610dda565b60025581835192839283378101898152039020928151908152336020820152a35580f35b634e487b7160e01b8c52602190528afd5b8851636e38ef5d60e11b815260208184015260198187015278141c995d9a5bdd5cc8129bd888139bdd08199a5b9a5cda1959603a1b6044820152606490fd5b634e487b7160e01b8952602183528589fd5b8851636e38ef5d60e11b8152602081840152600e818701526d08ceadcc8e640dad2e6dac2e8c6d60931b6044820152606490fd5b8851636e38ef5d60e11b815260208184015260148187015273125b9d985b1a5908125b9c1d5d08105b5bdd5b9d60621b6044820152606490fd5b88516305c57e8360e01b8152602081840152600f818701526e125b9d985b1a590810da185a5b9259608a1b6044820152606490fd5b508751633ee5aeb560e01b8152fd5b8480fd5b8380fd5b838234610188578160031936011261018857600080516020610fb58339815191525490516001600160a01b039091168152602090f35b9150346102d757826003193601126102d75760008051602061105583398151915254336001600160a01b039091160361061b578261061833610ec6565b80f35b60249250519063118cdaa760e01b82523390820152fd5b909150346102d75760203660031901126102d75761064e610d50565b610656610e21565b6001600160a01b03908116845260016020528284208351929060029061067b85610d6b565b61068960ff82541686610dff565b6001810154602086015201549284810193845280518281101561078b57600214908115610764575b506107135750838080809381541685519082821561070a575bf1156106ff577f7c834a8a637af7c8ad16699142b1a7b82ff8ac97de948638b65a6c9458228e9091602091519051908152a180f35b5051903d90823e3d90fd5b506108fc6106ca565b8351636e38ef5d60e11b815290819061076090820160609060208152601e60208201527f4e6f206c617465737420696e746572616374696f6e207265717569726564000060408201520190565b0390fd5b9050518181101561077857600314386106b1565b634e487b7160e01b865260218252602486fd5b634e487b7160e01b875260218352602487fd5b833461014f578060031936011261014f576107b7610e21565b60008051602061105583398151915280546001600160a01b0319908116909155600080516020610fb58339815191528054918216905581906001600160a01b0316600080516020610ff58339815191528280a380f35b838234610188578160031936011261018857905490516001600160a01b039091168152602090f35b90833461014f578060031936011261014f57507f00000000000000000000000000000000000000000000000000000000000000006001600160a01b0316300361088f5760209051600080516020610fd58339815191528152f35b5163703e46dd60e11b8152fd5b9150806003193601126102d7576108b1610d50565b60249390919084356001600160401b038111610188573660238201121561018857808501356108df81610dbf565b946108ec85519687610d9c565b81865260209182870193368a8383010111610aa0578186928b869301873788010152610916610e5a565b61091e610e21565b803b15610a905784516352d1902d60e01b81526001600160a01b038216969083818a818b5afa869181610a5d575b50610968575050505050505191634c9c8ce360e01b8352820152fd5b9088888894938c600080516020610fd583398151915291828103610a485750853b15610a34575080546001600160a01b031916821790558451889392917fbc7cd75a20ee27fd9adebab32041f755214dbc6bffa90cc0225b39da2e5c2d3b8580a2825115610a16575050610a089582915190845af4913d15610a0c573d6109fa6109f182610dbf565b92519283610d9c565b81528581943d92013e610f51565b5080f35b5060609250610f51565b955095505050505034610a2857505080f35b63b398979f60e01b8152fd5b8651634c9c8ce360e01b8152808501849052fd5b8751632a87526960e21b815280860191909152fd5b9091508481813d8311610a89575b610a758183610d9c565b81010312610a855751903861094c565b8680fd5b503d610a6b565b845163340aafcd60e11b81528790fd5b8580fd5b909150346102d757816003193601126102d757610abf610d50565b6001600160a01b03916024358381169190829003610aa0576000805160206110358339815191528054909481871c60ff16159490916001600160401b03811680159081610ca9575b6001149081610c9f575b159081610c96575b50610c86576001600160401b03198116600117875585610c6b575b50610b3d610e5a565b610b45610f22565b610b4d610f22565b610b55610f22565b610b5d610f22565b3315610c5457610b6c33610ec6565b610b74610f22565b610b7c610f22565b600160008051602061101583398151915255169081158015610c4c575b610c08575060018060a01b031990818754161786556003541617600355610bc1600254610dda565b600255610bcc578280f35b805460ff60401b1916905551600181527fc7f505b2f371ae2175ee4913f4499e1f2633a7b5936321eed1cdaeb6115181d290602090a138808280f35b6064906020875191636e38ef5d60e11b8352820152601d60248201527f5a65726f20616464726573732063616e6e6f74206265207061737365640000006044820152fd5b508215610b99565b8651631e4fbdf760e01b8152808401899052602490fd5b6001600160481b0319166001600160401b0117865538610b34565b875163f92ee8a960e01b81528490fd5b90501538610b19565b303b159150610b11565b879150610b07565b909150346102d75760203660031901126102d757610ccd610d50565b610cd5610e21565b6001600160a01b0316835260016020528183208054909160ff8216818110156107785760028114908115610d45575b50610713575060ff191660021781556001015490519081527fe9adb25745b994166e7820b9542cf7115917437938b5197b0964875dd138ff3790602090a180f35b600391501438610d04565b600435906001600160a01b0382168203610d6657565b600080fd5b606081019081106001600160401b03821117610d8657604052565b634e487b7160e01b600052604160045260246000fd5b601f909101601f19168101906001600160401b03821190821017610d8657604052565b6001600160401b038111610d8657601f01601f191660200190565b6000198114610de95760010190565b634e487b7160e01b600052601160045260246000fd5b6004821015610e0b5752565b634e487b7160e01b600052602160045260246000fd5b600080516020610fb5833981519152546001600160a01b03163303610e4257565b60405163118cdaa760e01b8152336004820152602490fd5b6001600160a01b037f00000000000000000000000000000000000000000000000000000000000000008116308114918215610eaa575b5050610e9857565b60405163703e46dd60e11b8152600490fd5b600080516020610fd58339815191525416141590503880610e90565b60008051602061105583398151915280546001600160a01b0319908116909155600080516020610fb583398151915280549182166001600160a01b039384169081179091559116600080516020610ff5833981519152600080a3565b60ff6000805160206110358339815191525460401c1615610f3f57565b604051631afcd79f60e31b8152600490fd5b90610f785750805115610f6657602081519101fd5b60405163d6bda27560e01b8152600490fd5b81511580610fab575b610f89575090565b604051639996b31560e01b81526001600160a01b039091166004820152602490fd5b50803b15610f8156fe9016d09d72d40fdae2fd8ceac6b6234c7706214fd39c1cd1e609a0528c199300360894a13ba1a3210667c828492db98dca3e2076cc3735a920a3ca505d382bbc8be0079c531659141344cd1fd0a4f28419497f9722a3daafe3b4186f6b6457e09b779b17422d0df92223018b32b4d1fa46e071723d6817e2486d003becc55f00f0c57e16840df040f15088dc2f81fe391c3923bec73e23a9662efc9c229c6a00237e158222e3e6968b72b9db0d8043aacf074ad9f650f0d1606b4d82ee432c00a26469706673582212200299b3c739c56cc3734ee92239556c2ef9609bf58e925b586ce2ed3a1593d02e64736f6c63430008180033","opcodes":"PUSH1 0xA0 DUP1 PUSH1 0x40 MSTORE CALLVALUE PUSH2 0x2A JUMPI ADDRESS PUSH1 0x80 MSTORE PUSH2 0x10AA SWAP1 DUP2 PUSH2 0x30 DUP3 CODECOPY PUSH1 0x80 MLOAD DUP2 DUP2 DUP2 PUSH2 0x84A ADD MSTORE PUSH2 0xE64 ADD MSTORE RETURN JUMPDEST PUSH1 0x0 DUP1 REVERT INVALID PUSH1 0x40 PUSH1 0x80 DUP2 MSTORE PUSH1 0x4 DUP1 CALLDATASIZE LT ISZERO PUSH2 0x14 JUMPI PUSH1 0x0 DUP1 REVERT JUMPDEST PUSH1 0x0 SWAP2 DUP3 CALLDATALOAD PUSH1 0xE0 SHR SWAP2 DUP3 PUSH4 0x2EB5B98B EQ PUSH2 0xCB1 JUMPI DUP3 PUSH4 0x485CC955 EQ PUSH2 0xAA4 JUMPI DUP3 PUSH4 0x4F1EF286 EQ PUSH2 0x89C JUMPI DUP3 PUSH4 0x52D1902D EQ PUSH2 0x835 JUMPI DUP3 PUSH4 0x6D0501F6 EQ PUSH2 0x80D JUMPI DUP3 PUSH4 0x715018A6 EQ PUSH2 0x79E JUMPI DUP3 PUSH4 0x77924D1F EQ PUSH2 0x632 JUMPI DUP3 PUSH4 0x79BA5097 EQ PUSH2 0x5DB JUMPI DUP3 PUSH4 0x8DA5CB5B EQ PUSH2 0x5A5 JUMPI DUP3 PUSH4 0x924B5A79 EQ PUSH2 0x304 JUMPI DUP3 PUSH4 0x992642E5 EQ PUSH2 0x2DB JUMPI DUP3 PUSH4 0xAD3CB1CC EQ PUSH2 0x238 JUMPI DUP3 PUSH4 0xB18008D2 EQ PUSH2 0x18C JUMPI POP DUP2 PUSH4 0xE30C3978 EQ PUSH2 0x152 JUMPI POP PUSH4 0xF2FDE38B EQ PUSH2 0xC8 JUMPI PUSH1 0x0 DUP1 REVERT JUMPDEST CALLVALUE PUSH2 0x14F JUMPI PUSH1 0x20 CALLDATASIZE PUSH1 0x3 NOT ADD SLT PUSH2 0x14F JUMPI PUSH2 0xE1 PUSH2 0xD50 JUMP JUMPDEST PUSH2 0xE9 PUSH2 0xE21 JUMP JUMPDEST PUSH1 0x0 DUP1 MLOAD PUSH1 0x20 PUSH2 0x1055 DUP4 CODECOPY DUP2 MLOAD SWAP2 MSTORE DUP1 SLOAD PUSH1 0x1 PUSH1 0x1 PUSH1 0xA0 SHL SUB NOT AND PUSH1 0x1 PUSH1 0x1 PUSH1 0xA0 SHL SUB SWAP3 DUP4 AND SWAP1 DUP2 OR SWAP1 SWAP2 SSTORE PUSH1 0x0 DUP1 MLOAD PUSH1 0x20 PUSH2 0xFB5 DUP4 CODECOPY DUP2 MLOAD SWAP2 MSTORE SLOAD SWAP1 SWAP2 AND PUSH32 0x38D16B8CAC22D99FC7C124B9CD0DE2D3FA1FAEF420BFE791D8C362D765E22700 DUP4 DUP1 LOG3 DUP1 RETURN JUMPDEST DUP1 REVERT JUMPDEST SWAP1 POP CALLVALUE PUSH2 0x188 JUMPI DUP2 PUSH1 0x3 NOT CALLDATASIZE ADD SLT PUSH2 0x188 JUMPI PUSH1 0x0 DUP1 MLOAD PUSH1 0x20 PUSH2 0x1055 DUP4 CODECOPY DUP2 MLOAD SWAP2 MSTORE SLOAD SWAP1 MLOAD PUSH1 0x1 PUSH1 0x1 PUSH1 0xA0 SHL SUB SWAP1 SWAP2 AND DUP2 MSTORE PUSH1 0x20 SWAP1 RETURN JUMPDEST POP DUP1 REVERT JUMPDEST DUP4 DUP3 CALLVALUE PUSH2 0x188 JUMPI PUSH1 0x20 CALLDATASIZE PUSH1 0x3 NOT ADD SLT PUSH2 0x188 JUMPI PUSH2 0x1A7 PUSH2 0xD50 JUMP JUMPDEST DUP3 DUP3 DUP1 MLOAD PUSH2 0x1B4 DUP2 PUSH2 0xD6B JUMP JUMPDEST DUP3 DUP2 MSTORE DUP3 PUSH1 0x20 DUP3 ADD MSTORE ADD MSTORE PUSH1 0x1 DUP1 PUSH1 0xA0 SHL SUB AND DUP3 MSTORE PUSH1 0x1 PUSH1 0x20 MSTORE DUP1 DUP3 KECCAK256 SWAP2 DUP2 MLOAD SWAP3 PUSH2 0x1DE DUP5 PUSH2 0xD6B JUMP JUMPDEST PUSH2 0x1EC PUSH1 0xFF DUP3 SLOAD AND DUP6 PUSH2 0xDFF JUMP JUMPDEST PUSH1 0x2 PUSH1 0x1 DUP3 ADD SLOAD SWAP2 PUSH1 0x20 DUP7 ADD SWAP3 DUP4 MSTORE ADD SLOAD SWAP2 DUP4 DUP6 ADD SWAP3 DUP4 MSTORE DUP4 MLOAD SWAP5 MLOAD SWAP1 DUP7 DUP3 LT ISZERO PUSH2 0x225 JUMPI POP PUSH1 0x60 SWAP6 POP DUP5 MSTORE MLOAD PUSH1 0x20 DUP5 ADD MSTORE MLOAD SWAP1 DUP3 ADD MSTORE RETURN JUMPDEST PUSH4 0x4E487B71 PUSH1 0xE0 SHL DUP2 MSTORE PUSH1 0x21 DUP8 MSTORE PUSH1 0x24 SWAP1 REVERT JUMPDEST SWAP1 SWAP2 POP CALLVALUE PUSH2 0x2D7 JUMPI DUP3 PUSH1 0x3 NOT CALLDATASIZE ADD SLT PUSH2 0x2D7 JUMPI DUP2 MLOAD SWAP1 DUP2 DUP4 ADD SWAP1 PUSH1 0x1 PUSH1 0x1 PUSH1 0x40 SHL SUB DUP3 GT DUP4 DUP4 LT OR PUSH2 0x2C4 JUMPI POP DUP3 MSTORE PUSH1 0x5 DUP2 MSTORE PUSH1 0x20 SWAP1 PUSH5 0x352E302E3 PUSH1 0xDC SHL PUSH1 0x20 DUP3 ADD MSTORE DUP3 MLOAD SWAP4 DUP5 SWAP3 PUSH1 0x20 DUP5 MSTORE DUP3 MLOAD SWAP3 DUP4 PUSH1 0x20 DUP7 ADD MSTORE DUP3 JUMPDEST DUP5 DUP2 LT PUSH2 0x2AE JUMPI POP POP POP DUP3 DUP3 ADD DUP5 ADD MSTORE PUSH1 0x1F ADD PUSH1 0x1F NOT AND DUP2 ADD SUB ADD SWAP1 RETURN JUMPDEST DUP2 DUP2 ADD DUP4 ADD MLOAD DUP9 DUP3 ADD DUP9 ADD MSTORE DUP8 SWAP6 POP DUP3 ADD PUSH2 0x290 JUMP JUMPDEST PUSH4 0x4E487B71 PUSH1 0xE0 SHL DUP6 MSTORE PUSH1 0x41 SWAP1 MSTORE PUSH1 0x24 DUP5 REVERT JUMPDEST DUP3 DUP1 REVERT JUMPDEST DUP4 DUP3 CALLVALUE PUSH2 0x188 JUMPI DUP2 PUSH1 0x3 NOT CALLDATASIZE ADD SLT PUSH2 0x188 JUMPI PUSH1 0x3 SLOAD SWAP1 MLOAD PUSH1 0x1 PUSH1 0x1 PUSH1 0xA0 SHL SUB SWAP1 SWAP2 AND DUP2 MSTORE PUSH1 0x20 SWAP1 RETURN JUMPDEST DUP4 SWAP1 PUSH1 0x60 CALLDATASIZE PUSH1 0x3 NOT ADD SLT PUSH2 0x188 JUMPI DUP1 CALLDATALOAD PUSH1 0x1 PUSH1 0x1 PUSH1 0x40 SHL SUB DUP1 DUP3 GT PUSH2 0x5A1 JUMPI CALLDATASIZE PUSH1 0x23 DUP4 ADD SLT ISZERO PUSH2 0x5A1 JUMPI DUP2 DUP4 ADD CALLDATALOAD SWAP1 DUP2 GT PUSH2 0x5A1 JUMPI PUSH1 0x24 SWAP1 DUP2 DUP4 ADD SWAP3 DUP3 DUP3 CALLDATASIZE SWAP3 ADD ADD GT PUSH2 0x59D JUMPI DUP2 CALLDATALOAD SWAP3 PUSH1 0x44 CALLDATALOAD SWAP5 PUSH1 0x0 DUP1 MLOAD PUSH1 0x20 PUSH2 0x1015 DUP4 CODECOPY DUP2 MLOAD SWAP2 MSTORE SWAP6 PUSH1 0x2 DUP8 SLOAD EQ PUSH2 0x58E JUMPI PUSH1 0x2 DUP8 SSTORE DUP6 ISZERO PUSH2 0x559 JUMPI DUP1 ISZERO PUSH2 0x51F JUMPI DUP1 CALLVALUE SUB PUSH2 0x4EB JUMPI CALLER DUP9 MSTORE PUSH1 0x1 PUSH1 0x20 MSTORE PUSH1 0xFF DUP10 DUP10 KECCAK256 SLOAD AND DUP3 DUP2 LT ISZERO PUSH2 0x4D9 JUMPI PUSH1 0x1 EQ PUSH2 0x49A JUMPI DUP9 DUP7 PUSH2 0x3DE PUSH1 0xA0 PUSH1 0x2 SLOAD DUP5 MLOAD SWAP4 DUP5 SWAP2 DUP8 PUSH1 0x20 DUP5 ADD SWAP8 DUP13 DUP13 DUP11 CALLDATACOPY DUP13 DUP6 ADD SWAP4 PUSH1 0x20 DUP6 ADD MSTORE DUP4 ADD MSTORE TIMESTAMP PUSH1 0x60 DUP4 ADD MSTORE PUSH1 0x80 DUP3 ADD MSTORE SUB PUSH1 0x80 DUP2 ADD DUP5 MSTORE ADD DUP3 PUSH2 0xD9C JUMP JUMPDEST MLOAD SWAP1 KECCAK256 SWAP5 DUP10 MLOAD SWAP3 PUSH2 0x3EE DUP5 PUSH2 0xD6B JUMP JUMPDEST PUSH1 0x1 DUP5 MSTORE PUSH1 0x20 DUP5 ADD SWAP2 DUP8 DUP4 MSTORE DUP12 DUP6 ADD SWAP4 DUP5 MSTORE CALLER DUP12 MSTORE PUSH1 0x1 PUSH1 0x20 MSTORE DUP12 DUP12 KECCAK256 SWAP5 MLOAD SWAP2 DUP1 DUP4 LT ISZERO PUSH2 0x489 JUMPI POP POP PUSH1 0x1 SWAP10 SWAP11 SWAP5 SWAP3 PUSH32 0xC13F52053F98CF2F818B8FAECAD9F3D5DBB36BDA088CA07107D5AA135932AA88 SWAP7 SWAP5 SWAP3 PUSH1 0x2 SWAP3 PUSH1 0xFF DUP1 NOT DUP7 SLOAD AND SWAP2 AND OR DUP5 SSTORE MLOAD DUP12 DUP5 ADD SSTORE MLOAD SWAP2 ADD SSTORE PUSH2 0x465 PUSH1 0x2 SLOAD PUSH2 0xDDA JUMP JUMPDEST PUSH1 0x2 SSTORE DUP2 DUP4 MLOAD SWAP3 DUP4 SWAP3 DUP4 CALLDATACOPY DUP2 ADD DUP10 DUP2 MSTORE SUB SWAP1 KECCAK256 SWAP3 DUP2 MLOAD SWAP1 DUP2 MSTORE CALLER PUSH1 0x20 DUP3 ADD MSTORE LOG3 SSTORE DUP1 RETURN JUMPDEST PUSH4 0x4E487B71 PUSH1 0xE0 SHL DUP13 MSTORE PUSH1 0x21 SWAP1 MSTORE DUP11 REVERT JUMPDEST DUP9 MLOAD PUSH4 0x6E38EF5D PUSH1 0xE1 SHL DUP2 MSTORE PUSH1 0x20 DUP2 DUP5 ADD MSTORE PUSH1 0x19 DUP2 DUP8 ADD MSTORE PUSH25 0x141C995D9A5BDD5CC8129BD888139BDD08199A5B9A5CDA1959 PUSH1 0x3A SHL PUSH1 0x44 DUP3 ADD MSTORE PUSH1 0x64 SWAP1 REVERT JUMPDEST PUSH4 0x4E487B71 PUSH1 0xE0 SHL DUP10 MSTORE PUSH1 0x21 DUP4 MSTORE DUP6 DUP10 REVERT JUMPDEST DUP9 MLOAD PUSH4 0x6E38EF5D PUSH1 0xE1 SHL DUP2 MSTORE PUSH1 0x20 DUP2 DUP5 ADD MSTORE PUSH1 0xE DUP2 DUP8 ADD MSTORE PUSH14 0x8CEADCC8E640DAD2E6DAC2E8C6D PUSH1 0x93 SHL PUSH1 0x44 DUP3 ADD MSTORE PUSH1 0x64 SWAP1 REVERT JUMPDEST DUP9 MLOAD PUSH4 0x6E38EF5D PUSH1 0xE1 SHL DUP2 MSTORE PUSH1 0x20 DUP2 DUP5 ADD MSTORE PUSH1 0x14 DUP2 DUP8 ADD MSTORE PUSH20 0x125B9D985B1A5908125B9C1D5D08105B5BDD5B9D PUSH1 0x62 SHL PUSH1 0x44 DUP3 ADD MSTORE PUSH1 0x64 SWAP1 REVERT JUMPDEST DUP9 MLOAD PUSH4 0x5C57E83 PUSH1 0xE0 SHL DUP2 MSTORE PUSH1 0x20 DUP2 DUP5 ADD MSTORE PUSH1 0xF DUP2 DUP8 ADD MSTORE PUSH15 0x125B9D985B1A590810DA185A5B9259 PUSH1 0x8A SHL PUSH1 0x44 DUP3 ADD MSTORE PUSH1 0x64 SWAP1 REVERT JUMPDEST POP DUP8 MLOAD PUSH4 0x3EE5AEB5 PUSH1 0xE0 SHL DUP2 MSTORE REVERT JUMPDEST DUP5 DUP1 REVERT JUMPDEST DUP4 DUP1 REVERT JUMPDEST DUP4 DUP3 CALLVALUE PUSH2 0x188 JUMPI DUP2 PUSH1 0x3 NOT CALLDATASIZE ADD SLT PUSH2 0x188 JUMPI PUSH1 0x0 DUP1 MLOAD PUSH1 0x20 PUSH2 0xFB5 DUP4 CODECOPY DUP2 MLOAD SWAP2 MSTORE SLOAD SWAP1 MLOAD PUSH1 0x1 PUSH1 0x1 PUSH1 0xA0 SHL SUB SWAP1 SWAP2 AND DUP2 MSTORE PUSH1 0x20 SWAP1 RETURN JUMPDEST SWAP2 POP CALLVALUE PUSH2 0x2D7 JUMPI DUP3 PUSH1 0x3 NOT CALLDATASIZE ADD SLT PUSH2 0x2D7 JUMPI PUSH1 0x0 DUP1 MLOAD PUSH1 0x20 PUSH2 0x1055 DUP4 CODECOPY DUP2 MLOAD SWAP2 MSTORE SLOAD CALLER PUSH1 0x1 PUSH1 0x1 PUSH1 0xA0 SHL SUB SWAP1 SWAP2 AND SUB PUSH2 0x61B JUMPI DUP3 PUSH2 0x618 CALLER PUSH2 0xEC6 JUMP JUMPDEST DUP1 RETURN JUMPDEST PUSH1 0x24 SWAP3 POP MLOAD SWAP1 PUSH4 0x118CDAA7 PUSH1 0xE0 SHL DUP3 MSTORE CALLER SWAP1 DUP3 ADD MSTORE REVERT JUMPDEST SWAP1 SWAP2 POP CALLVALUE PUSH2 0x2D7 JUMPI PUSH1 0x20 CALLDATASIZE PUSH1 0x3 NOT ADD SLT PUSH2 0x2D7 JUMPI PUSH2 0x64E PUSH2 0xD50 JUMP JUMPDEST PUSH2 0x656 PUSH2 0xE21 JUMP JUMPDEST PUSH1 0x1 PUSH1 0x1 PUSH1 0xA0 SHL SUB SWAP1 DUP2 AND DUP5 MSTORE PUSH1 0x1 PUSH1 0x20 MSTORE DUP3 DUP5 KECCAK256 DUP4 MLOAD SWAP3 SWAP1 PUSH1 0x2 SWAP1 PUSH2 0x67B DUP6 PUSH2 0xD6B JUMP JUMPDEST PUSH2 0x689 PUSH1 0xFF DUP3 SLOAD AND DUP7 PUSH2 0xDFF JUMP JUMPDEST PUSH1 0x1 DUP2 ADD SLOAD PUSH1 0x20 DUP7 ADD MSTORE ADD SLOAD SWAP3 DUP5 DUP2 ADD SWAP4 DUP5 MSTORE DUP1 MLOAD DUP3 DUP2 LT ISZERO PUSH2 0x78B JUMPI PUSH1 0x2 EQ SWAP1 DUP2 ISZERO PUSH2 0x764 JUMPI JUMPDEST POP PUSH2 0x713 JUMPI POP DUP4 DUP1 DUP1 DUP1 SWAP4 DUP2 SLOAD AND DUP6 MLOAD SWAP1 DUP3 DUP3 ISZERO PUSH2 0x70A JUMPI JUMPDEST CALL ISZERO PUSH2 0x6FF JUMPI PUSH32 0x7C834A8A637AF7C8AD16699142B1A7B82FF8AC97DE948638B65A6C9458228E90 SWAP2 PUSH1 0x20 SWAP2 MLOAD SWAP1 MLOAD SWAP1 DUP2 MSTORE LOG1 DUP1 RETURN JUMPDEST POP MLOAD SWAP1 RETURNDATASIZE SWAP1 DUP3 RETURNDATACOPY RETURNDATASIZE SWAP1 REVERT JUMPDEST POP PUSH2 0x8FC PUSH2 0x6CA JUMP JUMPDEST DUP4 MLOAD PUSH4 0x6E38EF5D PUSH1 0xE1 SHL DUP2 MSTORE SWAP1 DUP2 SWAP1 PUSH2 0x760 SWAP1 DUP3 ADD PUSH1 0x60 SWAP1 PUSH1 0x20 DUP2 MSTORE PUSH1 0x1E PUSH1 0x20 DUP3 ADD MSTORE PUSH32 0x4E6F206C617465737420696E746572616374696F6E2072657175697265640000 PUSH1 0x40 DUP3 ADD MSTORE ADD SWAP1 JUMP JUMPDEST SUB SWAP1 REVERT JUMPDEST SWAP1 POP MLOAD DUP2 DUP2 LT ISZERO PUSH2 0x778 JUMPI PUSH1 0x3 EQ CODESIZE PUSH2 0x6B1 JUMP JUMPDEST PUSH4 0x4E487B71 PUSH1 0xE0 SHL DUP7 MSTORE PUSH1 0x21 DUP3 MSTORE PUSH1 0x24 DUP7 REVERT JUMPDEST PUSH4 0x4E487B71 PUSH1 0xE0 SHL DUP8 MSTORE PUSH1 0x21 DUP4 MSTORE PUSH1 0x24 DUP8 REVERT JUMPDEST DUP4 CALLVALUE PUSH2 0x14F JUMPI DUP1 PUSH1 0x3 NOT CALLDATASIZE ADD SLT PUSH2 0x14F JUMPI PUSH2 0x7B7 PUSH2 0xE21 JUMP JUMPDEST PUSH1 0x0 DUP1 MLOAD PUSH1 0x20 PUSH2 0x1055 DUP4 CODECOPY DUP2 MLOAD SWAP2 MSTORE DUP1 SLOAD PUSH1 0x1 PUSH1 0x1 PUSH1 0xA0 SHL SUB NOT SWAP1 DUP2 AND SWAP1 SWAP2 SSTORE PUSH1 0x0 DUP1 MLOAD PUSH1 0x20 PUSH2 0xFB5 DUP4 CODECOPY DUP2 MLOAD SWAP2 MSTORE DUP1 SLOAD SWAP2 DUP3 AND SWAP1 SSTORE DUP2 SWAP1 PUSH1 0x1 PUSH1 0x1 PUSH1 0xA0 SHL SUB AND PUSH1 0x0 DUP1 MLOAD PUSH1 0x20 PUSH2 0xFF5 DUP4 CODECOPY DUP2 MLOAD SWAP2 MSTORE DUP3 DUP1 LOG3 DUP1 RETURN JUMPDEST DUP4 DUP3 CALLVALUE PUSH2 0x188 JUMPI DUP2 PUSH1 0x3 NOT CALLDATASIZE ADD SLT PUSH2 0x188 JUMPI SWAP1 SLOAD SWAP1 MLOAD PUSH1 0x1 PUSH1 0x1 PUSH1 0xA0 SHL SUB SWAP1 SWAP2 AND DUP2 MSTORE PUSH1 0x20 SWAP1 RETURN JUMPDEST SWAP1 DUP4 CALLVALUE PUSH2 0x14F JUMPI DUP1 PUSH1 0x3 NOT CALLDATASIZE ADD SLT PUSH2 0x14F JUMPI POP PUSH32 0x0 PUSH1 0x1 PUSH1 0x1 PUSH1 0xA0 SHL SUB AND ADDRESS SUB PUSH2 0x88F JUMPI PUSH1 0x20 SWAP1 MLOAD PUSH1 0x0 DUP1 MLOAD PUSH1 0x20 PUSH2 0xFD5 DUP4 CODECOPY DUP2 MLOAD SWAP2 MSTORE DUP2 MSTORE RETURN JUMPDEST MLOAD PUSH4 0x703E46DD PUSH1 0xE1 SHL DUP2 MSTORE REVERT JUMPDEST SWAP2 POP DUP1 PUSH1 0x3 NOT CALLDATASIZE ADD SLT PUSH2 0x2D7 JUMPI PUSH2 0x8B1 PUSH2 0xD50 JUMP JUMPDEST PUSH1 0x24 SWAP4 SWAP1 SWAP2 SWAP1 DUP5 CALLDATALOAD PUSH1 0x1 PUSH1 0x1 PUSH1 0x40 SHL SUB DUP2 GT PUSH2 0x188 JUMPI CALLDATASIZE PUSH1 0x23 DUP3 ADD SLT ISZERO PUSH2 0x188 JUMPI DUP1 DUP6 ADD CALLDATALOAD PUSH2 0x8DF DUP2 PUSH2 0xDBF JUMP JUMPDEST SWAP5 PUSH2 0x8EC DUP6 MLOAD SWAP7 DUP8 PUSH2 0xD9C JUMP JUMPDEST DUP2 DUP7 MSTORE PUSH1 0x20 SWAP2 DUP3 DUP8 ADD SWAP4 CALLDATASIZE DUP11 DUP4 DUP4 ADD ADD GT PUSH2 0xAA0 JUMPI DUP2 DUP7 SWAP3 DUP12 DUP7 SWAP4 ADD DUP8 CALLDATACOPY DUP9 ADD ADD MSTORE PUSH2 0x916 PUSH2 0xE5A JUMP JUMPDEST PUSH2 0x91E PUSH2 0xE21 JUMP JUMPDEST DUP1 EXTCODESIZE ISZERO PUSH2 0xA90 JUMPI DUP5 MLOAD PUSH4 0x52D1902D PUSH1 0xE0 SHL DUP2 MSTORE PUSH1 0x1 PUSH1 0x1 PUSH1 0xA0 SHL SUB DUP3 AND SWAP7 SWAP1 DUP4 DUP2 DUP11 DUP2 DUP12 GAS STATICCALL DUP7 SWAP2 DUP2 PUSH2 0xA5D JUMPI JUMPDEST POP PUSH2 0x968 JUMPI POP POP POP POP POP POP MLOAD SWAP2 PUSH4 0x4C9C8CE3 PUSH1 0xE0 SHL DUP4 MSTORE DUP3 ADD MSTORE REVERT JUMPDEST SWAP1 DUP9 DUP9 DUP9 SWAP5 SWAP4 DUP13 PUSH1 0x0 DUP1 MLOAD PUSH1 0x20 PUSH2 0xFD5 DUP4 CODECOPY DUP2 MLOAD SWAP2 MSTORE SWAP2 DUP3 DUP2 SUB PUSH2 0xA48 JUMPI POP DUP6 EXTCODESIZE ISZERO PUSH2 0xA34 JUMPI POP DUP1 SLOAD PUSH1 0x1 PUSH1 0x1 PUSH1 0xA0 SHL SUB NOT AND DUP3 OR SWAP1 SSTORE DUP5 MLOAD DUP9 SWAP4 SWAP3 SWAP2 PUSH32 0xBC7CD75A20EE27FD9ADEBAB32041F755214DBC6BFFA90CC0225B39DA2E5C2D3B DUP6 DUP1 LOG2 DUP3 MLOAD ISZERO PUSH2 0xA16 JUMPI POP POP PUSH2 0xA08 SWAP6 DUP3 SWAP2 MLOAD SWAP1 DUP5 GAS DELEGATECALL SWAP2 RETURNDATASIZE ISZERO PUSH2 0xA0C JUMPI RETURNDATASIZE PUSH2 0x9FA PUSH2 0x9F1 DUP3 PUSH2 0xDBF JUMP JUMPDEST SWAP3 MLOAD SWAP3 DUP4 PUSH2 0xD9C JUMP JUMPDEST DUP2 MSTORE DUP6 DUP2 SWAP5 RETURNDATASIZE SWAP3 ADD RETURNDATACOPY PUSH2 0xF51 JUMP JUMPDEST POP DUP1 RETURN JUMPDEST POP PUSH1 0x60 SWAP3 POP PUSH2 0xF51 JUMP JUMPDEST SWAP6 POP SWAP6 POP POP POP POP POP CALLVALUE PUSH2 0xA28 JUMPI POP POP DUP1 RETURN JUMPDEST PUSH4 0xB398979F PUSH1 0xE0 SHL DUP2 MSTORE REVERT JUMPDEST DUP7 MLOAD PUSH4 0x4C9C8CE3 PUSH1 0xE0 SHL DUP2 MSTORE DUP1 DUP6 ADD DUP5 SWAP1 MSTORE REVERT JUMPDEST DUP8 MLOAD PUSH4 0x2A875269 PUSH1 0xE2 SHL DUP2 MSTORE DUP1 DUP7 ADD SWAP2 SWAP1 SWAP2 MSTORE REVERT JUMPDEST SWAP1 SWAP2 POP DUP5 DUP2 DUP2 RETURNDATASIZE DUP4 GT PUSH2 0xA89 JUMPI JUMPDEST PUSH2 0xA75 DUP2 DUP4 PUSH2 0xD9C JUMP JUMPDEST DUP2 ADD SUB SLT PUSH2 0xA85 JUMPI MLOAD SWAP1 CODESIZE PUSH2 0x94C JUMP JUMPDEST DUP7 DUP1 REVERT JUMPDEST POP RETURNDATASIZE PUSH2 0xA6B JUMP JUMPDEST DUP5 MLOAD PUSH4 0x340AAFCD PUSH1 0xE1 SHL DUP2 MSTORE DUP8 SWAP1 REVERT JUMPDEST DUP6 DUP1 REVERT JUMPDEST SWAP1 SWAP2 POP CALLVALUE PUSH2 0x2D7 JUMPI DUP2 PUSH1 0x3 NOT CALLDATASIZE ADD SLT PUSH2 0x2D7 JUMPI PUSH2 0xABF PUSH2 0xD50 JUMP JUMPDEST PUSH1 0x1 PUSH1 0x1 PUSH1 0xA0 SHL SUB SWAP2 PUSH1 0x24 CALLDATALOAD DUP4 DUP2 AND SWAP2 SWAP1 DUP3 SWAP1 SUB PUSH2 0xAA0 JUMPI PUSH1 0x0 DUP1 MLOAD PUSH1 0x20 PUSH2 0x1035 DUP4 CODECOPY DUP2 MLOAD SWAP2 MSTORE DUP1 SLOAD SWAP1 SWAP5 DUP2 DUP8 SHR PUSH1 0xFF AND ISZERO SWAP5 SWAP1 SWAP2 PUSH1 0x1 PUSH1 0x1 PUSH1 0x40 SHL SUB DUP2 AND DUP1 ISZERO SWAP1 DUP2 PUSH2 0xCA9 JUMPI JUMPDEST PUSH1 0x1 EQ SWAP1 DUP2 PUSH2 0xC9F JUMPI JUMPDEST ISZERO SWAP1 DUP2 PUSH2 0xC96 JUMPI JUMPDEST POP PUSH2 0xC86 JUMPI PUSH1 0x1 PUSH1 0x1 PUSH1 0x40 SHL SUB NOT DUP2 AND PUSH1 0x1 OR DUP8 SSTORE DUP6 PUSH2 0xC6B JUMPI JUMPDEST POP PUSH2 0xB3D PUSH2 0xE5A JUMP JUMPDEST PUSH2 0xB45 PUSH2 0xF22 JUMP JUMPDEST PUSH2 0xB4D PUSH2 0xF22 JUMP JUMPDEST PUSH2 0xB55 PUSH2 0xF22 JUMP JUMPDEST PUSH2 0xB5D PUSH2 0xF22 JUMP JUMPDEST CALLER ISZERO PUSH2 0xC54 JUMPI PUSH2 0xB6C CALLER PUSH2 0xEC6 JUMP JUMPDEST PUSH2 0xB74 PUSH2 0xF22 JUMP JUMPDEST PUSH2 0xB7C PUSH2 0xF22 JUMP JUMPDEST PUSH1 0x1 PUSH1 0x0 DUP1 MLOAD PUSH1 0x20 PUSH2 0x1015 DUP4 CODECOPY DUP2 MLOAD SWAP2 MSTORE SSTORE AND SWAP1 DUP2 ISZERO DUP1 ISZERO PUSH2 0xC4C JUMPI JUMPDEST PUSH2 0xC08 JUMPI POP PUSH1 0x1 DUP1 PUSH1 0xA0 SHL SUB NOT SWAP1 DUP2 DUP8 SLOAD AND OR DUP7 SSTORE PUSH1 0x3 SLOAD AND OR PUSH1 0x3 SSTORE PUSH2 0xBC1 PUSH1 0x2 SLOAD PUSH2 0xDDA JUMP JUMPDEST PUSH1 0x2 SSTORE PUSH2 0xBCC JUMPI DUP3 DUP1 RETURN JUMPDEST DUP1 SLOAD PUSH1 0xFF PUSH1 0x40 SHL NOT AND SWAP1 SSTORE MLOAD PUSH1 0x1 DUP2 MSTORE PUSH32 0xC7F505B2F371AE2175EE4913F4499E1F2633A7B5936321EED1CDAEB6115181D2 SWAP1 PUSH1 0x20 SWAP1 LOG1 CODESIZE DUP1 DUP3 DUP1 RETURN JUMPDEST PUSH1 0x64 SWAP1 PUSH1 0x20 DUP8 MLOAD SWAP2 PUSH4 0x6E38EF5D PUSH1 0xE1 SHL DUP4 MSTORE DUP3 ADD MSTORE PUSH1 0x1D PUSH1 0x24 DUP3 ADD MSTORE PUSH32 0x5A65726F20616464726573732063616E6E6F7420626520706173736564000000 PUSH1 0x44 DUP3 ADD MSTORE REVERT JUMPDEST POP DUP3 ISZERO PUSH2 0xB99 JUMP JUMPDEST DUP7 MLOAD PUSH4 0x1E4FBDF7 PUSH1 0xE0 SHL DUP2 MSTORE DUP1 DUP5 ADD DUP10 SWAP1 MSTORE PUSH1 0x24 SWAP1 REVERT JUMPDEST PUSH1 0x1 PUSH1 0x1 PUSH1 0x48 SHL SUB NOT AND PUSH1 0x1 PUSH1 0x1 PUSH1 0x40 SHL ADD OR DUP7 SSTORE CODESIZE PUSH2 0xB34 JUMP JUMPDEST DUP8 MLOAD PUSH4 0xF92EE8A9 PUSH1 0xE0 SHL DUP2 MSTORE DUP5 SWAP1 REVERT JUMPDEST SWAP1 POP ISZERO CODESIZE PUSH2 0xB19 JUMP JUMPDEST ADDRESS EXTCODESIZE ISZERO SWAP2 POP PUSH2 0xB11 JUMP JUMPDEST DUP8 SWAP2 POP PUSH2 0xB07 JUMP JUMPDEST SWAP1 SWAP2 POP CALLVALUE PUSH2 0x2D7 JUMPI PUSH1 0x20 CALLDATASIZE PUSH1 0x3 NOT ADD SLT PUSH2 0x2D7 JUMPI PUSH2 0xCCD PUSH2 0xD50 JUMP JUMPDEST PUSH2 0xCD5 PUSH2 0xE21 JUMP JUMPDEST PUSH1 0x1 PUSH1 0x1 PUSH1 0xA0 SHL SUB AND DUP4 MSTORE PUSH1 0x1 PUSH1 0x20 MSTORE DUP2 DUP4 KECCAK256 DUP1 SLOAD SWAP1 SWAP2 PUSH1 0xFF DUP3 AND DUP2 DUP2 LT ISZERO PUSH2 0x778 JUMPI PUSH1 0x2 DUP2 EQ SWAP1 DUP2 ISZERO PUSH2 0xD45 JUMPI JUMPDEST POP PUSH2 0x713 JUMPI POP PUSH1 0xFF NOT AND PUSH1 0x2 OR DUP2 SSTORE PUSH1 0x1 ADD SLOAD SWAP1 MLOAD SWAP1 DUP2 MSTORE PUSH32 0xE9ADB25745B994166E7820B9542CF7115917437938B5197B0964875DD138FF37 SWAP1 PUSH1 0x20 SWAP1 LOG1 DUP1 RETURN JUMPDEST PUSH1 0x3 SWAP2 POP EQ CODESIZE PUSH2 0xD04 JUMP JUMPDEST PUSH1 0x4 CALLDATALOAD SWAP1 PUSH1 0x1 PUSH1 0x1 PUSH1 0xA0 SHL SUB DUP3 AND DUP3 SUB PUSH2 0xD66 JUMPI JUMP JUMPDEST PUSH1 0x0 DUP1 REVERT JUMPDEST PUSH1 0x60 DUP2 ADD SWAP1 DUP2 LT PUSH1 0x1 PUSH1 0x1 PUSH1 0x40 SHL SUB DUP3 GT OR PUSH2 0xD86 JUMPI PUSH1 0x40 MSTORE JUMP JUMPDEST PUSH4 0x4E487B71 PUSH1 0xE0 SHL PUSH1 0x0 MSTORE PUSH1 0x41 PUSH1 0x4 MSTORE PUSH1 0x24 PUSH1 0x0 REVERT JUMPDEST PUSH1 0x1F SWAP1 SWAP2 ADD PUSH1 0x1F NOT AND DUP2 ADD SWAP1 PUSH1 0x1 PUSH1 0x1 PUSH1 0x40 SHL SUB DUP3 GT SWAP1 DUP3 LT OR PUSH2 0xD86 JUMPI PUSH1 0x40 MSTORE JUMP JUMPDEST PUSH1 0x1 PUSH1 0x1 PUSH1 0x40 SHL SUB DUP2 GT PUSH2 0xD86 JUMPI PUSH1 0x1F ADD PUSH1 0x1F NOT AND PUSH1 0x20 ADD SWAP1 JUMP JUMPDEST PUSH1 0x0 NOT DUP2 EQ PUSH2 0xDE9 JUMPI PUSH1 0x1 ADD SWAP1 JUMP JUMPDEST PUSH4 0x4E487B71 PUSH1 0xE0 SHL PUSH1 0x0 MSTORE PUSH1 0x11 PUSH1 0x4 MSTORE PUSH1 0x24 PUSH1 0x0 REVERT JUMPDEST PUSH1 0x4 DUP3 LT ISZERO PUSH2 0xE0B JUMPI MSTORE JUMP JUMPDEST PUSH4 0x4E487B71 PUSH1 0xE0 SHL PUSH1 0x0 MSTORE PUSH1 0x21 PUSH1 0x4 MSTORE PUSH1 0x24 PUSH1 0x0 REVERT JUMPDEST PUSH1 0x0 DUP1 MLOAD PUSH1 0x20 PUSH2 0xFB5 DUP4 CODECOPY DUP2 MLOAD SWAP2 MSTORE SLOAD PUSH1 0x1 PUSH1 0x1 PUSH1 0xA0 SHL SUB AND CALLER SUB PUSH2 0xE42 JUMPI JUMP JUMPDEST PUSH1 0x40 MLOAD PUSH4 0x118CDAA7 PUSH1 0xE0 SHL DUP2 MSTORE CALLER PUSH1 0x4 DUP3 ADD MSTORE PUSH1 0x24 SWAP1 REVERT JUMPDEST PUSH1 0x1 PUSH1 0x1 PUSH1 0xA0 SHL SUB PUSH32 0x0 DUP2 AND ADDRESS DUP2 EQ SWAP2 DUP3 ISZERO PUSH2 0xEAA JUMPI JUMPDEST POP POP PUSH2 0xE98 JUMPI JUMP JUMPDEST PUSH1 0x40 MLOAD PUSH4 0x703E46DD PUSH1 0xE1 SHL DUP2 MSTORE PUSH1 0x4 SWAP1 REVERT JUMPDEST PUSH1 0x0 DUP1 MLOAD PUSH1 0x20 PUSH2 0xFD5 DUP4 CODECOPY DUP2 MLOAD SWAP2 MSTORE SLOAD AND EQ ISZERO SWAP1 POP CODESIZE DUP1 PUSH2 0xE90 JUMP JUMPDEST PUSH1 0x0 DUP1 MLOAD PUSH1 0x20 PUSH2 0x1055 DUP4 CODECOPY DUP2 MLOAD SWAP2 MSTORE DUP1 SLOAD PUSH1 0x1 PUSH1 0x1 PUSH1 0xA0 SHL SUB NOT SWAP1 DUP2 AND SWAP1 SWAP2 SSTORE PUSH1 0x0 DUP1 MLOAD PUSH1 0x20 PUSH2 0xFB5 DUP4 CODECOPY DUP2 MLOAD SWAP2 MSTORE DUP1 SLOAD SWAP2 DUP3 AND PUSH1 0x1 PUSH1 0x1 PUSH1 0xA0 SHL SUB SWAP4 DUP5 AND SWAP1 DUP2 OR SWAP1 SWAP2 SSTORE SWAP2 AND PUSH1 0x0 DUP1 MLOAD PUSH1 0x20 PUSH2 0xFF5 DUP4 CODECOPY DUP2 MLOAD SWAP2 MSTORE PUSH1 0x0 DUP1 LOG3 JUMP JUMPDEST PUSH1 0xFF PUSH1 0x0 DUP1 MLOAD PUSH1 0x20 PUSH2 0x1035 DUP4 CODECOPY DUP2 MLOAD SWAP2 MSTORE SLOAD PUSH1 0x40 SHR AND ISZERO PUSH2 0xF3F JUMPI JUMP JUMPDEST PUSH1 0x40 MLOAD PUSH4 0x1AFCD79F PUSH1 0xE3 SHL DUP2 MSTORE PUSH1 0x4 SWAP1 REVERT JUMPDEST SWAP1 PUSH2 0xF78 JUMPI POP DUP1 MLOAD ISZERO PUSH2 0xF66 JUMPI PUSH1 0x20 DUP2 MLOAD SWAP2 ADD REVERT JUMPDEST PUSH1 0x40 MLOAD PUSH4 0xD6BDA275 PUSH1 0xE0 SHL DUP2 MSTORE PUSH1 0x4 SWAP1 REVERT JUMPDEST DUP2 MLOAD ISZERO DUP1 PUSH2 0xFAB JUMPI JUMPDEST PUSH2 0xF89 JUMPI POP SWAP1 JUMP JUMPDEST PUSH1 0x40 MLOAD PUSH4 0x9996B315 PUSH1 0xE0 SHL DUP2 MSTORE PUSH1 0x1 PUSH1 0x1 PUSH1 0xA0 SHL SUB SWAP1 SWAP2 AND PUSH1 0x4 DUP3 ADD MSTORE PUSH1 0x24 SWAP1 REVERT JUMPDEST POP DUP1 EXTCODESIZE ISZERO PUSH2 0xF81 JUMP INVALID SWAP1 AND 0xD0 SWAP14 PUSH19 0xD40FDAE2FD8CEAC6B6234C7706214FD39C1CD1 0xE6 MULMOD LOG0 MSTORE DUP13 NOT SWAP4 STOP CALLDATASIZE ADDMOD SWAP5 LOG1 EXTCODESIZE LOG1 LOG3 0x21 MOD PUSH8 0xC828492DB98DCA3E KECCAK256 PUSH23 0xCC3735A920A3CA505D382BBC8BE0079C531659141344CD 0x1F 0xD0 LOG4 CALLCODE DUP5 NOT BLOBHASH PUSH32 0x9722A3DAAFE3B4186F6B6457E09B779B17422D0DF92223018B32B4D1FA46E071 PUSH19 0x3D6817E2486D003BECC55F00F0C57E16840DF0 BLOCKHASH CALL POP DUP9 0xDC 0x2F DUP2 INVALID CODECOPY SHR CODECOPY 0x23 0xBE 0xC7 RETURNDATACOPY 0x23 0xA9 PUSH7 0x2EFC9C229C6A00 0x23 PUSH31 0x158222E3E6968B72B9DB0D8043AACF074AD9F650F0D1606B4D82EE432C00A2 PUSH5 0x6970667358 0x22 SLT KECCAK256 MUL SWAP10 0xB3 0xC7 CODECOPY 0xC5 PUSH13 0xC3734EE92239556C2EF9609BF5 DUP15 SWAP3 JUMPDEST PC PUSH13 0xE2ED3A1593D02E64736F6C6343 STOP ADDMOD XOR STOP CALLER "},"methodIdentifiers":{"UPGRADE_INTERFACE_VERSION()":"ad3cb1cc","acceptOwnership()":"79ba5097","depositAndExec(string,uint256,uint256)":"924b5a79","getJobDetails(address)":"b18008d2","initialize(address,address)":"485cc955","mediator()":"6d0501f6","owner()":"8da5cb5b","pendingOwner()":"e30c3978","postOpsUpdate(address)":"2eb5b98b","proxiableUUID()":"52d1902d","renounceOwnership()":"715018a6","stableCoin()":"992642e5","transferOwnership(address)":"f2fde38b","transferToWhisperRouter(address)":"77924d1f","upgradeToAndCall(address,bytes)":"4f1ef286"}},"storageLayout":{"storage":[{"astId":3378,"contract":"src/L2Contracts/Dealer.sol:Dealer","label":"mediator","offset":0,"slot":"0","type":"t_address"},{"astId":3383,"contract":"src/L2Contracts/Dealer.sol:Dealer","label":"jobDetails","offset":0,"slot":"1","type":"t_mapping(t_address,t_struct(Job)3936_storage)"},{"astId":3385,"contract":"src/L2Contracts/Dealer.sol:Dealer","label":"nonce","offset":0,"slot":"2","type":"t_uint256"},{"astId":3388,"contract":"src/L2Contracts/Dealer.sol:Dealer","label":"stableCoin","offset":0,"slot":"3","type":"t_contract(IERC20)2345"}],"types":{"t_address":{"encoding":"inplace","label":"address","numberOfBytes":"20"},"t_bytes32":{"encoding":"inplace","label":"bytes32","numberOfBytes":"32"},"t_contract(IERC20)2345":{"encoding":"inplace","label":"contract IERC20","numberOfBytes":"20"},"t_enum(JobStatus)3928":{"encoding":"inplace","label":"enum IDealer.JobStatus","numberOfBytes":"1"},"t_mapping(t_address,t_struct(Job)3936_storage)":{"encoding":"mapping","key":"t_address","label":"mapping(address => struct IDealer.Job)","numberOfBytes":"32","value":"t_struct(Job)3936_storage"},"t_struct(Job)3936_storage":{"encoding":"inplace","label":"struct IDealer.Job","members":[{"astId":3931,"contract":"src/L2Contracts/Dealer.sol:Dealer","label":"status","offset":0,"slot":"0","type":"t_enum(JobStatus)3928"},{"astId":3933,"contract":"src/L2Contracts/Dealer.sol:Dealer","label":"digest","offset":0,"slot":"1","type":"t_bytes32"},{"astId":3935,"contract":"src/L2Contracts/Dealer.sol:Dealer","label":"value","offset":0,"slot":"2","type":"t_uint256"}],"numberOfBytes":"96"},"t_uint256":{"encoding":"inplace","label":"uint256","numberOfBytes":"32"}}}}}}