{"src/Dealer.sol":{"Dealer":{"abi":[{"inputs":[{"internalType":"address","name":"target","type":"address"}],"name":"AddressEmptyCode","type":"error"},{"inputs":[{"internalType":"string","name":"reason","type":"string"}],"name":"AuthenticationFailed","type":"error"},{"inputs":[{"internalType":"address","name":"implementation","type":"address"}],"name":"ERC1967InvalidImplementation","type":"error"},{"inputs":[],"name":"ERC1967NonPayable","type":"error"},{"inputs":[],"name":"FailedCall","type":"error"},{"inputs":[{"internalType":"string","name":"reason","type":"string"}],"name":"InvalidChainId","type":"error"},{"inputs":[],"name":"InvalidImplementation","type":"error"},{"inputs":[],"name":"InvalidInitialization","type":"error"},{"inputs":[{"internalType":"string","name":"reason","type":"string"}],"name":"InvalidInteraction","type":"error"},{"inputs":[],"name":"NotInitializing","type":"error"},{"inputs":[{"internalType":"address","name":"owner","type":"address"}],"name":"OwnableInvalidOwner","type":"error"},{"inputs":[{"internalType":"address","name":"account","type":"address"}],"name":"OwnableUnauthorizedAccount","type":"error"},{"inputs":[],"name":"ReentrancyGuardReentrantCall","type":"error"},{"inputs":[{"internalType":"address","name":"token","type":"address"}],"name":"SafeERC20FailedOperation","type":"error"},{"inputs":[],"name":"UUPSUnauthorizedCallContext","type":"error"},{"inputs":[{"internalType":"bytes32","name":"slot","type":"bytes32"}],"name":"UUPSUnsupportedProxiableUUID","type":"error"},{"anonymous":false,"inputs":[{"indexed":false,"internalType":"uint256","name":"_amount","type":"uint256"}],"name":"FundsTransferredToMediator","type":"event"},{"anonymous":false,"inputs":[{"indexed":false,"internalType":"uint64","name":"version","type":"uint64"}],"name":"Initialized","type":"event"},{"anonymous":false,"inputs":[{"indexed":true,"internalType":"string","name":"_backendDigest","type":"string"},{"indexed":false,"internalType":"bytes32","name":"_jobDigest","type":"bytes32"},{"indexed":true,"internalType":"uint256","name":"_chainId","type":"uint256"}],"name":"L3Interaction","type":"event"},{"anonymous":false,"inputs":[{"indexed":true,"internalType":"address","name":"previousOwner","type":"address"},{"indexed":true,"internalType":"address","name":"newOwner","type":"address"}],"name":"OwnershipTransferStarted","type":"event"},{"anonymous":false,"inputs":[{"indexed":true,"internalType":"address","name":"previousOwner","type":"address"},{"indexed":true,"internalType":"address","name":"newOwner","type":"address"}],"name":"OwnershipTransferred","type":"event"},{"anonymous":false,"inputs":[{"indexed":true,"internalType":"address","name":"implementation","type":"address"}],"name":"Upgraded","type":"event"},{"inputs":[],"name":"UPGRADE_INTERFACE_VERSION","outputs":[{"internalType":"string","name":"","type":"string"}],"stateMutability":"view","type":"function"},{"inputs":[],"name":"acceptOwnership","outputs":[],"stateMutability":"nonpayable","type":"function"},{"inputs":[{"internalType":"string","name":"_backendDigest","type":"string"},{"internalType":"uint256","name":"_privateChainId","type":"uint256"},{"internalType":"uint256","name":"_totalAmount","type":"uint256"}],"name":"depositAndExec","outputs":[],"stateMutability":"nonpayable","type":"function"},{"inputs":[{"internalType":"address","name":"_creator","type":"address"}],"name":"getJobDetails","outputs":[{"components":[{"internalType":"bool","name":"status","type":"bool"},{"internalType":"bytes32","name":"digest","type":"bytes32"},{"internalType":"uint256","name":"value","type":"uint256"}],"internalType":"struct IDealer.Job","name":"","type":"tuple"}],"stateMutability":"view","type":"function"},{"inputs":[{"internalType":"address","name":"_mediator","type":"address"}],"name":"initialize","outputs":[],"stateMutability":"nonpayable","type":"function"},{"inputs":[],"name":"mediator","outputs":[{"internalType":"address","name":"","type":"address"}],"stateMutability":"view","type":"function"},{"inputs":[],"name":"owner","outputs":[{"internalType":"address","name":"","type":"address"}],"stateMutability":"view","type":"function"},{"inputs":[],"name":"pendingOwner","outputs":[{"internalType":"address","name":"","type":"address"}],"stateMutability":"view","type":"function"},{"inputs":[],"name":"proxiableUUID","outputs":[{"internalType":"bytes32","name":"","type":"bytes32"}],"stateMutability":"view","type":"function"},{"inputs":[],"name":"renounceOwnership","outputs":[],"stateMutability":"nonpayable","type":"function"},{"inputs":[],"name":"stableCoin","outputs":[{"internalType":"contract IERC20","name":"","type":"address"}],"stateMutability":"view","type":"function"},{"inputs":[{"internalType":"address","name":"newOwner","type":"address"}],"name":"transferOwnership","outputs":[],"stateMutability":"nonpayable","type":"function"},{"inputs":[{"internalType":"address","name":"_jobCreator","type":"address"}],"name":"transferToWhisperRouter","outputs":[],"stateMutability":"nonpayable","type":"function"},{"inputs":[{"internalType":"address","name":"newImplementation","type":"address"},{"internalType":"bytes","name":"data","type":"bytes"}],"name":"upgradeToAndCall","outputs":[],"stateMutability":"payable","type":"function"}],"evm":{"bytecode":{"linkReferences":{},"object":"60a0806040523461002a5730608052610f0d908161003082396080518181816108da0152610bed0152f35b600080fdfe60406080815260048036101561001457600080fd5b600091823560e01c9182634f1ef2861461092c57826352d1902d146108c55782636d0501f61461089d578263715018a61461082e57826377924d1f1461073a57826379ba5097146106e35782638da5cb5b146106ad578263924b5a7914610471578263992642e514610448578263ad3cb1cc146103a9578263b18008d214610322578263c4d66de81461018157508163e30c397814610147575063f2fde38b146100bd57600080fd5b34610144576020366003190112610144576100d6610b34565b6100de610c4f565b600080516020610eb883398151915280546001600160a01b0319166001600160a01b03928316908117909155600080516020610e18833981519152549091167f38d16b8cac22d99fc7c124b9cd0de2d3fa1faef420bfe791d8c362d765e227008380a380f35b80fd5b90503461017d578160031936011261017d57600080516020610eb88339815191525490516001600160a01b039091168152602090f35b5080fd5b9091503461031e57602036600319011261031e5761019d610b34565b600080516020610e988339815191528054909281851c60ff161592916001600160401b03811680159081610316575b600114908161030c575b159081610303575b506102f4576001600160401b031981166001178555836102d9575b50610202610be3565b61020a610d85565b610212610d85565b61021a610d85565b610222610d85565b33156102c2575061023233610c88565b61023a610d85565b610242610d85565b6001600080516020610e788339815191525584546001600160a01b0319166001600160a01b039190911617845560025461027b90610bbe565b600255610286578280f35b805460ff60401b1916905551600181527fc7f505b2f371ae2175ee4913f4499e1f2633a7b5936321eed1cdaeb6115181d290602090a138808280f35b8451631e4fbdf760e01b8152908101869052602490fd5b6001600160481b0319166001600160401b01178455386101f9565b50845163f92ee8a960e01b8152fd5b905015386101de565b303b1591506101d6565b8591506101cc565b8280fd5b83823461017d57602036600319011261017d5780606092610341610b34565b8183805161034e81610b4f565b828152826020820152015260018060a01b0316815260016020522090805161037581610b4f565b60ff835416151592838252826002600183015492602085019384520154920191825282519384525160208401525190820152f35b9091503461031e578260031936011261031e57815190818301906001600160401b038211838310176104355750825260058152602090640352e302e360dc1b6020820152825193849260208452825192836020860152825b84811061041f57505050828201840152601f01601f19168101030190f35b8181018301518882018801528795508201610401565b634e487b7160e01b855260419052602484fd5b83823461017d578160031936011261017d5760035490516001600160a01b039091168152602090f35b83903461017d57606036600319011261017d576001600160401b0381358181116106a957366023820112156106a957808301359182116106a95760249081810190828436920101116106a55781359260443591600292600080516020610e788339815191529684885414610697578488558615610662578115610628573389526020956001875260ff8b8b205416156105e95750509183916105cf8488889661056e60a060019e9f809c7f78352e0cd5a6d886c0f17f330e53c3af773e83642f27370af2442e49e1506f029c548251958693838501988d8d8b378d8601948501528301524260608301526080820152036080810184520182610b80565b519020948c818a519161058083610b4f565b8083528983018981528c8085019287845233815260018d52209351151560ff80198654169116178455518f840155519101556105bc8154610bbe565b90558a8060a01b03600354163090610ce4565b818651928392833781018a81520390209351908152a35580f35b8a51636e38ef5d60e11b815291820187905260199082015278141c995d9a5bdd5cc8129bd888139bdd08199a5b9a5cda1959603a1b6044820152606490fd5b60649060148760208d5193636e38ef5d60e11b855284015282015273125b9d985b1a5908125b9c1d5d08105b5bdd5b9d60621b6044820152fd5b606490600f8760208d51936305c57e8360e01b85528401528201526e125b9d985b1a590810da185a5b9259608a1b6044820152fd5b8951633ee5aeb560e01b8152fd5b8480fd5b8380fd5b83823461017d578160031936011261017d57600080516020610e188339815191525490516001600160a01b039091168152602090f35b91503461031e578260031936011261031e57600080516020610eb883398151915254336001600160a01b0390911603610723578261072033610c88565b80f35b60249250519063118cdaa760e01b82523390820152fd5b83903461017d57602036600319011261017d57610755610b34565b61075d610c4f565b6001600160a01b03908116835260016020819052848420855193919061078285610b4f565b86600260ff83541615159283885284810154602089015201549501948552146107ea5750837f7c834a8a637af7c8ad16699142b1a7b82ff8ac97de948638b65a6c9458228e90926107e0836020946003541690875416835191610ce4565b519051908152a180f35b6064906020865191636e38ef5d60e11b8352820152601e60248201527f4e6f206c617465737420696e746572616374696f6e20726571756972656400006044820152fd5b8334610144578060031936011261014457610847610c4f565b600080516020610eb883398151915280546001600160a01b0319908116909155600080516020610e188339815191528054918216905581906001600160a01b0316600080516020610e588339815191528280a380f35b83823461017d578160031936011261017d57905490516001600160a01b039091168152602090f35b908334610144578060031936011261014457507f00000000000000000000000000000000000000000000000000000000000000006001600160a01b0316300361091f5760209051600080516020610e388339815191528152f35b5163703e46dd60e11b8152fd5b91508060031936011261031e57610941610b34565b60249390919084356001600160401b03811161017d573660238201121561017d578085013561096f81610ba3565b9461097c85519687610b80565b81865260209182870193368a8383010111610b30578186928b8693018737880101526109a6610be3565b6109ae610c4f565b803b15610b205784516352d1902d60e01b81526001600160a01b038216969083818a818b5afa869181610aed575b506109f8575050505050505191634c9c8ce360e01b8352820152fd5b9088888894938c600080516020610e3883398151915291828103610ad85750853b15610ac4575080546001600160a01b031916821790558451889392917fbc7cd75a20ee27fd9adebab32041f755214dbc6bffa90cc0225b39da2e5c2d3b8580a2825115610aa6575050610a989582915190845af4913d15610a9c573d610a8a610a8182610ba3565b92519283610b80565b81528581943d92013e610db4565b5080f35b5060609250610db4565b955095505050505034610ab857505080f35b63b398979f60e01b8152fd5b8651634c9c8ce360e01b8152808501849052fd5b8751632a87526960e21b815280860191909152fd5b9091508481813d8311610b19575b610b058183610b80565b81010312610b15575190386109dc565b8680fd5b503d610afb565b845163340aafcd60e11b81528790fd5b8580fd5b600435906001600160a01b0382168203610b4a57565b600080fd5b606081019081106001600160401b03821117610b6a57604052565b634e487b7160e01b600052604160045260246000fd5b601f909101601f19168101906001600160401b03821190821017610b6a57604052565b6001600160401b038111610b6a57601f01601f191660200190565b6000198114610bcd5760010190565b634e487b7160e01b600052601160045260246000fd5b6001600160a01b037f00000000000000000000000000000000000000000000000000000000000000008116308114918215610c33575b5050610c2157565b60405163703e46dd60e11b8152600490fd5b600080516020610e388339815191525416141590503880610c19565b600080516020610e18833981519152546001600160a01b03163303610c7057565b60405163118cdaa760e01b8152336004820152602490fd5b600080516020610eb883398151915280546001600160a01b0319908116909155600080516020610e1883398151915280549182166001600160a01b039384169081179091559116600080516020610e58833981519152600080a3565b60405163a9059cbb60e01b602082019081526001600160a01b039384166024830152604480830195909552938152909260808201906001600160401b03821183831017610b6a57602092600092604052519082865af115610d79576000513d610d7057508082163b155b610d56575050565b604051635274afe760e01b81529116600482015260249150fd5b60011415610d4e565b6040513d6000823e3d90fd5b60ff600080516020610e988339815191525460401c1615610da257565b604051631afcd79f60e31b8152600490fd5b90610ddb5750805115610dc957602081519101fd5b60405163d6bda27560e01b8152600490fd5b81511580610e0e575b610dec575090565b604051639996b31560e01b81526001600160a01b039091166004820152602490fd5b50803b15610de456fe9016d09d72d40fdae2fd8ceac6b6234c7706214fd39c1cd1e609a0528c199300360894a13ba1a3210667c828492db98dca3e2076cc3735a920a3ca505d382bbc8be0079c531659141344cd1fd0a4f28419497f9722a3daafe3b4186f6b6457e09b779b17422d0df92223018b32b4d1fa46e071723d6817e2486d003becc55f00f0c57e16840df040f15088dc2f81fe391c3923bec73e23a9662efc9c229c6a00237e158222e3e6968b72b9db0d8043aacf074ad9f650f0d1606b4d82ee432c00a2646970667358221220f04fa58709e8ad0063d94e16f24f7f0a965c988393cc438883bdf4c8b5e07c0f64736f6c63430008180033","opcodes":"PUSH1 0xA0 DUP1 PUSH1 0x40 MSTORE CALLVALUE PUSH2 0x2A JUMPI ADDRESS PUSH1 0x80 MSTORE PUSH2 0xF0D SWAP1 DUP2 PUSH2 0x30 DUP3 CODECOPY PUSH1 0x80 MLOAD DUP2 DUP2 DUP2 PUSH2 0x8DA ADD MSTORE PUSH2 0xBED ADD MSTORE RETURN JUMPDEST PUSH1 0x0 DUP1 REVERT INVALID PUSH1 0x40 PUSH1 0x80 DUP2 MSTORE PUSH1 0x4 DUP1 CALLDATASIZE LT ISZERO PUSH2 0x14 JUMPI PUSH1 0x0 DUP1 REVERT JUMPDEST PUSH1 0x0 SWAP2 DUP3 CALLDATALOAD PUSH1 0xE0 SHR SWAP2 DUP3 PUSH4 0x4F1EF286 EQ PUSH2 0x92C JUMPI DUP3 PUSH4 0x52D1902D EQ PUSH2 0x8C5 JUMPI DUP3 PUSH4 0x6D0501F6 EQ PUSH2 0x89D JUMPI DUP3 PUSH4 0x715018A6 EQ PUSH2 0x82E JUMPI DUP3 PUSH4 0x77924D1F EQ PUSH2 0x73A JUMPI DUP3 PUSH4 0x79BA5097 EQ PUSH2 0x6E3 JUMPI DUP3 PUSH4 0x8DA5CB5B EQ PUSH2 0x6AD JUMPI DUP3 PUSH4 0x924B5A79 EQ PUSH2 0x471 JUMPI DUP3 PUSH4 0x992642E5 EQ PUSH2 0x448 JUMPI DUP3 PUSH4 0xAD3CB1CC EQ PUSH2 0x3A9 JUMPI DUP3 PUSH4 0xB18008D2 EQ PUSH2 0x322 JUMPI DUP3 PUSH4 0xC4D66DE8 EQ PUSH2 0x181 JUMPI POP DUP2 PUSH4 0xE30C3978 EQ PUSH2 0x147 JUMPI POP PUSH4 0xF2FDE38B EQ PUSH2 0xBD JUMPI PUSH1 0x0 DUP1 REVERT JUMPDEST CALLVALUE PUSH2 0x144 JUMPI PUSH1 0x20 CALLDATASIZE PUSH1 0x3 NOT ADD SLT PUSH2 0x144 JUMPI PUSH2 0xD6 PUSH2 0xB34 JUMP JUMPDEST PUSH2 0xDE PUSH2 0xC4F JUMP JUMPDEST PUSH1 0x0 DUP1 MLOAD PUSH1 0x20 PUSH2 0xEB8 DUP4 CODECOPY DUP2 MLOAD SWAP2 MSTORE DUP1 SLOAD PUSH1 0x1 PUSH1 0x1 PUSH1 0xA0 SHL SUB NOT AND PUSH1 0x1 PUSH1 0x1 PUSH1 0xA0 SHL SUB SWAP3 DUP4 AND SWAP1 DUP2 OR SWAP1 SWAP2 SSTORE PUSH1 0x0 DUP1 MLOAD PUSH1 0x20 PUSH2 0xE18 DUP4 CODECOPY DUP2 MLOAD SWAP2 MSTORE SLOAD SWAP1 SWAP2 AND PUSH32 0x38D16B8CAC22D99FC7C124B9CD0DE2D3FA1FAEF420BFE791D8C362D765E22700 DUP4 DUP1 LOG3 DUP1 RETURN JUMPDEST DUP1 REVERT JUMPDEST SWAP1 POP CALLVALUE PUSH2 0x17D JUMPI DUP2 PUSH1 0x3 NOT CALLDATASIZE ADD SLT PUSH2 0x17D JUMPI PUSH1 0x0 DUP1 MLOAD PUSH1 0x20 PUSH2 0xEB8 DUP4 CODECOPY DUP2 MLOAD SWAP2 MSTORE SLOAD SWAP1 MLOAD PUSH1 0x1 PUSH1 0x1 PUSH1 0xA0 SHL SUB SWAP1 SWAP2 AND DUP2 MSTORE PUSH1 0x20 SWAP1 RETURN JUMPDEST POP DUP1 REVERT JUMPDEST SWAP1 SWAP2 POP CALLVALUE PUSH2 0x31E JUMPI PUSH1 0x20 CALLDATASIZE PUSH1 0x3 NOT ADD SLT PUSH2 0x31E JUMPI PUSH2 0x19D PUSH2 0xB34 JUMP JUMPDEST PUSH1 0x0 DUP1 MLOAD PUSH1 0x20 PUSH2 0xE98 DUP4 CODECOPY DUP2 MLOAD SWAP2 MSTORE DUP1 SLOAD SWAP1 SWAP3 DUP2 DUP6 SHR PUSH1 0xFF AND ISZERO SWAP3 SWAP2 PUSH1 0x1 PUSH1 0x1 PUSH1 0x40 SHL SUB DUP2 AND DUP1 ISZERO SWAP1 DUP2 PUSH2 0x316 JUMPI JUMPDEST PUSH1 0x1 EQ SWAP1 DUP2 PUSH2 0x30C JUMPI JUMPDEST ISZERO SWAP1 DUP2 PUSH2 0x303 JUMPI JUMPDEST POP PUSH2 0x2F4 JUMPI PUSH1 0x1 PUSH1 0x1 PUSH1 0x40 SHL SUB NOT DUP2 AND PUSH1 0x1 OR DUP6 SSTORE DUP4 PUSH2 0x2D9 JUMPI JUMPDEST POP PUSH2 0x202 PUSH2 0xBE3 JUMP JUMPDEST PUSH2 0x20A PUSH2 0xD85 JUMP JUMPDEST PUSH2 0x212 PUSH2 0xD85 JUMP JUMPDEST PUSH2 0x21A PUSH2 0xD85 JUMP JUMPDEST PUSH2 0x222 PUSH2 0xD85 JUMP JUMPDEST CALLER ISZERO PUSH2 0x2C2 JUMPI POP PUSH2 0x232 CALLER PUSH2 0xC88 JUMP JUMPDEST PUSH2 0x23A PUSH2 0xD85 JUMP JUMPDEST PUSH2 0x242 PUSH2 0xD85 JUMP JUMPDEST PUSH1 0x1 PUSH1 0x0 DUP1 MLOAD PUSH1 0x20 PUSH2 0xE78 DUP4 CODECOPY DUP2 MLOAD SWAP2 MSTORE SSTORE DUP5 SLOAD PUSH1 0x1 PUSH1 0x1 PUSH1 0xA0 SHL SUB NOT AND PUSH1 0x1 PUSH1 0x1 PUSH1 0xA0 SHL SUB SWAP2 SWAP1 SWAP2 AND OR DUP5 SSTORE PUSH1 0x2 SLOAD PUSH2 0x27B SWAP1 PUSH2 0xBBE JUMP JUMPDEST PUSH1 0x2 SSTORE PUSH2 0x286 JUMPI DUP3 DUP1 RETURN JUMPDEST DUP1 SLOAD PUSH1 0xFF PUSH1 0x40 SHL NOT AND SWAP1 SSTORE MLOAD PUSH1 0x1 DUP2 MSTORE PUSH32 0xC7F505B2F371AE2175EE4913F4499E1F2633A7B5936321EED1CDAEB6115181D2 SWAP1 PUSH1 0x20 SWAP1 LOG1 CODESIZE DUP1 DUP3 DUP1 RETURN JUMPDEST DUP5 MLOAD PUSH4 0x1E4FBDF7 PUSH1 0xE0 SHL DUP2 MSTORE SWAP1 DUP2 ADD DUP7 SWAP1 MSTORE PUSH1 0x24 SWAP1 REVERT JUMPDEST PUSH1 0x1 PUSH1 0x1 PUSH1 0x48 SHL SUB NOT AND PUSH1 0x1 PUSH1 0x1 PUSH1 0x40 SHL ADD OR DUP5 SSTORE CODESIZE PUSH2 0x1F9 JUMP JUMPDEST POP DUP5 MLOAD PUSH4 0xF92EE8A9 PUSH1 0xE0 SHL DUP2 MSTORE REVERT JUMPDEST SWAP1 POP ISZERO CODESIZE PUSH2 0x1DE JUMP JUMPDEST ADDRESS EXTCODESIZE ISZERO SWAP2 POP PUSH2 0x1D6 JUMP JUMPDEST DUP6 SWAP2 POP PUSH2 0x1CC JUMP JUMPDEST DUP3 DUP1 REVERT JUMPDEST DUP4 DUP3 CALLVALUE PUSH2 0x17D JUMPI PUSH1 0x20 CALLDATASIZE PUSH1 0x3 NOT ADD SLT PUSH2 0x17D JUMPI DUP1 PUSH1 0x60 SWAP3 PUSH2 0x341 PUSH2 0xB34 JUMP JUMPDEST DUP2 DUP4 DUP1 MLOAD PUSH2 0x34E DUP2 PUSH2 0xB4F JUMP JUMPDEST DUP3 DUP2 MSTORE DUP3 PUSH1 0x20 DUP3 ADD MSTORE ADD MSTORE PUSH1 0x1 DUP1 PUSH1 0xA0 SHL SUB AND DUP2 MSTORE PUSH1 0x1 PUSH1 0x20 MSTORE KECCAK256 SWAP1 DUP1 MLOAD PUSH2 0x375 DUP2 PUSH2 0xB4F JUMP JUMPDEST PUSH1 0xFF DUP4 SLOAD AND ISZERO ISZERO SWAP3 DUP4 DUP3 MSTORE DUP3 PUSH1 0x2 PUSH1 0x1 DUP4 ADD SLOAD SWAP3 PUSH1 0x20 DUP6 ADD SWAP4 DUP5 MSTORE ADD SLOAD SWAP3 ADD SWAP2 DUP3 MSTORE DUP3 MLOAD SWAP4 DUP5 MSTORE MLOAD PUSH1 0x20 DUP5 ADD MSTORE MLOAD SWAP1 DUP3 ADD MSTORE RETURN JUMPDEST SWAP1 SWAP2 POP CALLVALUE PUSH2 0x31E JUMPI DUP3 PUSH1 0x3 NOT CALLDATASIZE ADD SLT PUSH2 0x31E JUMPI DUP2 MLOAD SWAP1 DUP2 DUP4 ADD SWAP1 PUSH1 0x1 PUSH1 0x1 PUSH1 0x40 SHL SUB DUP3 GT DUP4 DUP4 LT OR PUSH2 0x435 JUMPI POP DUP3 MSTORE PUSH1 0x5 DUP2 MSTORE PUSH1 0x20 SWAP1 PUSH5 0x352E302E3 PUSH1 0xDC SHL PUSH1 0x20 DUP3 ADD MSTORE DUP3 MLOAD SWAP4 DUP5 SWAP3 PUSH1 0x20 DUP5 MSTORE DUP3 MLOAD SWAP3 DUP4 PUSH1 0x20 DUP7 ADD MSTORE DUP3 JUMPDEST DUP5 DUP2 LT PUSH2 0x41F JUMPI POP POP POP DUP3 DUP3 ADD DUP5 ADD MSTORE PUSH1 0x1F ADD PUSH1 0x1F NOT AND DUP2 ADD SUB ADD SWAP1 RETURN JUMPDEST DUP2 DUP2 ADD DUP4 ADD MLOAD DUP9 DUP3 ADD DUP9 ADD MSTORE DUP8 SWAP6 POP DUP3 ADD PUSH2 0x401 JUMP JUMPDEST PUSH4 0x4E487B71 PUSH1 0xE0 SHL DUP6 MSTORE PUSH1 0x41 SWAP1 MSTORE PUSH1 0x24 DUP5 REVERT JUMPDEST DUP4 DUP3 CALLVALUE PUSH2 0x17D JUMPI DUP2 PUSH1 0x3 NOT CALLDATASIZE ADD SLT PUSH2 0x17D JUMPI PUSH1 0x3 SLOAD SWAP1 MLOAD PUSH1 0x1 PUSH1 0x1 PUSH1 0xA0 SHL SUB SWAP1 SWAP2 AND DUP2 MSTORE PUSH1 0x20 SWAP1 RETURN JUMPDEST DUP4 SWAP1 CALLVALUE PUSH2 0x17D JUMPI PUSH1 0x60 CALLDATASIZE PUSH1 0x3 NOT ADD SLT PUSH2 0x17D JUMPI PUSH1 0x1 PUSH1 0x1 PUSH1 0x40 SHL SUB DUP2 CALLDATALOAD DUP2 DUP2 GT PUSH2 0x6A9 JUMPI CALLDATASIZE PUSH1 0x23 DUP3 ADD SLT ISZERO PUSH2 0x6A9 JUMPI DUP1 DUP4 ADD CALLDATALOAD SWAP2 DUP3 GT PUSH2 0x6A9 JUMPI PUSH1 0x24 SWAP1 DUP2 DUP2 ADD SWAP1 DUP3 DUP5 CALLDATASIZE SWAP3 ADD ADD GT PUSH2 0x6A5 JUMPI DUP2 CALLDATALOAD SWAP3 PUSH1 0x44 CALLDATALOAD SWAP2 PUSH1 0x2 SWAP3 PUSH1 0x0 DUP1 MLOAD PUSH1 0x20 PUSH2 0xE78 DUP4 CODECOPY DUP2 MLOAD SWAP2 MSTORE SWAP7 DUP5 DUP9 SLOAD EQ PUSH2 0x697 JUMPI DUP5 DUP9 SSTORE DUP7 ISZERO PUSH2 0x662 JUMPI DUP2 ISZERO PUSH2 0x628 JUMPI CALLER DUP10 MSTORE PUSH1 0x20 SWAP6 PUSH1 0x1 DUP8 MSTORE PUSH1 0xFF DUP12 DUP12 KECCAK256 SLOAD AND ISZERO PUSH2 0x5E9 JUMPI POP POP SWAP2 DUP4 SWAP2 PUSH2 0x5CF DUP5 DUP9 DUP9 SWAP7 PUSH2 0x56E PUSH1 0xA0 PUSH1 0x1 SWAP15 SWAP16 DUP1 SWAP13 PUSH32 0x78352E0CD5A6D886C0F17F330E53C3AF773E83642F27370AF2442E49E1506F02 SWAP13 SLOAD DUP3 MLOAD SWAP6 DUP7 SWAP4 DUP4 DUP6 ADD SWAP9 DUP14 DUP14 DUP12 CALLDATACOPY DUP14 DUP7 ADD SWAP5 DUP6 ADD MSTORE DUP4 ADD MSTORE TIMESTAMP PUSH1 0x60 DUP4 ADD MSTORE PUSH1 0x80 DUP3 ADD MSTORE SUB PUSH1 0x80 DUP2 ADD DUP5 MSTORE ADD DUP3 PUSH2 0xB80 JUMP JUMPDEST MLOAD SWAP1 KECCAK256 SWAP5 DUP13 DUP2 DUP11 MLOAD SWAP2 PUSH2 0x580 DUP4 PUSH2 0xB4F JUMP JUMPDEST DUP1 DUP4 MSTORE DUP10 DUP4 ADD DUP10 DUP2 MSTORE DUP13 DUP1 DUP6 ADD SWAP3 DUP8 DUP5 MSTORE CALLER DUP2 MSTORE PUSH1 0x1 DUP14 MSTORE KECCAK256 SWAP4 MLOAD ISZERO ISZERO PUSH1 0xFF DUP1 NOT DUP7 SLOAD AND SWAP2 AND OR DUP5 SSTORE MLOAD DUP16 DUP5 ADD SSTORE MLOAD SWAP2 ADD SSTORE PUSH2 0x5BC DUP2 SLOAD PUSH2 0xBBE JUMP JUMPDEST SWAP1 SSTORE DUP11 DUP1 PUSH1 0xA0 SHL SUB PUSH1 0x3 SLOAD AND ADDRESS SWAP1 PUSH2 0xCE4 JUMP JUMPDEST DUP2 DUP7 MLOAD SWAP3 DUP4 SWAP3 DUP4 CALLDATACOPY DUP2 ADD DUP11 DUP2 MSTORE SUB SWAP1 KECCAK256 SWAP4 MLOAD SWAP1 DUP2 MSTORE LOG3 SSTORE DUP1 RETURN JUMPDEST DUP11 MLOAD PUSH4 0x6E38EF5D PUSH1 0xE1 SHL DUP2 MSTORE SWAP2 DUP3 ADD DUP8 SWAP1 MSTORE PUSH1 0x19 SWAP1 DUP3 ADD MSTORE PUSH25 0x141C995D9A5BDD5CC8129BD888139BDD08199A5B9A5CDA1959 PUSH1 0x3A SHL PUSH1 0x44 DUP3 ADD MSTORE PUSH1 0x64 SWAP1 REVERT JUMPDEST PUSH1 0x64 SWAP1 PUSH1 0x14 DUP8 PUSH1 0x20 DUP14 MLOAD SWAP4 PUSH4 0x6E38EF5D PUSH1 0xE1 SHL DUP6 MSTORE DUP5 ADD MSTORE DUP3 ADD MSTORE PUSH20 0x125B9D985B1A5908125B9C1D5D08105B5BDD5B9D PUSH1 0x62 SHL PUSH1 0x44 DUP3 ADD MSTORE REVERT JUMPDEST PUSH1 0x64 SWAP1 PUSH1 0xF DUP8 PUSH1 0x20 DUP14 MLOAD SWAP4 PUSH4 0x5C57E83 PUSH1 0xE0 SHL DUP6 MSTORE DUP5 ADD MSTORE DUP3 ADD MSTORE PUSH15 0x125B9D985B1A590810DA185A5B9259 PUSH1 0x8A SHL PUSH1 0x44 DUP3 ADD MSTORE REVERT JUMPDEST DUP10 MLOAD PUSH4 0x3EE5AEB5 PUSH1 0xE0 SHL DUP2 MSTORE REVERT JUMPDEST DUP5 DUP1 REVERT JUMPDEST DUP4 DUP1 REVERT JUMPDEST DUP4 DUP3 CALLVALUE PUSH2 0x17D JUMPI DUP2 PUSH1 0x3 NOT CALLDATASIZE ADD SLT PUSH2 0x17D JUMPI PUSH1 0x0 DUP1 MLOAD PUSH1 0x20 PUSH2 0xE18 DUP4 CODECOPY DUP2 MLOAD SWAP2 MSTORE SLOAD SWAP1 MLOAD PUSH1 0x1 PUSH1 0x1 PUSH1 0xA0 SHL SUB SWAP1 SWAP2 AND DUP2 MSTORE PUSH1 0x20 SWAP1 RETURN JUMPDEST SWAP2 POP CALLVALUE PUSH2 0x31E JUMPI DUP3 PUSH1 0x3 NOT CALLDATASIZE ADD SLT PUSH2 0x31E JUMPI PUSH1 0x0 DUP1 MLOAD PUSH1 0x20 PUSH2 0xEB8 DUP4 CODECOPY DUP2 MLOAD SWAP2 MSTORE SLOAD CALLER PUSH1 0x1 PUSH1 0x1 PUSH1 0xA0 SHL SUB SWAP1 SWAP2 AND SUB PUSH2 0x723 JUMPI DUP3 PUSH2 0x720 CALLER PUSH2 0xC88 JUMP JUMPDEST DUP1 RETURN JUMPDEST PUSH1 0x24 SWAP3 POP MLOAD SWAP1 PUSH4 0x118CDAA7 PUSH1 0xE0 SHL DUP3 MSTORE CALLER SWAP1 DUP3 ADD MSTORE REVERT JUMPDEST DUP4 SWAP1 CALLVALUE PUSH2 0x17D JUMPI PUSH1 0x20 CALLDATASIZE PUSH1 0x3 NOT ADD SLT PUSH2 0x17D JUMPI PUSH2 0x755 PUSH2 0xB34 JUMP JUMPDEST PUSH2 0x75D PUSH2 0xC4F JUMP JUMPDEST PUSH1 0x1 PUSH1 0x1 PUSH1 0xA0 SHL SUB SWAP1 DUP2 AND DUP4 MSTORE PUSH1 0x1 PUSH1 0x20 DUP2 SWAP1 MSTORE DUP5 DUP5 KECCAK256 DUP6 MLOAD SWAP4 SWAP2 SWAP1 PUSH2 0x782 DUP6 PUSH2 0xB4F JUMP JUMPDEST DUP7 PUSH1 0x2 PUSH1 0xFF DUP4 SLOAD AND ISZERO ISZERO SWAP3 DUP4 DUP9 MSTORE DUP5 DUP2 ADD SLOAD PUSH1 0x20 DUP10 ADD MSTORE ADD SLOAD SWAP6 ADD SWAP5 DUP6 MSTORE EQ PUSH2 0x7EA JUMPI POP DUP4 PUSH32 0x7C834A8A637AF7C8AD16699142B1A7B82FF8AC97DE948638B65A6C9458228E90 SWAP3 PUSH2 0x7E0 DUP4 PUSH1 0x20 SWAP5 PUSH1 0x3 SLOAD AND SWAP1 DUP8 SLOAD AND DUP4 MLOAD SWAP2 PUSH2 0xCE4 JUMP JUMPDEST MLOAD SWAP1 MLOAD SWAP1 DUP2 MSTORE LOG1 DUP1 RETURN JUMPDEST PUSH1 0x64 SWAP1 PUSH1 0x20 DUP7 MLOAD SWAP2 PUSH4 0x6E38EF5D PUSH1 0xE1 SHL DUP4 MSTORE DUP3 ADD MSTORE PUSH1 0x1E PUSH1 0x24 DUP3 ADD MSTORE PUSH32 0x4E6F206C617465737420696E746572616374696F6E2072657175697265640000 PUSH1 0x44 DUP3 ADD MSTORE REVERT JUMPDEST DUP4 CALLVALUE PUSH2 0x144 JUMPI DUP1 PUSH1 0x3 NOT CALLDATASIZE ADD SLT PUSH2 0x144 JUMPI PUSH2 0x847 PUSH2 0xC4F JUMP JUMPDEST PUSH1 0x0 DUP1 MLOAD PUSH1 0x20 PUSH2 0xEB8 DUP4 CODECOPY DUP2 MLOAD SWAP2 MSTORE DUP1 SLOAD PUSH1 0x1 PUSH1 0x1 PUSH1 0xA0 SHL SUB NOT SWAP1 DUP2 AND SWAP1 SWAP2 SSTORE PUSH1 0x0 DUP1 MLOAD PUSH1 0x20 PUSH2 0xE18 DUP4 CODECOPY DUP2 MLOAD SWAP2 MSTORE DUP1 SLOAD SWAP2 DUP3 AND SWAP1 SSTORE DUP2 SWAP1 PUSH1 0x1 PUSH1 0x1 PUSH1 0xA0 SHL SUB AND PUSH1 0x0 DUP1 MLOAD PUSH1 0x20 PUSH2 0xE58 DUP4 CODECOPY DUP2 MLOAD SWAP2 MSTORE DUP3 DUP1 LOG3 DUP1 RETURN JUMPDEST DUP4 DUP3 CALLVALUE PUSH2 0x17D JUMPI DUP2 PUSH1 0x3 NOT CALLDATASIZE ADD SLT PUSH2 0x17D JUMPI SWAP1 SLOAD SWAP1 MLOAD PUSH1 0x1 PUSH1 0x1 PUSH1 0xA0 SHL SUB SWAP1 SWAP2 AND DUP2 MSTORE PUSH1 0x20 SWAP1 RETURN JUMPDEST SWAP1 DUP4 CALLVALUE PUSH2 0x144 JUMPI DUP1 PUSH1 0x3 NOT CALLDATASIZE ADD SLT PUSH2 0x144 JUMPI POP PUSH32 0x0 PUSH1 0x1 PUSH1 0x1 PUSH1 0xA0 SHL SUB AND ADDRESS SUB PUSH2 0x91F JUMPI PUSH1 0x20 SWAP1 MLOAD PUSH1 0x0 DUP1 MLOAD PUSH1 0x20 PUSH2 0xE38 DUP4 CODECOPY DUP2 MLOAD SWAP2 MSTORE DUP2 MSTORE RETURN JUMPDEST MLOAD PUSH4 0x703E46DD PUSH1 0xE1 SHL DUP2 MSTORE REVERT JUMPDEST SWAP2 POP DUP1 PUSH1 0x3 NOT CALLDATASIZE ADD SLT PUSH2 0x31E JUMPI PUSH2 0x941 PUSH2 0xB34 JUMP JUMPDEST PUSH1 0x24 SWAP4 SWAP1 SWAP2 SWAP1 DUP5 CALLDATALOAD PUSH1 0x1 PUSH1 0x1 PUSH1 0x40 SHL SUB DUP2 GT PUSH2 0x17D JUMPI CALLDATASIZE PUSH1 0x23 DUP3 ADD SLT ISZERO PUSH2 0x17D JUMPI DUP1 DUP6 ADD CALLDATALOAD PUSH2 0x96F DUP2 PUSH2 0xBA3 JUMP JUMPDEST SWAP5 PUSH2 0x97C DUP6 MLOAD SWAP7 DUP8 PUSH2 0xB80 JUMP JUMPDEST DUP2 DUP7 MSTORE PUSH1 0x20 SWAP2 DUP3 DUP8 ADD SWAP4 CALLDATASIZE DUP11 DUP4 DUP4 ADD ADD GT PUSH2 0xB30 JUMPI DUP2 DUP7 SWAP3 DUP12 DUP7 SWAP4 ADD DUP8 CALLDATACOPY DUP9 ADD ADD MSTORE PUSH2 0x9A6 PUSH2 0xBE3 JUMP JUMPDEST PUSH2 0x9AE PUSH2 0xC4F JUMP JUMPDEST DUP1 EXTCODESIZE ISZERO PUSH2 0xB20 JUMPI DUP5 MLOAD PUSH4 0x52D1902D PUSH1 0xE0 SHL DUP2 MSTORE PUSH1 0x1 PUSH1 0x1 PUSH1 0xA0 SHL SUB DUP3 AND SWAP7 SWAP1 DUP4 DUP2 DUP11 DUP2 DUP12 GAS STATICCALL DUP7 SWAP2 DUP2 PUSH2 0xAED JUMPI JUMPDEST POP PUSH2 0x9F8 JUMPI POP POP POP POP POP POP MLOAD SWAP2 PUSH4 0x4C9C8CE3 PUSH1 0xE0 SHL DUP4 MSTORE DUP3 ADD MSTORE REVERT JUMPDEST SWAP1 DUP9 DUP9 DUP9 SWAP5 SWAP4 DUP13 PUSH1 0x0 DUP1 MLOAD PUSH1 0x20 PUSH2 0xE38 DUP4 CODECOPY DUP2 MLOAD SWAP2 MSTORE SWAP2 DUP3 DUP2 SUB PUSH2 0xAD8 JUMPI POP DUP6 EXTCODESIZE ISZERO PUSH2 0xAC4 JUMPI POP DUP1 SLOAD PUSH1 0x1 PUSH1 0x1 PUSH1 0xA0 SHL SUB NOT AND DUP3 OR SWAP1 SSTORE DUP5 MLOAD DUP9 SWAP4 SWAP3 SWAP2 PUSH32 0xBC7CD75A20EE27FD9ADEBAB32041F755214DBC6BFFA90CC0225B39DA2E5C2D3B DUP6 DUP1 LOG2 DUP3 MLOAD ISZERO PUSH2 0xAA6 JUMPI POP POP PUSH2 0xA98 SWAP6 DUP3 SWAP2 MLOAD SWAP1 DUP5 GAS DELEGATECALL SWAP2 RETURNDATASIZE ISZERO PUSH2 0xA9C JUMPI RETURNDATASIZE PUSH2 0xA8A PUSH2 0xA81 DUP3 PUSH2 0xBA3 JUMP JUMPDEST SWAP3 MLOAD SWAP3 DUP4 PUSH2 0xB80 JUMP JUMPDEST DUP2 MSTORE DUP6 DUP2 SWAP5 RETURNDATASIZE SWAP3 ADD RETURNDATACOPY PUSH2 0xDB4 JUMP JUMPDEST POP DUP1 RETURN JUMPDEST POP PUSH1 0x60 SWAP3 POP PUSH2 0xDB4 JUMP JUMPDEST SWAP6 POP SWAP6 POP POP POP POP POP CALLVALUE PUSH2 0xAB8 JUMPI POP POP DUP1 RETURN JUMPDEST PUSH4 0xB398979F PUSH1 0xE0 SHL DUP2 MSTORE REVERT JUMPDEST DUP7 MLOAD PUSH4 0x4C9C8CE3 PUSH1 0xE0 SHL DUP2 MSTORE DUP1 DUP6 ADD DUP5 SWAP1 MSTORE REVERT JUMPDEST DUP8 MLOAD PUSH4 0x2A875269 PUSH1 0xE2 SHL DUP2 MSTORE DUP1 DUP7 ADD SWAP2 SWAP1 SWAP2 MSTORE REVERT JUMPDEST SWAP1 SWAP2 POP DUP5 DUP2 DUP2 RETURNDATASIZE DUP4 GT PUSH2 0xB19 JUMPI JUMPDEST PUSH2 0xB05 DUP2 DUP4 PUSH2 0xB80 JUMP JUMPDEST DUP2 ADD SUB SLT PUSH2 0xB15 JUMPI MLOAD SWAP1 CODESIZE PUSH2 0x9DC JUMP JUMPDEST DUP7 DUP1 REVERT JUMPDEST POP RETURNDATASIZE PUSH2 0xAFB JUMP JUMPDEST DUP5 MLOAD PUSH4 0x340AAFCD PUSH1 0xE1 SHL DUP2 MSTORE DUP8 SWAP1 REVERT JUMPDEST DUP6 DUP1 REVERT JUMPDEST PUSH1 0x4 CALLDATALOAD SWAP1 PUSH1 0x1 PUSH1 0x1 PUSH1 0xA0 SHL SUB DUP3 AND DUP3 SUB PUSH2 0xB4A JUMPI JUMP JUMPDEST PUSH1 0x0 DUP1 REVERT JUMPDEST PUSH1 0x60 DUP2 ADD SWAP1 DUP2 LT PUSH1 0x1 PUSH1 0x1 PUSH1 0x40 SHL SUB DUP3 GT OR PUSH2 0xB6A JUMPI PUSH1 0x40 MSTORE JUMP JUMPDEST PUSH4 0x4E487B71 PUSH1 0xE0 SHL PUSH1 0x0 MSTORE PUSH1 0x41 PUSH1 0x4 MSTORE PUSH1 0x24 PUSH1 0x0 REVERT JUMPDEST PUSH1 0x1F SWAP1 SWAP2 ADD PUSH1 0x1F NOT AND DUP2 ADD SWAP1 PUSH1 0x1 PUSH1 0x1 PUSH1 0x40 SHL SUB DUP3 GT SWAP1 DUP3 LT OR PUSH2 0xB6A JUMPI PUSH1 0x40 MSTORE JUMP JUMPDEST PUSH1 0x1 PUSH1 0x1 PUSH1 0x40 SHL SUB DUP2 GT PUSH2 0xB6A JUMPI PUSH1 0x1F ADD PUSH1 0x1F NOT AND PUSH1 0x20 ADD SWAP1 JUMP JUMPDEST PUSH1 0x0 NOT DUP2 EQ PUSH2 0xBCD JUMPI PUSH1 0x1 ADD SWAP1 JUMP JUMPDEST PUSH4 0x4E487B71 PUSH1 0xE0 SHL PUSH1 0x0 MSTORE PUSH1 0x11 PUSH1 0x4 MSTORE PUSH1 0x24 PUSH1 0x0 REVERT JUMPDEST PUSH1 0x1 PUSH1 0x1 PUSH1 0xA0 SHL SUB PUSH32 0x0 DUP2 AND ADDRESS DUP2 EQ SWAP2 DUP3 ISZERO PUSH2 0xC33 JUMPI JUMPDEST POP POP PUSH2 0xC21 JUMPI JUMP JUMPDEST PUSH1 0x40 MLOAD PUSH4 0x703E46DD PUSH1 0xE1 SHL DUP2 MSTORE PUSH1 0x4 SWAP1 REVERT JUMPDEST PUSH1 0x0 DUP1 MLOAD PUSH1 0x20 PUSH2 0xE38 DUP4 CODECOPY DUP2 MLOAD SWAP2 MSTORE SLOAD AND EQ ISZERO SWAP1 POP CODESIZE DUP1 PUSH2 0xC19 JUMP JUMPDEST PUSH1 0x0 DUP1 MLOAD PUSH1 0x20 PUSH2 0xE18 DUP4 CODECOPY DUP2 MLOAD SWAP2 MSTORE SLOAD PUSH1 0x1 PUSH1 0x1 PUSH1 0xA0 SHL SUB AND CALLER SUB PUSH2 0xC70 JUMPI JUMP JUMPDEST PUSH1 0x40 MLOAD PUSH4 0x118CDAA7 PUSH1 0xE0 SHL DUP2 MSTORE CALLER PUSH1 0x4 DUP3 ADD MSTORE PUSH1 0x24 SWAP1 REVERT JUMPDEST PUSH1 0x0 DUP1 MLOAD PUSH1 0x20 PUSH2 0xEB8 DUP4 CODECOPY DUP2 MLOAD SWAP2 MSTORE DUP1 SLOAD PUSH1 0x1 PUSH1 0x1 PUSH1 0xA0 SHL SUB NOT SWAP1 DUP2 AND SWAP1 SWAP2 SSTORE PUSH1 0x0 DUP1 MLOAD PUSH1 0x20 PUSH2 0xE18 DUP4 CODECOPY DUP2 MLOAD SWAP2 MSTORE DUP1 SLOAD SWAP2 DUP3 AND PUSH1 0x1 PUSH1 0x1 PUSH1 0xA0 SHL SUB SWAP4 DUP5 AND SWAP1 DUP2 OR SWAP1 SWAP2 SSTORE SWAP2 AND PUSH1 0x0 DUP1 MLOAD PUSH1 0x20 PUSH2 0xE58 DUP4 CODECOPY DUP2 MLOAD SWAP2 MSTORE PUSH1 0x0 DUP1 LOG3 JUMP JUMPDEST PUSH1 0x40 MLOAD PUSH4 0xA9059CBB PUSH1 0xE0 SHL PUSH1 0x20 DUP3 ADD SWAP1 DUP2 MSTORE PUSH1 0x1 PUSH1 0x1 PUSH1 0xA0 SHL SUB SWAP4 DUP5 AND PUSH1 0x24 DUP4 ADD MSTORE PUSH1 0x44 DUP1 DUP4 ADD SWAP6 SWAP1 SWAP6 MSTORE SWAP4 DUP2 MSTORE SWAP1 SWAP3 PUSH1 0x80 DUP3 ADD SWAP1 PUSH1 0x1 PUSH1 0x1 PUSH1 0x40 SHL SUB DUP3 GT DUP4 DUP4 LT OR PUSH2 0xB6A JUMPI PUSH1 0x20 SWAP3 PUSH1 0x0 SWAP3 PUSH1 0x40 MSTORE MLOAD SWAP1 DUP3 DUP7 GAS CALL ISZERO PUSH2 0xD79 JUMPI PUSH1 0x0 MLOAD RETURNDATASIZE PUSH2 0xD70 JUMPI POP DUP1 DUP3 AND EXTCODESIZE ISZERO JUMPDEST PUSH2 0xD56 JUMPI POP POP JUMP JUMPDEST PUSH1 0x40 MLOAD PUSH4 0x5274AFE7 PUSH1 0xE0 SHL DUP2 MSTORE SWAP2 AND PUSH1 0x4 DUP3 ADD MSTORE PUSH1 0x24 SWAP2 POP REVERT JUMPDEST PUSH1 0x1 EQ ISZERO PUSH2 0xD4E JUMP JUMPDEST PUSH1 0x40 MLOAD RETURNDATASIZE PUSH1 0x0 DUP3 RETURNDATACOPY RETURNDATASIZE SWAP1 REVERT JUMPDEST PUSH1 0xFF PUSH1 0x0 DUP1 MLOAD PUSH1 0x20 PUSH2 0xE98 DUP4 CODECOPY DUP2 MLOAD SWAP2 MSTORE SLOAD PUSH1 0x40 SHR AND ISZERO PUSH2 0xDA2 JUMPI JUMP JUMPDEST PUSH1 0x40 MLOAD PUSH4 0x1AFCD79F PUSH1 0xE3 SHL DUP2 MSTORE PUSH1 0x4 SWAP1 REVERT JUMPDEST SWAP1 PUSH2 0xDDB JUMPI POP DUP1 MLOAD ISZERO PUSH2 0xDC9 JUMPI PUSH1 0x20 DUP2 MLOAD SWAP2 ADD REVERT JUMPDEST PUSH1 0x40 MLOAD PUSH4 0xD6BDA275 PUSH1 0xE0 SHL DUP2 MSTORE PUSH1 0x4 SWAP1 REVERT JUMPDEST DUP2 MLOAD ISZERO DUP1 PUSH2 0xE0E JUMPI JUMPDEST PUSH2 0xDEC JUMPI POP SWAP1 JUMP JUMPDEST PUSH1 0x40 MLOAD PUSH4 0x9996B315 PUSH1 0xE0 SHL DUP2 MSTORE PUSH1 0x1 PUSH1 0x1 PUSH1 0xA0 SHL SUB SWAP1 SWAP2 AND PUSH1 0x4 DUP3 ADD MSTORE PUSH1 0x24 SWAP1 REVERT JUMPDEST POP DUP1 EXTCODESIZE ISZERO PUSH2 0xDE4 JUMP INVALID SWAP1 AND 0xD0 SWAP14 PUSH19 0xD40FDAE2FD8CEAC6B6234C7706214FD39C1CD1 0xE6 MULMOD LOG0 MSTORE DUP13 NOT SWAP4 STOP CALLDATASIZE ADDMOD SWAP5 LOG1 EXTCODESIZE LOG1 LOG3 0x21 MOD PUSH8 0xC828492DB98DCA3E KECCAK256 PUSH23 0xCC3735A920A3CA505D382BBC8BE0079C531659141344CD 0x1F 0xD0 LOG4 CALLCODE DUP5 NOT BLOBHASH PUSH32 0x9722A3DAAFE3B4186F6B6457E09B779B17422D0DF92223018B32B4D1FA46E071 PUSH19 0x3D6817E2486D003BECC55F00F0C57E16840DF0 BLOCKHASH CALL POP DUP9 0xDC 0x2F DUP2 INVALID CODECOPY SHR CODECOPY 0x23 0xBE 0xC7 RETURNDATACOPY 0x23 0xA9 PUSH7 0x2EFC9C229C6A00 0x23 PUSH31 0x158222E3E6968B72B9DB0D8043AACF074AD9F650F0D1606B4D82EE432C00A2 PUSH5 0x6970667358 0x22 SLT KECCAK256 CREATE 0x4F 0xA5 DUP8 MULMOD 0xE8 0xAD STOP PUSH4 0xD94E16F2 0x4F PUSH32 0xA965C988393CC438883BDF4C8B5E07C0F64736F6C6343000818003300000000 "},"methodIdentifiers":{"UPGRADE_INTERFACE_VERSION()":"ad3cb1cc","acceptOwnership()":"79ba5097","depositAndExec(string,uint256,uint256)":"924b5a79","getJobDetails(address)":"b18008d2","initialize(address)":"c4d66de8","mediator()":"6d0501f6","owner()":"8da5cb5b","pendingOwner()":"e30c3978","proxiableUUID()":"52d1902d","renounceOwnership()":"715018a6","stableCoin()":"992642e5","transferOwnership(address)":"f2fde38b","transferToWhisperRouter(address)":"77924d1f","upgradeToAndCall(address,bytes)":"4f1ef286"}},"storageLayout":{"storage":[{"astId":2367,"contract":"src/Dealer.sol:Dealer","label":"mediator","offset":0,"slot":"0","type":"t_address"},{"astId":2372,"contract":"src/Dealer.sol:Dealer","label":"jobDetails","offset":0,"slot":"1","type":"t_mapping(t_address,t_struct(Job)2603_storage)"},{"astId":2374,"contract":"src/Dealer.sol:Dealer","label":"nonce","offset":0,"slot":"2","type":"t_uint256"},{"astId":2377,"contract":"src/Dealer.sol:Dealer","label":"stableCoin","offset":0,"slot":"3","type":"t_contract(IERC20)1459"}],"types":{"t_address":{"encoding":"inplace","label":"address","numberOfBytes":"20"},"t_bool":{"encoding":"inplace","label":"bool","numberOfBytes":"1"},"t_bytes32":{"encoding":"inplace","label":"bytes32","numberOfBytes":"32"},"t_contract(IERC20)1459":{"encoding":"inplace","label":"contract IERC20","numberOfBytes":"20"},"t_mapping(t_address,t_struct(Job)2603_storage)":{"encoding":"mapping","key":"t_address","label":"mapping(address => struct IDealer.Job)","numberOfBytes":"32","value":"t_struct(Job)2603_storage"},"t_struct(Job)2603_storage":{"encoding":"inplace","label":"struct IDealer.Job","members":[{"astId":2598,"contract":"src/Dealer.sol:Dealer","label":"status","offset":0,"slot":"0","type":"t_bool"},{"astId":2600,"contract":"src/Dealer.sol:Dealer","label":"digest","offset":0,"slot":"1","type":"t_bytes32"},{"astId":2602,"contract":"src/Dealer.sol:Dealer","label":"value","offset":0,"slot":"2","type":"t_uint256"}],"numberOfBytes":"96"},"t_uint256":{"encoding":"inplace","label":"uint256","numberOfBytes":"32"}}}}}}